:020000040000fa
:080000000001040000000000f3
:020000040000fa
:100200004f9020008079220000018800000000004b
:10021000050007000c000700ae0b02000000000004
:100220000040da000000fe004440a9000001200068
:100230000000e0000300320000002000a001880060
:100240004440a800000006004015210001002000e5
:100250001600370062004000e080480091018800ed
:100260009001ba0062004000e080480091018800df
:100270009002ba0062004000e08048000002eb00fb
:100280006028e10005003a008301e900070033001f
:10029000038009000059eb00040037006128e100e9
:1002a000010032000082eb00050007009101880088
:1002b0001001ba000200e000e6ff3a00000005006d
:1002c000910188008002780062004000e0804800d0
:1002d0003559ba008301e900080032002559ba00f7
:1002e0008301e900050032000400e000f4ff320061
:1002f00015d9ba008301e900f1ff3a0000000600b9
:100300008401040000000000881f780002047800c7
:1003100014000700080040004f04780000000600a9
:100320000000fa00881f7800000478003fb99700a9
:10033000ea81570080007800401820001000070074
:10034000800078000000e000020035000040eb0073
:1003500000f47800010078004f0478000080fa0073
:10036000000006008001780002003700b1597800d3
:100370000201e9000200e000fcff3a000000060074
:100380006200fa00889fbe008a9fbe000004be0083
:10039000020578008300780060f92f000f0040000c
:1003a000b000070088979f0099979f000000eb001e
:1003b000a09f9f009a4578000b80fb000000ea0098
:1003c000cf04de0050c2b30080cf550002003200df
:1003d00009047800010037000904e9000800e00082
:1003e0000b0034001f909700080178008a00780005
:1003f0008f9197000300010090979f000000e0009c
:10040000930032002f98970000004400a09f9f00a7
:100410000905450050c2b30080cf550004003200ea
:100420000b04e000e3ff3a002f98970089003700a3
:100430000000eb00809f9f00f0979f00e0979f00d7
:10044000d0979f00c0979f00b0979f00c09f9f00cc
:1004500009003700e08220000080500000004000ca
:1004600021822000e08078004f9897000100700002
:10047000c09f9f000a05e8001a4478008800fb002e
:10048000e08220007c000700800078000000e0008f
:10049000f0ff3a00a0c2b300804f54000e003a00b3
:1004a000bf8897000180e900b08f9f00100078009e
:1004b000b09f9f000000e00005003d000000ea0042
:1004c000b09f9f004f9897000020a000c09f9f0002
:1004d0000a05e80010003700b19f9f0009003700af
:1004e000bf989700f0ff2700808f50000400320073
:1004f0006a08b9000000410003004000b09f9f005f
:100500000a05e8001a01fb0003fd2f00030041006b
:10051000e90f5000f2ff3600e0c2b3009a4f10001e
:10052000040032000080eb00909f9f008a04780056
:100530001c0037008a04e800a0c2b300994f1000e5
:1005400007003a00bf8897000180e900b08f9f0044
:1005500010007800909f9f008a84e8001100370007
:100560000000eb00909f9f00090037009f989700c4
:10057000f0ff2700808f5000040032006a08b900a5
:100580000000410003004000909f9f008904e800a4
:100590001901fb0003fd2f0003004100e90f50008b
:1005a000f2ff3600194478008800fb0040832000e9
:1005b000310007000000e00002003a00004478002b
:1005c000010037008904e800a87f9f0080c6b300bf
:1005d000804f540004003a00994f14000a003a007a
:1005e0006640500006003700c0c6b300804f54007c
:1005f00005003a00994f140003003a00654040009e
:10060000a07f9f008904e8000905e800cbfb2f00cc
:100610008f8545001901fb0060f92f000f00400095
:100620000084e8008b0178008000780008007800e2
:100630001a0007000000e00005003a008b00780077
:1006400008007800590107000000e00059ff3d0054
:100650000080eb004f05be004f04be000080fa0092
:10066000000006000200fa00f1bf9f0001087800b8
:100670000080fa0000000600040037000204e000d9
:1006800001003a00000005000000e8001041780079
:10069000814f5100f9ff3a0000000600889fbe001c
:1006a0008a1f7800000478000102780082447800f4
:1006b00003057800e0c6b300804f5100d30032003c
:1006c00015003c006b405000804f51002400320068
:1006d0000a003c0070405000804f51001001320071
:1006e00065404000804f51007400320050c2b3009a
:1006f000804f510021013a001d01370040c6b30070
:10070000804f51001b00320065404000804f510077
:100710001a013a001700370030c7b300804f51006c
:10072000ff00320007003c0064405000804f510041
:10073000620032000040e800804f51000f013a0093
:10074000e800370050c7b300804f51005b00320013
:1007500063404000804f510008013a0057003700c5
:100760009180e900010a780078009000917178008a
:1007700008013700a8609000c0c6b30080cf5000c9
:100780000a003a009400780064805000000a780063
:100790001000be004f89de00cf91de000002be00d7
:1007a00002037800820378001300370010c7b300fb
:1007b00080cf500003003200a0c6b30080cf5000ad
:1007c00006003a009400780068805000000a780023
:1007d0003002be002003be00070037001480e9008d
:1007e000000a78001000780000027800cfa2de0036
:1007f0000503780086037800049cbe000694be00c2
:10080000a860900080c6b30080cf50000e00320078
:1008100020c6b30080cf500005003a000400fb0062
:10082000cf80de0001017800820178000a003700e5
:1008300040c7b30080cf5000030032006640400044
:1008400080cf500006003a0004007800cf80de0020
:100850000101780082017800009cbe000294be0075
:100860003800be002801be00e00f5000e08f5800a5
:10087000e00f5900e08f590003003d007800900020
:10088000d1c2b3000a003700081090000018a3007e
:100890000300320078009000b1c2b30004003700ba
:1008a0000008a300540032007800900001c2b30099
:1008b000017578000000e8004e003700a860900045
:1008c000c0c6b30080cf500007003a009400780003
:1008d00064805000000a78001002be000003eb00a4
:1008e000860378001300370010c7b30080cf500094
:1008f00003003200a0c6b30080cf500006003a00cb
:100900009400780068805000000a78003002be0031
:100910002003be00070037001480e900000a7800b9
:10092000100078000002780005002000060020007a
:1009300007002000049cbe000694be00a860900042
:1009400080c6b30080cf50000e00320020c6b30036
:1009500080cf500005003a000480fb000100200019
:1009600002002000030020000a00370040c7b30047
:1009700080cf5000030032006640400080cf50001e
:1009800006003a0004007800010020000200200068
:1009900003002000009cbe000294be0008109000de
:1009a0000038a300140032003800be002801be0049
:1009b000e00f5000e08f5800e00f5900e08f590021
:1009c0000d00320080c7b30080cf54000300320016
:1009d00080c5b30080cf540007003a007800900033
:1009e00001c3b300017578008000e80009f57800c4
:1009f0000080e80070049800780090000000450036
:100a0000600498008940780042003700a860900098
:100a1000c0c6b30080cf5000250032000a003c0061
:100a20006440500080cf50002800320000c0e80031
:100a300080cf5000140032006840500080cf50003a
:100a400022003a000a00370040c7b30080cf5000b0
:100a50001e0032006640400080cf50001b00320074
:100a60006940500080cf500018003a00060037005f
:100a70001480e900000a780010007800485c9000bb
:100a800008487800450037001480e900000a780023
:100a90001002780068089000cf80de000101780025
:100aa00082017800009abe000292be003b0037002f
:100ab0001480e900000a78001001780068089000ae
:100ac000cf80de000089be00340037001480e900ca
:100ad000000a780010007800680c90000808780080
:100ae0002e0037001180e90080087800100078009f
:100af000cf80de000101780082017800009cbe00fa
:100b00000294be0078009000000045006004980048
:100b100081c7b30008007800ee0007001f0037000f
:100b20001480e900000a7800100078006004980042
:100b3000580990000200e00002003d009c010700ff
:100b4000090037008000eb00a0010700800078005a
:100b50000000e000030032006800900000805000b8
:100b60000100370058089000100c98000b00370067
:100b70007800900002757800060037007800900039
:100b8000800045000904e00001003a0059c2b300aa
:100b9000894878000000e800700498000000eb002d
:100ba0004f0578004f04be00000006000400fa0064
:100bb000889fbe008a9fbe008c1f780000047800ca
:100bc0000106780070089000f800900001005000c5
:100bd0008808900001005000980890000100500023
:100be000a808900001005000b808900001005000d3
:100bf000c8089000810550000002220090bf9f00ad
:100c000000032300a0bf9f00081090000028a3004d
:100c100018003a000b00e000160034008b04780046
:100c200009057800e28f5400020036002a002000f7
:100c3000020037000900e0000b003400580090006b
:100c4000c80190000a017800ee80570003000100ff
:100c5000500498000000e000960032006808900000
:100c600000004500600c98008a8454004240a900ae
:100c7000ebff3c00780190000200e0000b00340024
:100c800058009000c80190008c007800030001001b
:100c9000500498000000e0008600320068089000d0
:100ca000f800900001004000600c9800880c900053
:100cb0000900e0001500340009057800e28f5400b7
:100cc000020036002a002000020037000900e00080
:100cd0000b00340058009000c80190000a01780011
:100ce000ec80570003000100500498000000e00071
:100cf000700032006808900000004500600c980009
:100d00008a8454004240a900ebff3c00180990007f
:100d10000200e0000b003400e80090005800900052
:100d2000c801900003000100500498000000e0009a
:100d300060003200680890009808900001004000b0
:100d4000600c9800a80c90000900e0001500340029
:100d500009057800e28f5400020036002a002000c6
:100d6000020037000900e0000b003400580090003a
:100d7000c80190000a017800ec80570003000100d0
:100d8000500498000000e0004a003200680890001b
:100d900000004500600c98008a8454004240a9007d
:100da000ebff3c00380990000200e0000d00340029
:100db000e8009000180890008080400058009000e3
:100dc000c801900003000100500498000000e000fa
:100dd0003800320068089000b80890000100400018
:100de000600c9800c80c90000900e0001500340069
:100df00009057800e28f5400020036002a00200026
:100e0000020037000900e0000b0034005800900099
:100e1000c80190000a017800ec805700030001002f
:100e2000500498000000e0002200320068089000a2
:100e300000004500600c98008a8454004240a900dc
:100e4000ebff3c00081090000028a3001b003200bc
:100e50000b00e000190034008b04780009057800cd
:100e6000e28f5400020036002a0020000200370002
:100e70000900e0000b00340058009000c801900009
:100e80000a017800ee80570003000100500498002a
:100e90000000e000070032006808900000004500f4
:100ea000600c98008a8454004240a900030034007a
:100eb000eaff37000080eb00010037000000eb0084
:100ec0004f0678004f05be004f04be000080fa00b8
:100ed00000000600ef02b000889fbe008a9fbe009f
:100ee0008c9fbe008e1f78008006780000012000d5
:100ef000b0b79f0012812000c2b79f0080c5b30029
:100f000080cf50000e00320083002000b3b79f0056
:100f100004802000c4b79f007740400080cf50007d
:100f20000700320000012000b0b79f0080c7b30067
:100f300080cf500002003200a2002000b2b79f0014
:100f40003d04be002d05be0040c6b30080cf50005a
:100f5000030032006540400080cf50000b003a0093
:100f6000e00f5400e08f5c00e00f5d00e08f5d005b
:100f700006003d006000b8006011b8000804500091
:100f8000898458000a0559008b855900e00f5400e8
:100f9000e08f5c00e00f5d00e08f5d0004003a0030
:100fa0005d0890008e0120000000e0000c0032007f
:100fb000bfb1970003027800cfa2de0005037800de
:100fc000860378000800be000a01be001301070076
:100fd0004fb2970064407800d0df9f007e01200070
:100fe0003fb0970000027800cfa2de000503780032
:100ff000860378000800be000a01be000001070059
:1010000023003700bfb0970001047800cfc4de0092
:10101000090578008a0578000802be000a03be00b0
:101020007fa897008fb097001fb19700afb19700ce
:10103000fe000700d0b79f00e1b79f00f2b79f0006
:1010400083bf9f000e07e90062fc2f000f014100e3
:101050000e0641000802be000a03be005fb0970002
:10106000efb097007fb197008fb997006b01070031
:101070007faa970000005200cfb09700614e780021
:101080005fb09700efb097007fb197008fb99700de
:10109000809ebe008296be003d00be002d01be00b7
:1010a000f0af9f0081b79f0092b79f00a3b79f004a
:1010b000e00f5000e08f5800e00f5900e08f59001a
:1010c000020034000e00e000ceff3c00bfb09700ed
:1010d000e88f500010003a000d1090000038a30077
:1010e0000d003200f70f570006003e0062fc2f0093
:1010f0000f0141008e00410000c3b300914f10006a
:10110000050032000e07e90000c3b30063fc2f00a6
:101110008f81410080717f0078011700920e980046
:101120006d00900063fc2f008f8141008e80410094
:101130008cfc07001d0990005d089000800f510095
:1011400006003d0002005000800e98000d10900037
:101150000040a100801698000f0037000000e0005a
:101160000d003d000d10900074006000f00f500065
:1011700009003a007d089000fd0090000100500039
:101180008d08900001005000020050004240a9006c
:1011900001003400800e98004f0778004f06be0013
:1011a0004f05be004f04be00ef02b1000000060074
:1011b00080007800010037000000e8001004e00023
:1011c000fdff3a0001005000000006000600370055
:1011d00090cf100002003a000001780004003700b0
:1011e0000000e8000201e9000200e000f8ff3a0018
:1011f0000200780000000600881f780000047800d4
:101200005001be004000be00040040008580480040
:101210000601490087814900009cbe000294be007f
:101220000400e1000588e1000690e1000798e10074
:1012300002003100680044001008e8004f04780004
:10124000000006001000fa00889fbe008a9fbe00c2
:101250003004be002005be00c8b79f00d9b79f006c
:10126000eab79f00fbb79f000404540085845c002c
:1012700006055d0087855d0088bf9f0099bf9f00c0
:10128000aabf9f00bbbf9f000898be000a98be007f
:101290008000eb004fb49700dfb497006fb5970064
:1012a000ffb597000440e10005c8e10006d0e10069
:1012b00007d8e10001003100110020001088100063
:1012c0004f05be004f04be000080fa00000006007b
:1012d0001200fa00889fbe008a9fbe008c1f780013
:1012e0000205be000004be00f4b79f0085bf9f004a
:1012f00096bf9f00a7bf9f000000eb00e0b79f00d4
:10130000d0b79f00c0b79f00b0b79f00a0b79f00a5
:1013100000067800dfb097006fb097000001400032
:101320000000e0000a003d008c00070001003d00c5
:10133000120020009200070001003d001200200072
:10134000970007007c805700abff070009003700bb
:101350008200070001003d00120020008800070005
:1013600001003d00120020008d0007007c80570026
:10137000b4ff07006fb297000400e00007003500db
:1013800010002000010020006011b8000804700067
:10139000898470000a0571008b8571000c06e800d5
:1013a000f0032000800f5600daff34000400e00054
:1013b00006003d007fb297008fba97001fbb9700d1
:1013c000afbb97007c8057008bff07006fa897008a
:1013d0000000e00004003a002fb49700bfb497006b
:1013e0004fb59700dfb59700890007004f067800da
:1013f0004f05be004f04be000080fa00000006004a
:10140000881f780018002000881f7800b0ff0700b0
:101410008f87e9004f04780000000600801feb0072
:10142000abff07008f87e90000000600889fbe0021
:101430008a9fbe008c1f78006e00070005003d00eb
:101440002f00070007003d003d0007000006eb00ed
:10145000040037003f00070002003d003000070095
:101460001c0020006a000700e5ff07000203be0021
:101470000002be000c00e00001003200280007005e
:101480000400be000601be004f0678004f05be00f6
:101490004f04be0000000600889fbe008a9fbe0069
:1014a0008c1f78005300070003003d001400070064
:1014b00006003d00040037002600070003003d0041
:1014c0006000b8006011b8001d0007005000070060
:1014d000d2ff07000203be000002be000c00e000c5
:1014e000010032000e0007000400be000601be002d
:1014f0004f0678004f05be004f04be0000000600f6
:101500006000b8006011b8000804500089845800d9
:101510000a0559008b8559001c0020000300370084
:101520006000b8006011b80005003700e00f5200fd
:10153000e08f5a00e00f5b00e08f5b0000000600c8
:101540000402500085825800060359008783590021
:10155000000006000006eb00f4ff37004f08de0035
:1015600000007100c0b79f0001804000b0b79f002d
:101570000001eb00afb097000100e00000000600a2
:1015800002007000b0b79f0001804000a0b79f002c
:101590000001eb009fb097000100e0000000060092
:1015a00002007000a0b79f00018040000fb29700ba
:1015b000cf20de000100700090b79f0004024200bf
:1015c000130007004f18de000002720084b79f006e
:1015d0000804440089844c000a054d008b854d00a9
:1015e0005fb29700efb297007fb397008fbb970071
:1015f000000006000205be000004be00e00f50001f
:10160000e08f5800e00f5900e08f590000000600fd
:101610000800be000a01be0000000600889fbe0050
:101620008a9fbe008c1f78000205be000004be0029
:101630000006eb00e00f5000e08f5800e00f59006b
:10164000e08f590007003d006000b8006011b8004d
:1016500008045000898458000a0559008b855900f8
:101660001c002000e00f5200e08f5a00e00f5b00ea
:10167000e08f5b0002003d000f0007000c00a2009d
:101680000800be000a01be00120007000203be00ef
:101690000002be000c00e00001003200060007005e
:1016a0000400be000601be004f0678004f05be00d4
:1016b0004f04be00000006006000b8006011b800d2
:1016c00004025000858258000603590087835900a0
:1016d00000000600889fbe008a9fbe008c9fbe004f
:1016e0000404b8000506b8008904460060854e0071
:1016f0000606b8000a054600e0854e000706b80059
:101700008b054600040eb800890446000a854e0089
:10171000e0854d00050eb8000a0546008b854e0099
:10172000060eb8008b0546000416b8000a054600f0
:101730008b854e000516b8008b054600041eb800c8
:101740008b0546000800be000a01be004f06be0021
:101750004f05be004f04be00000006000c00fa005a
:10176000800007000de2a80070002000a010880093
:101770000f42a800e6c2bf000080fb004600de006a
:10178000614060000081fb00e7c2bf000080fb00f9
:101790000000d100614060000080fb0000004000bc
:1017a00080007800e7c2bf00614060000080fb005d
:1017b000008040000000400080007800e6c2bf00ca
:1017c0000080fb004700de000080fb00008040003e
:1017d00000004000000f4100a40207000000eb00e1
:1017e000620207000000eb00800207001e00780084
:1017f0006101b9004207980053079800900020004b
:10180000010020004e019000de019000800f510089
:10181000818f590033003e004e009000de009000a2
:1018200000600100090037000c0037000f0037008e
:101830001200370015003700180037001b00370072
:101840001e00370021003700230037001100200060
:101850000000eb0088000700250037001100200081
:101860001000200084000700210037001100200034
:1018700020002000800007001d003700110020001c
:10188000300020007c000700190037001100200004
:1018900040002000780007001500370011002000ec
:1018a00050002000740007001100370011002000d4
:1018b00060002000700007000d00370011002000bc
:1018c000700020006c0007000900370010002000a5
:1018d0002602070006003700100020004302070020
:1018e0000300370011002000800020006200070084
:1018f0008e80e8001e017800821f7800c014290045
:10190000801f78000100780085fa0700e4875700ff
:101910000e80e800104078000000fb008010880076
:101920000e80e800104090000000fb00801088004e
:101930000e80e800204090000000fb00801088002e
:101940000e80e800304090000000fb00801088000e
:101950000e80e800404090000000fb0080108800ee
:1019600084ff37000000fa00c4c2a900c4e2a90045
:10197000c522a900c582a900c542a900c5a2a90027
:10198000c5c2a900c5e2a900c0c2a900c0e2a90061
:10199000c122a900c182a900c142a900c1a2a90017
:1019a000c1c2a900c1e2a900d022a900cc22a9008d
:1019b000d042a900cc42a900e2e2a900e302a900ba
:1019c000e802a900e822a900dee2a900df02a900de
:1019d000e402a900e422a900e202a900de02a900b3
:1019e000d602a900d622a900d642a900d662a90033
:1019f000d682a900d6a2a900d6c2a900d6e2a90023
:101a0000d202a900d222a900d242a900d262a90022
:101a1000d282a900d2a2a900d2c2a900d2e2a90012
:101a2000d1a2a900cda2a900e842a900e862a900bc
:101a3000e442a900e462a900de22a800dec2a800f8
:101a4000e4c2a800e4e2a800e502a800e522a8009c
:101a5000d302a800d322a800d342a800d362a800d2
:101a6000d382a800d3a2a800d3c2a800d3e2a800c2
:101a70000080fa00000006000600fa00000f78005f
:101a8000110798001e007800200798002e00900093
:101a9000e30f5000670032002e009000e30f50006b
:101aa00007003e002e009000e10f50002e00320093
:101ab0002e009000e10f500041003e000d00370065
:101ac0002e009000e50f5000940032002e00900090
:101ad000e50f5000740039002e009000e60f500012
:101ae000ab0032002e009000e70f5000c50032001e
:101af000da0037001e009000e10f50000f003600a2
:101b0000c4c2bf000080fb004600de0061406000f0
:101b10000004a20061406000614060004601dd00f9
:101b2000412c200091407800f0cbb30000c0600051
:101b300002407000c4e2b7008a0137001e00900026
:101b400061406000614060004601dd00412c2000e2
:101b500091407800f0cbb30000c0600002407000fc
:101b6000c4e2b7007f0137001e009000e10f500073
:101b70000b003600c4c2bf000080fb004700de003f
:101b80000004a20061406000c700dd00c4c2bf00c5
:101b90000074a10001407000c4e2b7007101370079
:101ba0001e00900061406000c700dd00c4c2bf009d
:101bb0000074a10001407000c4e2b7006901370061
:101bc0001e009000e10f50000f003600c5c2bf009c
:101bd0000080fb000000d100614060000004a20012
:101be000614060006140600000414000512c2000d5
:101bf00091407800d0cfb30000c060000240700078
:101c0000c5e2b700570137001e0090006140600038
:101c10006140600000414000512c2000914078005c
:101c2000d0cfb30000c0600002407000c5e2b70032
:101c30004c0137001e009000e10f50000f003600ed
:101c4000c5c2bf000080fb004400de0061406000b0
:101c50000004a20061406000614060004401dd00ba
:101c6000512c200091407800f0ceb30000c06000fd
:101c700002407000c5e2b7003a0137001e00900034
:101c800061406000614060004401dd00512c200093
:101c900091407800f0ceb30000c0600002407000b8
:101ca000c5e2b7002f0137001e009000e10f500081
:101cb0000f003600c5c2bf000080fb004200de00fe
:101cc000614060000004a20061406000614060006b
:101cd0004201dd00512c200091407800b0cfb300cc
:101ce00000c0600002407000c5e2b7001d0137006f
:101cf0001e00900061406000614060004201dd0014
:101d0000512c200091407800b0cfb30000c060009b
:101d100002407000c5e2b700120137001e009000bb
:101d2000e10f50000f003600c5c2bf000080fb006d
:101d30004500de00614060000004a20061406000d8
:101d4000614060004501dd00512c20009140780089
:101d5000f0cdb30000c0600002407000c5e2b700e3
:101d6000000137001e00900061406000614060008b
:101d70004501dd00512c200091407800f0cdb300ea
:101d800000c0600002407000c5e2b700f5003700f7
:101d90001e009000e10f50000f003600c5c2bf00ca
:101da0000080fb004600de00614060000004a200ed
:101db00061406000614060004601dd00512c200060
:101dc00091407800f0cbb30000c06000024070008a
:101dd000c5e2b700e30037001e00900061406000dc
:101de000614060004601dd00512c200091407800e8
:101df000f0cbb30000c0600002407000c5e2b70045
:101e0000d80037001e009000e10f50000b00360094
:101e1000c5c2bf000080fb004700de000004a20036
:101e200061406000c700dd00c5c2bf000074a100b2
:101e300001407000c5e2b700ca0037001e009000e4
:101e400061406000c700dd00c5c2bf000074a10092
:101e500001407000c5e2b700c20037001e009000cc
:101e6000e10f500069003600c4c2bf000080fb00d3
:101e70004600de00614060000004a2006140600096
:101e8000614060004601dd00412c20009140780057
:101e9000f0cbb30000c0600002407000c4e2b700a5
:101ea000c4c2bf000080fb004700de000004a200a7
:101eb00061406000c700dd00c4c2bf000074a10023
:101ec00001407000c4e2b700c5c2bf000080fb0043
:101ed0000000d100614060000004a2006140600089
:101ee0006140600000414000512c2000914078008a
:101ef000d0cfb30000c0600002407000c5e2b70060
:101f0000c5c2bf000080fb004400de0061406000ed
:101f10000004a20061406000614060004401dd00f7
:101f2000512c200091407800f0ceb30000c060003a
:101f300002407000c5e2b700c5c2bf000080fb00d0
:101f40004200de00614060000004a20061406000c9
:101f5000614060004201dd00512c2000914078007a
:101f6000b0cfb30000c0600002407000c5e2b7000f
:101f7000c5c2bf000080fb004500de00614060007c
:101f80000004a20061406000614060004501dd0086
:101f9000512c200091407800f0cdb30000c06000cb
:101fa00002407000c5e2b700c5c2bf000080fb0060
:101fb0004600de00614060000004a2006140600055
:101fc000614060004601dd00512c20009140780006
:101fd000f0cbb30000c0600002407000c5e2b70063
:101fe000c5c2bf000080fb004700de000004a20065
:101ff00061406000c700dd00c5c2bf000074a100e1
:1020000001407000c5e2b700560037001e00900086
:1020100061406000c700dd00c5c2bf000074a100c0
:1020200001407000c5e2b700c5c2bf000080fb00e0
:102030004700de00614060004601dd00512c2000b9
:1020400091407800f0cbb30000c060000240700007
:10205000c5e2b700c5c2bf000080fb004600de003d
:1020600061406000614060004501dd00512c2000ae
:1020700091407800f0cdb30000c0600002407000d5
:10208000c5e2b700c5c2bf000080fb004500de000e
:1020900061406000614060004201dd00512c200081
:1020a00091407800b0cfb30000c0600002407000e3
:1020b000c5e2b700c5c2bf000080fb004200de00e1
:1020c00061406000614060004401dd00512c20004f
:1020d00091407800f0ceb30000c060000240700074
:1020e000c5e2b700c5c2bf000080fb004400de00af
:1020f000614060006140600000414000512c2000c0
:1021000091407800d0cfb30000c060000240700062
:10211000c5e2b700c5c2bf000080fb000000d100cf
:1021200061406000c700dd00c4c2bf000074a100b0
:1021300001407000c4e2b700c4c2bf000080fb00d1
:102140004700de00614060004601dd00412c2000b8
:1021500091407800f0cbb30000c0600002407000f6
:10216000c4e2b7000080fa00000006000200fa0096
:10217000000f7800100020009e0f10000f003600a6
:10218000d0c2bf000080fb004200de006140600062
:102190000004a20061406000614060004201dd0077
:1021a000012d200091407800b0cfb30000c0600046
:1021b00002407000d0e2b7000a0037001e0078002d
:1021c00061406000614060004201dd00012d20009f
:1021d00091407800b0cfb30000c0600002407000b2
:1021e000d0e2b7000080fa00000006000200fa000a
:1021f000000f7800100020009e0f10000f00360026
:10220000d0c2bf000080fb000000d1006140600030
:102210000004a20061406000614060000041400095
:10222000012d200091407800d0cfb30000c06000a5
:1022300002407000d0e2b7000a0037001e007800ac
:10224000614060006140600000414000012d2000bd
:1022500091407800d0cfb30000c060000240700011
:10226000d0e2b7000080fa00000006000000fa008b
:10227000c4c2a900c4e2a900c522a900c582a90060
:10228000c542a900c5a2a900c5c2a900c5e2a9000e
:082290000080fa0000000600c6
:020000040000fa
:0200000401f009
:04000000e6ff000017
:020000040000fa
:0200000401f009
:04000400ff7f00007a
:020000040000fa
:0200000401f009
:040008007fff000076
:020000040000fa
:0200000401f009
:04001400ffff0000ea
:020000040000fa
:10000800921100009211000092110000921100005c
:10001800921100009211000092110000921100004c
:10002800921100009211000092110000921100003c
:10003800921100009211000092110000921100002c
:10004800921100009211000092110000921100001c
:10005800921100009211000092110000921100000c
:1000680092110000921100009211000092110000fc
:1000780092110000921100009211000092110000ec
:1000880092110000921100009211000092110000dc
:1000980092110000921100009211000092110000cc
:1000a80092110000921100009211000092110000bc
:1000b80092110000921100009211000092110000ac
:1000c800921100009211000092110000921100009c
:1000d800921100009211000092110000921100008c
:1000e800921100009211000092110000921100007c
:0800f8009211000092110000ba
:020000040000fa
:10010800921100009211000092110000921100005b
:10011800921100009211000092110000921100004b
:10012800921100009211000092110000921100003b
:10013800921100009211000092110000921100002b
:10014800921100009211000092110000921100001b
:10015800921100009211000092110000921100000b
:1001680092110000921100009211000092110000fb
:1001780092110000921100009211000092110000eb
:1001880092110000921100009211000092110000db
:1001980092110000921100009211000092110000cb
:1001a80092110000921100009211000092110000bb
:1001b80092110000921100009211000092110000ab
:1001c800921100009211000092110000921100009b
:1001d800921100009211000092110000921100008b
:1001e800921100009211000092110000921100007b
:0801f8009211000092110000b9
:020000040000fa
:10229800733d0000257800000a0d000000000000d2
:020000040000fa
:1022a80022080000120000000200000001000200e5
:1022b800000400000800100000000000202b2d0082
:1022c800233000003408000008000000020000006d
:1022d800686a6c00747a4c00000000000008000076
:1022e8002200000002000000303132003334350093
:1022f8003637380039616200636465006600300073
:102308003132330034353600373839004142430022
:0c231800444546000000000000000000ea
:020000040000fa
:042324000000fe00b7
:00000001FF
