:020000040000fa
:080000000001040000000000f3
:020000040000fa
:10020000ef02210080792200000188000000000038
:10021000050007000c000700420302000000000078
:100220000040da000000fe004440a9000000200069
:100230000000e0000300320000002000a001880060
:100240004440a80000000600e0e820000100200073
:100250001600370062004000e080480091018800ed
:100260009001ba0062004000e080480091018800df
:100270009002ba0062004000e08048000002eb00fb
:100280006028e10005003a008301e900070033001f
:10029000038009000059eb00040037006128e100e9
:1002a000010032000082eb00050007009101880088
:1002b0001001ba000200e000e6ff3a00000005006d
:1002c000910188008002780062004000e0804800d0
:1002d0003559ba008301e900080032002559ba00f7
:1002e0008301e900050032000400e000f4ff320061
:1002f00015d9ba008301e900f1ff3a0000000600b9
:10030000889fbe008a9fbe00010578000100e000c2
:100310000400350008003c000000e000200032002e
:100320000500370060001000e080180002003b006c
:1003300001f02c001a0037000004be006011b80064
:100340006b0920000982cf00020039000882cf002b
:100350000441b000694252000e00320008003b0028
:1003600082817100610164008904d1000884d30096
:100370008b05e8000442e800f9ff3a000500370069
:100380000804440089844c008b05e9000442e9001c
:10039000fbff3a00680007000af0a70001f0a00088
:1003a0004f05be004f04be0000000600889fbe003f
:1003b0008a9fbe008c1f7800850007008c003300e8
:1003c00003866c006450e1002e0032006420e100de
:1003d000330032006150e1002f0032006120e10063
:1003e0003100320085855500eb07b0000900200080
:1003f00008042000050037000804440089844c00ec
:100400000a0031000603430087834b0000015300bc
:1004100081815b00f8ff33000203be000800a000ea
:100420000804440089844c00f6ff3900c639dd0019
:100430008301730001003200130020008904d10001
:100440000884d3000998a300050032000800a70023
:100450000300a0008904d1000884d3008b05e800c4
:100460008904d1000884d3000001eb000281d2008e
:100470003100070001f0a1000cf0a70001f0a0007e
:10048000640037006420e100660032000801be000d
:100490000200be00f7ff37006120e100610032007a
:1004a0006000b800f3ff37000000200001f82700cb
:1004b000f0ff37000001be005d0007000470a700d8
:1004c00003f0a1006509b100160032000d003500ef
:1004d0006828e10006003500f0ff2f00f1ff27003b
:1004e0000300e00013003b000100280000000500ad
:1004f00000004000818048008502e900fcff3a00ce
:1005000008003700f88f420002003c008000eb003a
:10051000000005008100d1000080d3008502e800c2
:10052000fcff3a000300e00002003b006000100006
:10053000e080180000000600810020006180550066
:100540000b003d000b00200061fe2f000100e100c8
:100550001d00340082817100610164008904d100b2
:100560000884d3000000e800faff3a007100200080
:1005700061006400030070000200600009003200a6
:1005800061044400e0844c000988a50005003200a5
:100590008b05e8006808e10002003a008904d100f8
:1005a0000884d300f20f20000258e10005003d004e
:1005b000c75ddd00f907b20089807500080078008a
:1005c000000006000bf827008b00780000000500f3
:1005d0000004be00160007000003be000405be00b4
:1005e0000200be0012000700844f750000000600e4
:1005f0000200be006450e100050036006420e10006
:10060000020036000968a30001003a000800be009d
:100610000160a0004f0678004f05be004f04be00e9
:1006200000000600f0ff2f00f1ff2700f9ff370060
:10063000c70ade00f107b200f50fb2000800320071
:10064000e1cf4200020032000170a000240005004a
:10065000810f70000100320004080500440005000d
:10066000810f700002003a00140005008502e900c5
:100670000000400081c04800fcff3b000170a0006a
:10068000240005000000fa00510007000040eb00c4
:1006900048030700000037008f0207000000eb004e
:1006a0004d0207000000eb006b0207000000eb00aa
:1006b000fb0207008000780000192000808f5000a6
:1006c00003003400110020000000eb00850007004b
:1006d00010002000f20207008000780000192000be
:1006e000808f500003003400110020001000200013
:1006f0007c00070020002000e9020700800078004d
:1007000000192000808f50000300340011002000e9
:10071000200020007300070030002000e0020700e6
:100720008000780000192000808f50000300340002
:1007300011002000300020006a0007004000200067
:10074000d70207008000780000192000808f500039
:100750000300340011002000400020006100070069
:1007600050002000ce020700800078000019200011
:10077000808f500003003400110020005000200042
:100780005800070060002000c502070080007800c4
:1007900000192000808f5000030034001100200059
:1007a000600020004f00070070002000bc0207001e
:1007b0008000780000192000808f5000b6ff3400c0
:1007c000110020007000200046000700b2ff370033
:1007d0000000fa00c4c2a900c4e2a900c522a90011
:1007e000c582a900c542a900c5a2a900c5c2a90029
:1007f000c5e2a900c0c2a900c0e2a900c122a900a7
:10080000c182a900c142a900c1a2a900c1c2a90018
:10081000c1e2a900d022a900cc22a900d042a9009f
:10082000cc42a900e2e2a900e302a900e802a90083
:10083000e822a900dee2a900df02a900e402a90083
:10084000e422a900e202a900de02a900d602a90062
:10085000d622a900d642a900d662a900d682a90054
:10086000d6a2a900d6c2a900d6e2a900d202a90048
:10087000d222a900d242a900d262a900d282a90044
:10088000d2a2a900d2c2a900d2e2a900d1a2a90095
:10089000cda2a900e842a900e862a900e442a900ab
:1008a000e462a900de22a800dec2a800e4c2a8001b
:1008b000e4e2a800e502a800e522a800d302a8000f
:1008c000d322a800d342a800d362a800d382a800f4
:1008d000d3a2a800d3c2a800d3e2a8000080fa00e7
:1008e000000006000600fa00000f780011079800cb
:1008f0001e007800200798002e009000e30f5000a3
:10090000670032002e009000e30f500007003e0009
:100910002e009000e10f50002e0032002e009000bb
:10092000e10f500041003e000d0037002e00900006
:10093000e50f5000940032002e009000e50f5000ab
:10094000740039002e009000e60f5000ab0032001a
:100950002e009000e70f5000c5003200da0037008b
:100960001e009000e10f50000f003600c4c2bf000f
:100970000080fb004600de00614060000004a20031
:1009800061406000614060004601dd00412c2000b4
:1009900091407800f0cbb30000c0600002407000ce
:1009a000c4e2b7008a0137001e0090006140600079
:1009b000614060004601dd00412c2000914078003c
:1009c000f0cbb30000c0600002407000c4e2b7008a
:1009d0007f0137001e009000e10f50000b00360031
:1009e000c4c2bf000080fb004700de000004a2007c
:1009f00061406000c700dd00c4c2bf000074a100f8
:100a000001407000c4e2b700710137001e00900081
:100a100061406000c700dd00c4c2bf000074a100d7
:100a200001407000c4e2b700690137001e00900069
:100a3000e10f50000f003600c5c2bf000080fb0070
:100a40000000d100614060000004a200614060002d
:100a50006140600000414000512c2000914078002e
:100a6000d0cfb30000c0600002407000c5e2b70004
:100a7000570137001e009000614060006140600037
:100a800000414000512c200091407800d0cfb300ad
:100a900000c0600002407000c5e2b7004c013700a2
:100aa0001e009000e10f50000f003600c5c2bf00cd
:100ab0000080fb004400de00614060000004a200f2
:100ac00061406000614060004401dd00512c200065
:100ad00091407800f0ceb30000c06000024070008a
:100ae000c5e2b7003a0137001e0090006140600087
:100af000614060004401dd00512c200091407800ed
:100b0000f0ceb30000c0600002407000c5e2b70044
:100b10002f0137001e009000e10f50000f0036003b
:100b2000c5c2bf000080fb004200de0061406000e3
:100b30000004a20061406000614060004201dd00ed
:100b4000512c200091407800b0cfb30000c060006d
:100b500002407000c5e2b7001d0137001e00900082
:100b600061406000614060004201dd00512c2000c6
:100b700091407800b0cfb30000c060000240700028
:100b8000c5e2b700120137001e009000e10f5000cf
:100b90000f003600c5c2bf000080fb004500de002c
:100ba000614060000004a20061406000614060009c
:100bb0004501dd00512c200091407800f0cdb300bc
:100bc00000c0600002407000c5e2b70000013700bd
:100bd0001e00900061406000614060004501dd0042
:100be000512c200091407800f0cdb30000c060008f
:100bf00002407000c5e2b700f50037001e0090000b
:100c0000e10f50000f003600c5c2bf000080fb009e
:100c10004600de00614060000004a2006140600008
:100c2000614060004601dd00512c200091407800b9
:100c3000f0cbb30000c0600002407000c5e2b70016
:100c4000e30037001e0090006140600061406000da
:100c50004601dd00512c200091407800f0cbb3001c
:100c600000c0600002407000c5e2b700d800370045
:100c70001e009000e10f50000b003600c5c2bf00ff
:100c80000080fb004700de000004a200614060001d
:100c9000c700dd00c5c2bf000074a10001407000a4
:100ca000c5e2b700ca0037001e0090006140600036
:100cb000c700dd00c5c2bf000074a1000140700084
:100cc000c5e2b700c20037001e009000e10f5000df
:100cd00069003600c4c2bf000080fb004600de0091
:100ce000614060000004a20061406000614060005b
:100cf0004601dd00412c200091407800f0cbb3008c
:100d000000c0600002407000c4e2b700c4c2bf006f
:100d10000080fb004700de000004a200614060008c
:100d2000c700dd00c4c2bf000074a1000140700014
:100d3000c4e2b700c5c2bf000080fb000000d100c4
:100d4000614060000004a2006140600061406000fa
:100d500000414000512c200091407800d0cfb300da
:100d600000c0600002407000c5e2b700c5c2bf000d
:100d70000080fb004400de00614060000004a2002f
:100d800061406000614060004401dd00512c2000a2
:100d900091407800f0ceb30000c0600002407000c7
:100da000c5e2b700c5c2bf000080fb004200de0004
:100db000614060000004a20061406000614060008a
:100dc0004201dd00512c200091407800b0cfb300eb
:100dd00000c0600002407000c5e2b700c5c2bf009d
:100de0000080fb004500de00614060000004a200be
:100df00061406000614060004501dd00512c200031
:100e000091407800f0cdb30000c060000240700057
:100e1000c5e2b700c5c2bf000080fb004600de008f
:100e2000614060000004a200614060006140600019
:100e30004601dd00512c200091407800f0cbb3003a
:100e400000c0600002407000c5e2b700c5c2bf002c
:100e50000080fb004700de000004a200614060004b
:100e6000c700dd00c5c2bf000074a10001407000d2
:100e7000c5e2b700560037001e00900061406000d8
:100e8000c700dd00c5c2bf000074a10001407000b2
:100e9000c5e2b700c5c2bf000080fb004700de000e
:100ea000614060004601dd00512c20009140780037
:100eb000f0cbb30000c0600002407000c5e2b70094
:100ec000c5c2bf000080fb004600de00614060003c
:100ed000614060004501dd00512c20009140780008
:100ee000f0cdb30000c0600002407000c5e2b70062
:100ef000c5c2bf000080fb004500de00614060000d
:100f0000614060004201dd00512c200091407800da
:100f1000b0cfb30000c0600002407000c5e2b7006f
:100f2000c5c2bf000080fb004200de0061406000df
:100f3000614060004401dd00512c200091407800a8
:100f4000f0ceb30000c0600002407000c5e2b70000
:100f5000c5c2bf000080fb004400de0061406000ad
:100f60006140600000414000512c20009140780019
:100f7000d0cfb30000c0600002407000c5e2b700ef
:100f8000c5c2bf000080fb000000d10061406000ce
:100f9000c700dd00c4c2bf000074a10001407000a2
:100fa000c4e2b700c4c2bf000080fb004700de00ff
:100fb000614060004601dd00412c20009140780036
:100fc000f0cbb30000c0600002407000c4e2b70084
:100fd0000080fa00000006000200fa00000f78000e
:100fe000100020009e0f10000f003600d0c2bf007e
:100ff0000080fb004200de00614060000004a200af
:1010000061406000614060004201dd00012d200070
:1010100091407800b0cfb30000c060000240700083
:10102000d0e2b7000a0037001e007800614060007f
:10103000614060004201dd00012d200091407800f8
:10104000b0cfb30000c0600002407000d0e2b70033
:101050000080fa00000006000200fa00000f78008d
:10106000100020009e0f10000f003600d0c2bf00fd
:101070000080fb000000d100614060000004a2007d
:10108000614060006140600000414000012d20008f
:1010900091407800d0cfb30000c0600002407000e3
:1010a000d0e2b7000a0037001e00780061406000ff
:1010b0006140600000414000012d20009140780017
:1010c000d0cfb30000c0600002407000d0e2b70093
:1010d0000080fa00000006000000fa00c4c2a90067
:1010e000c4e2a900c522a900c582a900c542a90081
:1010f000c5a2a900c5c2a900c5e2a9000080fa00e6
:10110000000006002800fa00889fbe008a1f7800b1
:101110000000eb00300798000000eb00200798006b
:101120000f0037003e00900021f520000000400035
:10113000810040000000eb00800878003e00900035
:10114000e80047004200dd00010140006000b800f7
:101150000089be003e0090000000e80030079800c3
:101160003e009000e70f5000eeff340027003700ec
:101170000000eb00300798001e0037003e0590008d
:101180003e009000e80047004200dd000100400002
:101190001004be003e00900041000700cf80de003a
:1011a0000801400089814800e80047004250dd0006
:1011b000010040000288be006000b800008fbe0041
:1011c0000400370010002000010020001e0f400026
:1011d0005e974800703e200001002000be0f100006
:1011e000ae8f1800f7ff34003e0090000000e800ca
:1011f000300798003e009000e70f5000dfff3400fa
:101200002e0090000000e80020079800ae0090003b
:1012100030062000808f5000d5ff34000000eb0026
:1012200030079800170037003e0590003e00900000
:10123000e80047004200dd00010040001000be0051
:101240002ffc07000004be002e009000cf80de00bf
:101250002bfc07000001be000800be0053fc070085
:1012600094fc07000001780021f520000a004500e9
:1012700001004000020878003e0090000000e800f5
:10128000300798003e009000e70f5000e6ff340062
:101290004f0578004f04be000080fa0000000600f1
:1012a0000400fa00000f7800700020009e0f10006c
:1012b000030036000000eb00100798000a0037001a
:1012c0001e00780021f320000000400060817800bb
:1012d0001e00780021f420000000400060807800ab
:1012e00000015100120798001e0090000080fa00d3
:1012f000000006000600fa00100798001e0090008b
:10130000e70f5000030036000000eb0020079800b4
:10131000150037001e00900021f32000000040005f
:10132000608178001e00900021f420000000400041
:1013300060807800000151001e00900021f520001f
:101340000000400060807800000f51001e00e000a7
:10135000030034001e0078002007980002003700c8
:101360000000eb00200798002e0090000080fa009b
:10137000000006000400fa00000f78007000200052
:101380009e0f1000030036000000eb0010079800cd
:10139000050037001e00780021f320000000400007
:1013a00060807800100798001e0090000080fa000e
:1013b000000006000200fa00004f780010c0b300e1
:1013c0009e4f100004003a002180200010c0b3009e
:1013d0008048780003003700218020000040eb00a7
:1013e000804878000000eb00001588000000eb004a
:1013f000101588000000eb00201588000000eb00ad
:1014000030158800a802a800a822a800a842a900b8
:10141000a862a900a882a900a8a2a900a8c2a90040
:10142000a8e2a900a902a900a922a900a942a9002d
:10143000a962a900a982a900a9a2a900a9c2a9001c
:10144000a9e2a900aa02a900aa22a900aa42a8000a
:10145000aa62a800aa82a800aaa2a900aac2a900fa
:10146000aae2a900ab02a900ab22a900ab42a900e5
:10147000ab62a900ab82a900aba2a900abc2a900d4
:10148000abe2a900112a200091407800c0cfb30040
:1014900000c06000a1e2b700a042a800012a20001d
:1014a0009140780000ceb30000c07000a0e2b70009
:1014b000212a20009140780030ccb30000c06000a9
:1014c0000034a000a2e2b700a342a800512a2000e5
:1014d0009140780000ceb30000c060000004a0007e
:1014e000a5e2b70020802000104078000004e00052
:1014f00007003200412a20009140780000ccb30060
:1015000000c060003041b300a4e2b700070037001c
:10151000412a20009140780000ccb30000c0600058
:1015200071c2b30001407000a4e2b7008560a90059
:101530008d60a800a1e2a800208020001040780063
:101540000004e00005003a0000000000217b80005c
:1015500000032000808f5000fbff36000080fa005f
:1015600000000600809fbe00829fbe003400f8008d
:1015700000c0b300a00188000c00fa000180200028
:101580000040eb0080487800118020000040eb0014
:10159000804878008560a9002080200010407800f5
:1015a0000004e0002d00320000282000000f780029
:1015b000127b80001e007800100078008001780007
:1015c0006180200002004100010040000308780013
:1015d0001e8fe800127b80001e007800100078004b
:1015e000800178006180200002004100010040007d
:1015f0000020b000030878001e8fe800127b8000f6
:101600001e007800100078008001780061802000c2
:1016100002004100810040000040200000804000a6
:10162000030878001e8fe800107b80000000e800af
:10163000107b8800117b8000f00f2000808f50000d
:101640009a0136000000eb00107b8800118020001a
:1016500010c0b3008048780094013700c00120001a
:1016600050158800212a20009140780030ccb3002a
:1016700000c060000034a000a2e2b700412a2000b0
:101680009140780000ccb30000c0600071c2b3008c
:1016900001407000a4e2b700408020009040780034
:1016a000d0c3b30080cf50000f003a00c00f20001d
:1016b00050158800212a20009140780030ccb300da
:1016c00000c060004041b300a2e2b700412a200000
:1016d0009140780000ccb30000c060003041b300fe
:1016e000a4e2b700620037004080200090407800fc
:1016f000e0c3b30080cf50002d003a00212a200023
:101700009140780030ccb30000c060000044a000dd
:10171000a2e2b700412a20009140780000ccb3003b
:1017200000c060007041b300a4e2b7003080200028
:10173000104078000080fb00500798005e00900089
:10174000e10f500011003200de009000e18f5000e8
:1017500004003c005e0090000000e0000800320041
:1017600043003700de009000e28f50000a00320094
:101770005e009000e30f50000a0032003c0037008a
:10178000c01121005015880039003700c021220007
:101790005015880036003700c041240050158800dd
:1017a00033003700c0812800501588003000370012
:1017b0004080200010407800e24f50002c003a009a
:1017c000212a20009140780030ccb30000c0600096
:1017d0000044a000a2e2b700412a20009140780016
:1017e00000ccb30000c060007041b300a4e2b700b9
:1017f00030802000104078000080fb0040079800f7
:10180000ce009000e18f5000110032004e00900099
:10181000e10f500004003c00ce0090000100e00009
:1018200008003200120037004e009000e20f500016
:101830000a003200ce009000e38f50000a00320010
:101840000b003700c0112100501588000800370038
:10185000c02122005015880005003700c041240037
:101860005015880002003700c081280050158800fc
:1018700000282000000f7800127b80001e007800f6
:101880001000780080017800618020000200410093
:1018900001004000030878001e8fe800127b8000e2
:1018a0001e00780010007800800178006180200020
:1018b00002004100010040000020b0000308780051
:1018c0001e8fe800127b80001e0078001000780058
:1018d000800178006180200002004100810040000a
:1018e0000040200000804000030878001e8fe800c0
:1018f000107b80000000e800107b8800117b8000d6
:10190000f00f2000808f5000020036000000eb0036
:10191000107b88004080200090407800e0c3b30036
:1019200080cf500026003a00207b80000000e800b5
:10193000207b8800217b800010032000808f5000d6
:10194000020036000000eb00207b8800227b800034
:101950001e007800100078008001780061e020000f
:101960000200410001004000030878001e8fe800db
:10197000227b80001e007800100078008001780033
:1019800061e0200002004100010040004006b0007c
:10199000030878001e8fe800227b80001e0078007c
:1019a000100078008001780061e020000200410012
:1019b00001004000800cb00003087800a60037004a
:1019c0004080200090407800f0c3b30080cf5000ea
:1019d00049003a0030802000104078000080fb0071
:1019e000300798003e009000e10f50001b003200cd
:1019f000be009000e18f500004003c003e009000cb
:101a00000000e0000800320093003700be009000a4
:101a1000e28f50001e0032003e009000e30f5000a5
:101a2000280032008c0037001e007800100078007b
:101a30008000780020f32000010878001e8fe80065
:101a40001e007800100078008000780020f320004d
:101a500041009800e2e2a8007f0037001e007800f5
:101a6000100078008000780020f32000110098001a
:101a70001e8fe8001e0078001000780080007800bb
:101a800020f3200051009800e302a8007200370004
:101a90001e007800100078008000780020f32000fd
:101aa000210098001e8fe8001e00780010007800ca
:101ab0008000780020f3200061009800e802a80070
:101ac000650037001e007800100078008000780064
:101ad00020f32000310098001e8fe8001e007800df
:101ae000100078008000780020f32000710098003a
:101af000e822a800580037004080200010407800fd
:101b0000e34f500054003a0030802000104078002d
:101b10000080fb0020079800ae009000e18f50008d
:101b20001e0032002e009000e10f500004003c0027
:101b3000ae0090000100e0000800320046003700cf
:101b40002e009000e20f500024003200ae00900002
:101b5000e38f5000310032003f0037001e00780054
:101b6000100078008000780020f420000108780040
:101b70001e8fe8001e0078001000780080007800ba
:101b800020f4200041009800e2e2a900318020000a
:101b900010c0b300804878002f0037001e00780086
:101ba000100078008000780020f4200011009800d8
:101bb0001e8fe8001e00780010007800800078007a
:101bc00020f4200051009800e302a9003180200099
:101bd00020c0b300804878001f0037001e00780046
:101be000100078008000780020f420002100980088
:101bf0001e8fe8001e00780010007800800078003a
:101c000020f4200061009800e802a9003180200043
:101c100030c0b300804878000f0037001e00780005
:101c2000100078008000780020f420003100980037
:101c30001e8fe8001e0078001000780080007800f9
:101c400020f4200071009800e822a90031802000d3
:101c50000040eb0080487800408020001040780071
:101c6000304798000040eb0020479800f0c3b300d5
:101c7000be40900080cf50000200360010c0b3007c
:101c8000204798003e4090008040e80040802000bf
:101c900001487800ae4090000104e00003003200eb
:101ca000418020000040eb00804878000180200047
:101cb00010c0b300804878000080fa003400f900ba
:101cc0004f01be004f00be00004006000000fa00b9
:101cd00000802000104078000080fb000080fa00a7
:101ce000000006000000fa0010802000104078007c
:101cf0000080fb000080fa00000006000000fa00ef
:101d0000a1e2a8000080fa00000006000000fa002e
:0c1d1000a1e2a9000080fa00000006001b
:020000040000fa
:0200000401f009
:04000000e6ff000017
:020000040000fa
:0200000401f009
:04000400ff7f00007a
:020000040000fa
:0200000401f009
:040008007fff000076
:020000040000fa
:0200000401f009
:04001400ffff0000ea
:020000040000fa
:10000800a60e0000a60e0000a60e0000a60e000018
:10001800a60e0000a60e0000a60e0000a60e000008
:10002800a60e0000a60e0000a60e0000a60e0000f8
:10003800a60e0000a60e0000a60e0000a60e0000e8
:10004800a60e0000a60e0000a60e0000b20a0000d0
:10005800a60e0000a60e0000a60e0000a60e0000c8
:10006800a60e0000a60e0000a60e0000a60e0000b8
:10007800a60e0000a60e0000a60e0000a60e0000a8
:10008800a60e0000a60e0000a60e0000a60e000098
:10009800a60e0000a60e0000a60e0000a60e000088
:1000a800a60e0000a60e0000a60e0000a60e000078
:1000b800a60e0000a60e0000a60e0000a60e000068
:1000c800a60e0000a60e0000a60e0000a60e000058
:1000d800a60e0000a60e0000a60e0000a60e000048
:1000e800a60e0000a60e0000a60e0000a60e000038
:0800f800a60e0000a60e000098
:020000040000fa
:10010800a60e0000a60e0000a60e0000a60e000017
:10011800a60e0000a60e0000a60e0000a60e000007
:10012800a60e0000a60e0000a60e0000a60e0000f7
:10013800a60e0000a60e0000a60e0000a60e0000e7
:10014800a60e0000a60e0000a60e0000b20a0000cf
:10015800a60e0000a60e0000a60e0000a60e0000c7
:10016800a60e0000a60e0000a60e0000a60e0000b7
:10017800a60e0000a60e0000a60e0000a60e0000a7
:10018800a60e0000a60e0000a60e0000a60e000097
:10019800a60e0000a60e0000a60e0000a60e000087
:1001a800a60e0000a60e0000a60e0000a60e000077
:1001b800a60e0000a60e0000a60e0000a60e000067
:1001c800a60e0000a60e0000a60e0000a60e000057
:1001d800a60e0000a60e0000a60e0000a60e000047
:1001e800a60e0000a60e0000a60e0000a60e000037
:0801f800a60e0000a60e000097
:020000040000fa
:101d1c00520f00001000000000000000620f0000d5
:101d2c0004000000020000000000000000000000a1
:101d3c000008000052070000000000000000000036
:020000040000fa
:041d4c000000fe0095
:00000001FF
