:020000040000fa
:080000000001040000000000f3
:020000040000fa
:100200008f8c20008079220000018800000000000f
:10021000050007000c00070080010200000000003c
:100220000040da000000fe004440a9000000200069
:100230000000e0000300320000002000a001880060
:100240004440a80000000600006e200001002000cd
:100250001600370062004000e080480091018800ed
:100260009001ba0062004000e080480091018800df
:100270009002ba0062004000e08048000002eb00fb
:100280006028e10005003a008301e900070033001f
:10029000038009000059eb00040037006128e100e9
:1002a000010032000082eb00050007009101880088
:1002b0001001ba000200e000e6ff3a00000005006d
:1002c000910188008002780062004000e0804800d0
:1002d0003559ba008301e900080032002559ba00f7
:1002e0008301e900050032000400e000f4ff320061
:1002f00015d9ba008301e900f1ff3a0000000600b9
:100300000600fa006100070000003700e6c2bf00e7
:100310000080fb004600de00614060000081fb00c1
:10032000e7c2bf000080fb000000d1006140600018
:100330000080fb000000400080007800e7c2bf00a2
:10034000614060000080fb00008040000000400031
:1003500080007800e6c2bf000080fb004700de009e
:100360000080fb000080400000004000000f4100c2
:10037000880207000000eb00460207000000eb00c7
:10038000640207001e0078006101b900120798009e
:100390002307980090002000010020001e0190001b
:1003a000ae019000800f5100818f590033003e0054
:1003b0001e009000ae0090000060010009003700b0
:1003c0000c0037000f00370012003700150037000f
:1003d000180037001b0037001e00370021003700cf
:1003e00023003700110020000000eb006c00070024
:1003f000c6ff370011002000100020006800070031
:10040000c2ff370011002000200020006400070018
:10041000beff370011002000300020006000070000
:10042000baff370011002000400020005c000700e8
:10043000b6ff3700110020005000200058000700d0
:10044000b2ff3700110020006000200054000700b8
:10045000aeff3700110020007000200050000700a0
:10046000aaff3700100020000a020700a7ff37008c
:100470001000200027020700a4ff37001100200011
:100480008000200046000700a0ff37000000fa00af
:10049000c4c2a900c4e2a900c522a900c582a9005e
:1004a000c542a900c5a2a900c5c2a900c5e2a9000c
:1004b000c0c2a900c0e2a900c122a900c182a9004e
:1004c000c142a900c1a2a900c1c2a900c1e2a900fc
:1004d000d022a900cc22a900d042a900cc42a90078
:1004e000e2e2a900e302a900e802a900e822a900cb
:1004f000dee2a900df02a900e402a900e422a900cb
:10050000e202a900de02a900d602a900d622a900b3
:10051000d642a900d662a900d682a900d6a2a90017
:10052000d6c2a900d6e2a900d202a900d222a9000f
:10053000d242a900d262a900d282a900d2a2a90007
:10054000d2c2a900d2e2a900d1a2a900cda2a900dd
:10055000e842a900e862a900e442a900e462a90017
:10056000de22a800dec2a800e4c2a800e4e2a800df
:10057000e502a800e522a800d302a800d322a80023
:10058000d342a800d362a800d382a800d3a2a800b7
:10059000d3c2a800d3e2a8000080fa000000060041
:1005a0000600fa00000f7800110798001e0078007e
:1005b000200798002e009000e30f500067003200e3
:1005c0002e009000e30f500007003e002e00900028
:1005d000e10f50002e0032002e009000e10f50007d
:1005e00041003e000d0037002e009000e50f500046
:1005f000940032002e009000e50f50007400390086
:100600002e009000e60f5000ab0032002e0090004c
:10061000e70f5000c5003200da0037001e009000de
:10062000e10f50000f003600c4c2bf000080fb0085
:100630004600de00614060000004a20061406000ee
:10064000614060004601dd00412c200091407800af
:10065000f0cbb30000c0600002407000c4e2b700fd
:100660008a0137001e009000614060006140600018
:100670004601dd00412c200091407800f0cbb30012
:1006800000c0600002407000c4e2b7007f01370084
:100690001e009000e10f50000b003600c4c2bf00e6
:1006a0000080fb004700de000004a2006140600003
:1006b000c700dd00c4c2bf000074a100014070008b
:1006c000c4e2b700710137001e0090006140600075
:1006d000c700dd00c4c2bf000074a100014070006b
:1006e000c4e2b700690137001e009000e10f50001e
:1006f0000f003600c5c2bf000080fb000000d10023
:10070000614060000004a200614060006140600040
:1007100000414000512c200091407800d0cfb30020
:1007200000c0600002407000c5e2b700570137000a
:100730001e00900061406000614060000041400088
:10074000512c200091407800d0cfb30000c0600051
:1007500002407000c5e2b7004c0137001e00900057
:10076000e10f50000f003600c5c2bf000080fb0043
:100770004400de00614060000004a20061406000af
:10078000614060004401dd00512c20009140780060
:10079000f0ceb30000c0600002407000c5e2b700b8
:1007a0003a0137001e009000614060006140600027
:1007b0004401dd00512c200091407800f0ceb300c0
:1007c00000c0600002407000c5e2b7002f01370092
:1007d0001e009000e10f50000f003600c5c2bf00a0
:1007e0000080fb004200de00614060000004a200c7
:1007f00061406000614060004201dd00512c20003a
:1008000091407800b0cfb30000c06000024070009b
:10081000c5e2b7001d0137001e0090006140600076
:10082000614060004201dd00512c200091407800c1
:10083000b0cfb30000c0600002407000c5e2b70056
:10084000120137001e009000e10f50000f0036002b
:10085000c5c2bf000080fb004500de0061406000b3
:100860000004a20061406000614060004501dd00bd
:10087000512c200091407800f0cdb30000c0600002
:1008800002407000c5e2b700000137001e00900072
:1008900061406000614060004501dd00512c200096
:1008a00091407800f0cdb30000c0600002407000bd
:1008b000c5e2b700f50037001e009000e10f5000c0
:1008c0000f003600c5c2bf000080fb004600de00fe
:1008d000614060000004a20061406000614060006f
:1008e0004601dd00512c200091407800f0cbb30090
:1008f00000c0600002407000c5e2b700e3003700ae
:100900001e00900061406000614060004601dd0013
:10091000512c200091407800f0cbb30000c0600063
:1009200002407000c5e2b700d80037001e009000fa
:10093000e10f50000b003600c5c2bf000080fb0075
:100940004700de000004a20061406000c700dd0037
:10095000c5c2bf000074a10001407000c5e2b7002d
:10096000ca0037001e00900061406000c700dd0033
:10097000c5c2bf000074a10001407000c5e2b7000d
:10098000c20037001e009000e10f500069003600e1
:10099000c4c2bf000080fb004600de006140600072
:1009a0000004a20061406000614060004601dd007b
:1009b000412c200091407800f0cbb30000c06000d3
:1009c00002407000c4e2b700c4c2bf000080fb0058
:1009d0004700de000004a20061406000c700dd00a7
:1009e000c4c2bf000074a10001407000c4e2b7009f
:1009f000c5c2bf000080fb000000d1006140600064
:100a00000004a200614060006140600000414000bd
:100a1000512c200091407800d0cfb30000c060007e
:100a200002407000c5e2b700c5c2bf000080fb00f5
:100a30004400de00614060000004a20061406000ec
:100a4000614060004401dd00512c2000914078009d
:100a5000f0ceb30000c0600002407000c5e2b700f5
:100a6000c5c2bf000080fb004200de0061406000a4
:100a70000004a20061406000614060004201dd00ae
:100a8000512c200091407800b0cfb30000c060002e
:100a900002407000c5e2b700c5c2bf000080fb0085
:100aa0004500de00614060000004a200614060007b
:100ab000614060004501dd00512c2000914078002c
:100ac000f0cdb30000c0600002407000c5e2b70086
:100ad000c5c2bf000080fb004600de006140600030
:100ae0000004a20061406000614060004601dd003a
:100af000512c200091407800f0cbb30000c0600082
:100b000002407000c5e2b700c5c2bf000080fb0014
:100b10004700de000004a20061406000c700dd0065
:100b2000c5c2bf000074a10001407000c5e2b7005b
:100b3000560037001e00900061406000c700dd00d5
:100b4000c5c2bf000074a10001407000c5e2b7003b
:100b5000c5c2bf000080fb004700de0061406000ae
:100b60004601dd00512c200091407800f0cbb3000d
:100b700000c0600002407000c5e2b700c5c2bf00ff
:100b80000080fb004600de006140600061406000c4
:100b90004501dd00512c200091407800f0cdb300dc
:100ba00000c0600002407000c5e2b700c5c2bf00cf
:100bb0000080fb004500de00614060006140600095
:100bc0004201dd00512c200091407800b0cfb300ed
:100bd00000c0600002407000c5e2b700c5c2bf009f
:100be0000080fb004200de00614060006140600068
:100bf0004401dd00512c200091407800f0ceb3007c
:100c000000c0600002407000c5e2b700c5c2bf006e
:100c10000080fb004400de00614060006140600035
:100c200000414000512c200091407800d0cfb3000b
:100c300000c0600002407000c5e2b700c5c2bf003e
:100c40000080fb000000d10061406000c700dd00b3
:100c5000c4c2bf000074a10001407000c4e2b7002c
:100c6000c4c2bf000080fb004700de00614060009e
:100c70004601dd00412c200091407800f0cbb3000c
:100c800000c0600002407000c4e2b7000080fa00bb
:100c9000000006000200fa00000f7800100020009b
:100ca0009e0f10000f003600d0c2bf000080fb0076
:100cb0004200de00614060000004a200614060006c
:100cc000614060004201dd00012d2000914078006c
:100cd000b0cfb30000c0600002407000d0e2b700a7
:100ce0000a0037001e00780061406000614060002b
:100cf0004201dd00012d200091407800b0cfb3000b
:100d000000c0600002407000d0e2b7000080fa002e
:100d1000000006000200fa00000f7800100020001a
:100d20009e0f10000f003600d0c2bf000080fb00f5
:100d30000000d100614060000004a200614060003a
:100d40006140600000414000012d2000914078008a
:100d5000d0cfb30000c0600002407000d0e2b70006
:100d60000a0037001e0078006140600061406000aa
:100d700000414000012d200091407800d0cfb30009
:100d800000c0600002407000d0e2b7000080fa00ae
:100d9000000006000000fa00c4c2a900c4e2a900d5
:100da000c522a900c582a900c542a900c5a2a90003
:100db000c5c2a900c5e2a9000080fa000000060033
:020000040000fa
:0200000401f009
:04000000e6ff000017
:020000040000fa
:0200000401f009
:04000400ff7f00007a
:020000040000fa
:0200000401f009
:040008007fff000076
:020000040000fa
:0200000401f009
:04001400ffff0000ea
:020000040000fa
:10000800e2060000e2060000e2060000e206000048
:10001800e2060000e2060000e2060000e206000038
:10002800e2060000e2060000e2060000e206000028
:10003800e2060000e2060000e2060000e206000018
:10004800e2060000e2060000e2060000e206000008
:10005800e2060000e2060000e2060000e2060000f8
:10006800e2060000e2060000e2060000e2060000e8
:10007800e2060000e2060000e2060000e2060000d8
:10008800e2060000e2060000e2060000e2060000c8
:10009800e2060000e2060000e2060000e2060000b8
:1000a800e2060000e2060000e2060000e2060000a8
:1000b800e2060000e2060000e2060000e206000098
:1000c800e2060000e2060000e2060000e206000088
:1000d800e2060000e2060000e2060000e206000078
:1000e800e2060000e2060000e2060000e206000068
:0800f800e2060000e206000030
:020000040000fa
:10010800e2060000e2060000e2060000e206000047
:10011800e2060000e2060000e2060000e206000037
:10012800e2060000e2060000e2060000e206000027
:10013800e2060000e2060000e2060000e206000017
:10014800e2060000e2060000e2060000e206000007
:10015800e2060000e2060000e2060000e2060000f7
:10016800e2060000e2060000e2060000e2060000e7
:10017800e2060000e2060000e2060000e2060000d7
:10018800e2060000e2060000e2060000e2060000c7
:10019800e2060000e2060000e2060000e2060000b7
:1001a800e2060000e2060000e2060000e2060000a7
:1001b800e2060000e2060000e2060000e206000097
:1001c800e2060000e2060000e2060000e206000087
:1001d800e2060000e2060000e2060000e206000077
:1001e800e2060000e2060000e2060000e206000067
:0801f800e2060000e20600002f
:020000040000fa
:040dc000000000002f
:020000040000fa
:040dc4000000fe002d
:00000001FF
