:020000040000fa
:080000000001040000000000f3
:020000040000fa
:100200008f8c20008079220000018800000000000f
:10021000050007000c00070080010200000000003c
:100220000040da000000fe004440a9000000200069
:100230000000e0000300320000002000a001880060
:100240004440a80000000600801e2000010020009d
:100250001600370062004000e080480091018800ed
:100260009001ba0062004000e080480091018800df
:100270009002ba0062004000e08048000002eb00fb
:100280006028e10005003a008301e900070033001f
:10029000038009000059eb00040037006128e100e9
:1002a000010032000082eb00050007009101880088
:1002b0001001ba000200e000e6ff3a00000005006d
:1002c000910188008002780062004000e0804800d0
:1002d0003559ba008301e900080032002559ba00f7
:1002e0008301e900050032000400e000f4ff320061
:1002f00015d9ba008301e900f1ff3a0000000600b9
:100300000400fa006000b800008fbe00c0c2a9005f
:10031000c0e2a900c122a900c182a900c142a9006e
:10032000c1a2a900c1c2a900c1e2a900c4c2a9001a
:10033000c4e2a900c522a900c582a900c542a9003e
:10034000c5a2a900c5c2a900c5e2a9006000b80005
:10035000008fbe00040037001000200001002000c4
:100360001e0f40005e974800f0342c000100200072
:10037000be0f1000ae8f1800f7ff3400c4c2a800f3
:10038000c4e2a800c522a800c582a800c542a800f2
:10039000c5a2a800c5c2a800c5e2a8006000b800b8
:1003a000008fbe0004003700100020000100200074
:1003b0001e0f40005e974800f0342c000100200022
:1003c000be0f1000ae8f1800f7ff3400d7ff3700c4
:020000040000fa
:0200000401f009
:04000000e6ff000017
:020000040000fa
:0200000401f009
:04000400ff7f00007a
:020000040000fa
:0200000401f009
:040008007fff000076
:020000040000fa
:0200000401f009
:04001400ffff0000ea
:020000040000fa
:10000800ea010000ea010000ea010000ea0100003c
:10001800ea010000ea010000ea010000ea0100002c
:10002800ea010000ea010000ea010000ea0100001c
:10003800ea010000ea010000ea010000ea0100000c
:10004800ea010000ea010000ea010000ea010000fc
:10005800ea010000ea010000ea010000ea010000ec
:10006800ea010000ea010000ea010000ea010000dc
:10007800ea010000ea010000ea010000ea010000cc
:10008800ea010000ea010000ea010000ea010000bc
:10009800ea010000ea010000ea010000ea010000ac
:1000a800ea010000ea010000ea010000ea0100009c
:1000b800ea010000ea010000ea010000ea0100008c
:1000c800ea010000ea010000ea010000ea0100007c
:1000d800ea010000ea010000ea010000ea0100006c
:1000e800ea010000ea010000ea010000ea0100005c
:0800f800ea010000ea0100002a
:020000040000fa
:10010800ea010000ea010000ea010000ea0100003b
:10011800ea010000ea010000ea010000ea0100002b
:10012800ea010000ea010000ea010000ea0100001b
:10013800ea010000ea010000ea010000ea0100000b
:10014800ea010000ea010000ea010000ea010000fb
:10015800ea010000ea010000ea010000ea010000eb
:10016800ea010000ea010000ea010000ea010000db
:10017800ea010000ea010000ea010000ea010000cb
:10018800ea010000ea010000ea010000ea010000bb
:10019800ea010000ea010000ea010000ea010000ab
:1001a800ea010000ea010000ea010000ea0100009b
:1001b800ea010000ea010000ea010000ea0100008b
:1001c800ea010000ea010000ea010000ea0100007b
:1001d800ea010000ea010000ea010000ea0100006b
:1001e800ea010000ea010000ea010000ea0100005b
:0801f800ea010000ea01000029
:020000040000fa
:0403d0000000000029
:020000040000fa
:0403d4000000fe0027
:00000001FF
