:020000040000fa
:080000000001040000000000f3
:020000040000fa
:100200004f4621000e7f22000e01880000000000f2
:100210000c00070080672300010020001100070088
:10022000000020000000e000020032000000020098
:10023000000000000c300200000000000040da0066
:100240000000fe004440a900000b20000000e00078
:100250000300320000002000a00188004440a800f4
:100260000000060091018800800078000000eb008b
:1002700015003700e280400032a0b4009101ba00be
:10028000e280400032a0b4009102ba00e280400057
:1002900032a0b4000002eb00472bde00f507b200ed
:1002a000602ce10004003a000059eb008301e900f2
:1002b000fdff3e00040037006128e100010032002c
:1002c0000082eb00040007001101ba000200e00008
:1002d000e8ff3a00000006003159ba008301e90046
:1002e0000c0032002159ba008301e90008003200f5
:1002f0000400e00003003a00e280400032a0b400b5
:10030000f5ff370011d9ba008301e900faff3a007e
:100310008100e800e180400032a0b4000000060047
:10032000b22204000000000040330400000000007e
:100330002434040000000000b84104000000000064
:10034000f6310400000000000040da000000fe006a
:10035000889fbe0080047800009380000000e000c9
:1003600003003a00610007000000e0000a003500c9
:10037000009380000900e00002003a0000047800c9
:10038000060037000004780009004000570007000d
:100390000000e00001003d000084eb000800780050
:1003a0004f04be00000006000c02e20004003d0005
:1003b0000f42ab00020032000f02ab00feff320022
:1003c0000040da00feff37000a00fa0080017800e2
:1003d000e20f500028003e0010938000e10f500013
:1003e00008003200e02120000000e000050032009b
:1003f0006421200085212000a621200080017800b2
:1004000004003700c4202000e52020000621200041
:1004100043212000144090000004e0000400350057
:100420008009eb00144090000074a0001042980076
:10043000154090000028a30003003a0015409000ea
:100440000024a000904298008001eb0007003700d4
:10045000154090000008a300fdff320063c0780043
:100460000000fb00000b78008301e800828f510040
:10047000f7ff3a000800370030002000b0bf9f00af
:10048000c3bf9f00d1bf9f00e2bf9f006a8057009b
:1004900000c0da006fb99700020078000080fa000f
:1004a000000006000a00fa0011002000b1bf9f0002
:1004b000c0bf9f006a80570000c0da004fb89700a5
:1004c0000080fa00000006000a00fa005100200037
:1004d000b1bf9f00c0bf9f006a80570000c0da0014
:1004e0005fb897000080fa000000060080007800e6
:1004f0000000e00004003a0040262100009388003c
:1005000001017800060037000081eb004046210021
:10051000808f500002003e00019388000001eb0034
:100520000200780000000600889fbe008a9fbe007f
:10053000010578000100e0000400350008003c00df
:100540000000e000200032000500370060001000cd
:10055000e080180002003b0001f02c001a00370078
:100560000004be006011b8006b0920000982cf00b2
:10057000020039000882cf000441b00069425200f5
:100580000e00320008003b008281710061016400ae
:100590008904d1000884d3008b05e8000442e800f8
:1005a000f9ff3a00050037000804440089844c0034
:1005b0008b05e9000442e900fbff3a003a0107001d
:1005c0000af0a70001f0a0004f05be004f04be00d6
:1005d00000000600889fbe008a9fbe008c1f780026
:1005e000570107005e01330003866c006450e10090
:1005f0002e0032006420e100330032006150e1003f
:100600002f0032006120e100310032008585550065
:10061000eb07b000090020000804200005003700a7
:100620000804440089844c000a003100060343009a
:1006300087834b000001530081815b00f8ff33008a
:100640000203be000800a0000804440089844c0096
:10065000f6ff3900c639dd00830173000100320066
:10066000130020008904d1000884d3000998a30056
:10067000050032000800a7000300a0008904d10093
:100680000884d3008b05e8008904d1000884d300d6
:100690000001eb000281d2000301070001f0a1007c
:1006a0000cf0a70001f0a000360137006420e10043
:1006b000380132000801be000200be00f7ff37001b
:1006c0006120e100330132006000b800f3ff370021
:1006d0000000200001f82700f0ff37000001be00f5
:1006e0002f0107000470a70003f0a1006509b10005
:1006f000160032000d0035006828e10006003500c4
:10070000f0ff2f00f1ff27000300e00013003b0083
:100710000100280000000500000040008180480022
:100720008502e900fcff3a0008003700f88f42001c
:1007300002003c008000eb00000005008100d100b9
:100740000080d3008502e800fcff3a000300e000cf
:1007500002003b0060001000e0801800000006006e
:10076000889fbe008a9fbe008c1f7800f40007009f
:10077000fb00330003866c006450e100240032006b
:100780006420e100270032006150e10022003200c5
:100790006120e100210032008b854200eb07b100af
:1007a0000134b800003ab8000804420089844a00c5
:1007b000013ab8000030b8008880400009014a00c2
:1007c000040033000000400081804800020149001d
:1007d0008b05e900c909dd008301700001003200ca
:1007e00013002000c814de004814dd004709de00b5
:1007f0001200b200c808de0008847000aa000700da
:1008000001f0a1000cf0a70001f0a000dd0037000e
:100810006120e100df0032000801be000200be00de
:10082000f7ff37006150e100fcff3a00d9003700c4
:100830000001be00da0007000470a70003f0a10069
:1008400003f8a30013003a006509b100100032005c
:10085000090035006928e100020035000100280088
:100860000000050000004000818048008502e9008a
:10087000fcff3a0000000600f88f4200050035003a
:100880008100d1000080d3008502e800fcff3a001f
:10089000000006008000eb000000050014002000ae
:1008a000d400370003f0a200889fbe008a9fbe00dc
:1008b0008c1f7800a2000700a90033006450e100fb
:1008c0004f0032006420e1005200320003826c00cd
:1008d00007003b000905d0000306d000820f54003a
:1008e0000c065d0002003900020032008901780028
:1008f000030678008582550004003d000003fd00da
:100900008103fd008502ea008b854200840f72009e
:1009100002003b0060001000e08018006011b80089
:100920000005eb007a28e1000a0039000600780093
:10093000c75ddd00f707b200878075002d00370026
:10094000828171000a017800610560008180d10018
:100950000080d3008502e900f9ff3b000604400057
:100960008784480002003b0060041400e0841c00ff
:100970000988a300070032008a817100828171001a
:10098000610164008904d1000884d3008b05e8006c
:10099000170037000978a30013003a000b00e000ad
:1009a000130034008b05e9000804440089844c00de
:1009b0000a4474000978a3000d003a000b00e0001f
:1009c000070034008b05e9000804440089844c00ca
:1009d00001003a000b0020000978a300f7ff320065
:1009e0000001eb0002003700828171000a017800eb
:1009f0002d0007000cf0a70001f0a00061003700f7
:100a00006420e10002003a00838f6c006100330033
:100a10000801be000200be005a0037000081eb0052
:100a20008f0037000001eb008d003700889fbe006b
:100a30008a9fbe008c1f7800410007001002200032
:100a400002003b00f07e8800450037008a0062000b
:100a50006408e10002003a00f07e88004d00370093
:100a60006108e100fcff32000800be0003047800ca
:100a7000d8fe070001f0a100e200070008f0a60080
:100a8000040037000001be0091042400b0fd2000e6
:100a900084ff070009f0a70001f0a2003900370029
:100aa000f4ff2f00530037008100200061805500c3
:100ab0000b003d000b00200061fe2f000100e10053
:100ac0001d00340082817100610164008904d1003d
:100ad0000884d3000000e800faff3a00710020000b
:100ae0006100640003007000020060000900320031
:100af00061044400e0844c000988a5000500320030
:100b00008b05e8006808e10002003a008904d10082
:100b10000884d300f20f20000258e10005003d00d8
:100b2000c75ddd00f907b200898075000800780014
:100b3000000006000bf827008b007800000005007d
:100b40000004be00160007000003be000405be003e
:100b50000200be0012000700844f7500000006006e
:100b60000200be006450e100050036006420e10090
:100b7000020036000968a30001003a000800be0028
:100b80000160a0004f0678004f05be004f04be0074
:100b900000000600f0ff2f00f1ff2700f9ff3700eb
:100ba000c70ade00f107b200f50fb20008003200fc
:100bb000e1cf4200020032000170a00024000500d5
:100bc000810f700001003200040805004400050098
:100bd000810f700002003a00140005008502e90050
:100be0000000400081c04800fcff3b000170a000f5
:100bf00024000500889fbe008a9fbe00841f7800e5
:100c0000cfff07004f00780011003300f0ff2f00e6
:100c1000838f6c0006003b00040565000a00a700f6
:100c20000800370009f0a600100020000800370077
:100c3000820f5400838f5c000300390010002000f5
:100c400001003e000000200009f0a7000000ea00bb
:100c50004f05be004f04be000000e000000006008b
:100c6000889fbe008a9fbe008c9fbe0082057800d0
:100c70000004be00caff07000800be006420e100b7
:100c80000700390002003a00f1ff2700f0ff2f00b3
:100c90000160a00012022000f27e8800550037009b
:100ca0006120e10003003a000b00a70001f82300d7
:100cb0005000370001f0a1000200210093642400dd
:100cc000f6fe07000800be0004003500b2fd20005b
:100cd000930c2400b00007000004be000005eb00e8
:100ce0000b00a6004f0dde0001f0a1000004be00c5
:100cf00032982f0023ea230099fe07000001eb0041
:100d000003f023000b00a70003f82300e6fe070012
:100d100072fe07000000a7000a00a20002fe070002
:100d20000b00e000030032000200200003f023006b
:100d3000dcfe070001f0a2000006be000200200059
:100d40009304240086fe07000801be00d6fe0700bb
:100d5000809fbe000c00be0022a22a00d3a7230061
:100d60007ffe07004f01be00cffe07000004be005b
:100d700001f0a1000200200003982300c7fe070035
:100d80000800be00190035000001be0074fe070017
:100d90000006be00b2c52900e362230070fe070012
:100da00022222b00f3942b00bffe07000c01be0093
:100db0006bfe0700e273280083c02300bafe070021
:100dc0000c01be0066fe070042aa2a00a3e22b0027
:100dd000b5fe07000c01be0061fe07000801be0061
:100de0005ffe07000801be00affe07000a00a70073
:100df00001f0a2004f06be004f05be004f04be002a
:100e000000000600889fbe008a9fbe008c9fbe0027
:100e10000004be0062ff07000800be0089067800db
:100e20006420e10008003900040032000160a000e5
:100e300012022000f27e88005300370091fc23004c
:100e4000b0fd20004e0037000006eb0009f0a100c5
:100e500003f82300020020000800be008ffe0700f8
:100e60000600340001f82300000020000801be0045
:100e7000d8fd07000004be002c0020000800be00c2
:100e800093e82300320a230084fe07001200340096
:100e90000801be00d1fd2300703d2b0082fe07003b
:100ea0000005be00b3f32300f27a26000800be005e
:100eb0002bfe070003f823000200200079fe070044
:100ec0000801be0078fe07000a01be00c1fd070050
:100ed0000004be000c06e8000800be0001f0a100fe
:100ee00002002000039823006cfe07000800be00eb
:100ef000160035000801be0019fe07000005be00ff
:100f000032cd2c0043fb230067fe0700809fbe000c
:100f10001269280003d52b000a00be0010fe07004e
:100f2000620f210013ef2b005ffe07000a01be00d5
:100f30000bfe07004f01be00a6fd07000801be0022
:100f400007fe07000801be0057fe07000c00e00086
:100f50000b0032000c10a70001f0a200b2fd20002f
:100f600093fc23006260e1000400320022a920000b
:100f700063f023000c10a70063f823004afe07006b
:100f80000df0a70001f0a2004f06be004f05be0005
:100f90004f04be00000006000400200000003700df
:100fa000889fbe008a9fbe008c1f78004f26dd0000
:100fb000e3fe0700eafe33006120e1004300320057
:100fc0006250e10041003e003e0039006420e10033
:100fd0003c003200058255000f003b000402e8008f
:100fe00038003a00800f5300818f5b0035003400d9
:100ff0000800be0003f0a10001f0a60003f0a0006d
:101000000cf0a70028fe0700defe370006034300b1
:1010100087834b000c4646000005530081855b002a
:10102000020033000a03be000c00a0000402e90025
:10103000f6ff3b00850578000602430087824b00df
:1010400004003a006000b80009f0a70001f0a00019
:10105000ccfe37000002520081825a000704e000f3
:10106000040033000603430087834b008b05e9002f
:10107000faff3700090578000604be000203be002f
:101080006011b80088fe0700e00f5200e08f5a00a0
:101090000700350002003c000c08a30004003200e9
:1010a0000601be0003f0a0000cf0a700fefd070043
:1010b0000a85680001f0a1000af0a70001f0a00075
:1010c000b0fe37000800be00aefe37001002200060
:1010d0000cf0a600f07e8800aefe3700881f780076
:1010e000000478005001be004000be000400400033
:1010f000858048000601490087814900009cbe00a8
:101100000294be000400e1000588e1000690e100c1
:101110000798e10002003100680044001008e80070
:101120004f04780000000600f4874700889fbe0047
:101130008a9fbe008c9fbe008e1f78000205be00f5
:101140000004be00d4b79f00e5b79f00f6b79f002c
:1011500087bf9f000000eb00c0b79f00b0b79f00a3
:10116000a0b79f0090b79f0080b79f000d0420009c
:10117000bfb097004fb09700000140000000e000b2
:101180000f003d004f08de0000007100c0b79f0057
:101190009e00070001003d0012002000a100070092
:1011a00001003d0012002000a6000700b10007006a
:1011b000b60007000f004000c8ff070022003700fc
:1011c0004f08de0000067100ccb79f008f000700bb
:1011d00001003d00120020009200070001003d00c8
:1011e0001200200097000700a20007000fb297002e
:1011f0009fb297002fb39700bfb39700a9000700d5
:101200000000520081805a0002015b0083815b0074
:1012100080b79f0091b79f00a2b79f00b3b79f0010
:101220000007eb009f0007000020e10001a8e1009b
:1012300002b0e10003b8e100010031001e0020000f
:101240000e005600c0b79f004fb297000400e000a8
:101250000700350010002000010020006011b800d8
:1012600008047000898470000a0571008b85710084
:101270008d06e900beff3a000400e00003003d00d7
:10128000820007000f00400094ff07004fa897005e
:101290000000e00004003a000fb497009fb49700ec
:1012a0002fb59700bfb59700940007004f0778004f
:1012b0004f06be004f05be004f04be004f01b100f7
:1012c00000000600881f780018002000881f7800a2
:1012d00095ff07008f87e9004f04780000000600a3
:1012e000801feb0090ff07008f87e90000000600d9
:1012f000889fbe008a9fbe008c1f78006e0007008a
:1013000007003d0073000700e00f5b00e08f5b000b
:1013100007003d00320007000006eb000400370024
:101320003400070002003d002a0007001c002000d6
:1013300072000700e3ff07000203be000002be00c8
:101340000c00e00001003200220007000400be0093
:101350000601be004f0678004f05be004f04be00d8
:1013600000000600889fbe008a9fbe008c1f780088
:101370005100070005003d0056000700e00f5b002c
:10138000e08f5b0006003d000400370019000700f5
:1013900003003d006000b8006011b80010000700b5
:1013a00056000700ceff07000203be000002be0089
:1013b0000c00e00001003200060007000400be003f
:1013c0000601be004f0678004f05be004f04be0068
:1013d000000006006000b8006011b800000037008f
:1013e0000402500085825800060359008783590083
:1013f000000006000006eb00e00f5200e08f5a00ec
:10140000e00f5b00e08f5b00000006000180400001
:1014100090b79f000001eb008fb097000100e00043
:10142000000006000200700090b79f00018040009d
:1014300080b79f000001eb00ffa897000100e000cb
:10144000000006000200700080b79f00018040008d
:101450006faa9700cf20de0001007000f0af9f0060
:1014600004024200250007004f18de00000272004f
:1014700000000600e4af9f000804440089844c008b
:101480000a054d008b854d00000006003fb2970015
:10149000cfb297005fb39700efb3970000fe2f0025
:1014a000000006003fb09700cfb097005fb19700f3
:1014b000efb19700000006000205be000004be0068
:1014c000e00f5000e08f5800e00f5900e08f590006
:1014d000000006006000b8006011b8000804500069
:1014e000898458000a0559008b8559001c0020008a
:1014f000e00f5200e08f5a00000006000800be0016
:101500000a01be00000006002800fa00889fbe0005
:101510008a9fbe008c9fbe0003866b000c020700f2
:101520000028a30064003a000128a30067003a00e5
:101530000008a30062003a000108a30065003a0019
:101540001e009000be08900081064000ed3fb100f3
:10155000f4805700ee019000111ab8008e09900037
:10156000311bb8009e099000311cb800511db80015
:10157000f485570046000700fe0190003a0007007e
:101580008b85e8003e0007008e09900040000700b0
:10159000ee019000340007008b85e800380007005a
:1015a0008e099000400007009e0990001b18b800ab
:1015b000890440000a854800fe01900034000700bd
:1015c0008b85e80038000700ee019000300007002e
:1015d0008e0990001b18b800890440000a85480055
:1015e0000a98a30008003a000402420085824a00db
:1015f00006034b0087834b0008044c0089844c0091
:101600000a054d008d06e900848272008502730090
:101610004c3add0085027200010032001500200006
:10162000443ade001400b2004538de00cb45dd0050
:101630000b007000c540de00cb4ddd008b807000dc
:101640004549de00cb55dd000b017100c551de00c0
:101650000d037800d701070003f0a1000cf0a700ec
:1016600003f0a000ce0137001b18b800850240002f
:1016700006834800e0834b0060044c0007003700fd
:101680001b18b8000603400087834800faff3700a4
:101690001b18b8008703400008844800e0844c0011
:1016a00060054d00000006001b18b800080440004b
:1016b00089844800faff37000108a300b5013a0009
:1016c0005800be005801be00e3ff37000008a30029
:1016d000b0013a0009047800f9ff3700810378006f
:1016e0002ffd07000001be006000b8000478a300d1
:1016f00013003a006220e10015003e000d003900a1
:101700008301d1000281d3008180d3008301d10005
:101710000281d3008180d3008301d1000281d300f4
:101720008180d3000538b000c42add00f300b20088
:101730008381720007f0a70003f0a00000000600fc
:10174000f3ff2700f2ff2f006110b900fbff370005
:1017500003ff2700f7ff37008f1fd100c1010700eb
:101760008f87e9000000e00000000600801feb000a
:10177000bc0107008f87e9000000e00000000600c0
:101780001400fa00889fbe008a9fbe008c9fbe0096
:101790000005be000206be00680047000c90be00b7
:1017a0000a90be00d80107006400e1001a00320070
:1017b00016003e006100e1001a0032006e04900045
:1017c000fe0490000e0b90009e0b90006011b8007c
:1017d0009e0590000b38b100d50120008281710078
:1017e000610164008703d1000683d3008984d3009c
:1017f0000884d3008502e900f8ff3a00aafc07003c
:101800000df0a70001f0a00065013700f1ff2700ef
:10181000f0ff2f006201370001f8270000002000d0
:10182000f7ff37006000b800f5ff3700dd01070063
:101830000509780000000600809feb008901070081
:101840008f87e9000000e000000006002800fa0091
:10185000889fbe008a9fbe008c9fbe00070678004e
:10186000878669000c003b00030478008704780039
:1018700008f0a10009f0a100840f5000858f5800e6
:10188000860f5900890f5c00030033000cf0a200a2
:1018900001003a000cf0a1002d0107006400e100f6
:1018a0005f003200780147006408e1006100320007
:1018b0006c014700748557003200be001201be0063
:1018c0003a04be001a05be001e039000be0a900036
:1018d0008503530006003d000004fd008104fd0067
:1018e0000205fd008305fd008703ea00050378007b
:1018f0000df8a3000400320060041400e0841c0012
:1019000060051d00e0851d006022b8007d032000f9
:101910000d38e1008006eb000b0039004433dd0098
:10192000f300b20083017300390037008482720033
:101930000d027800e10664008b85d1000a85d30092
:101940008984d3000884d3008703e900f7ff3b00b4
:1019500008004000898048000a0149008b81490045
:1019600004003b0060001000e080180060011900d6
:10197000e08119000358a300090032008d82720033
:1019800084827200610260008301d1000281d30071
:101990008180d3000080d3000603e8001b003700dd
:1019a0000348a30017003a000600e00017003400c7
:1019b0000603e9000d00a3000000480081804800f4
:1019c00002014900838149000348a3000f003a0047
:1019d0000600e000090034000603e90000004000b2
:1019e00081804800020149008381490001003a00da
:1019f0000003eb000348a300f5ff32006022b800ab
:101a0000020037008482720061826600e9000700ec
:101a100003f0a1000cf0a70003f0a000e0003700e5
:101a2000640147006408e10002003a000df8a300d9
:101a3000d8003a003200be001201be00d8003700c4
:101a40001400fa00889fbe008a9fbe008c9fbe00d3
:101a50000004be000205be00680047000a90be00f8
:101a60000890be00280107000070a7000bf0a1003d
:101a70000bf8a30020003a009e0990000e09900088
:101a8000fe0090006e0090009e0290003443200003
:101a900084825200c20032000a003c00b4fc2f00d5
:101aa0000428e100140034008301d1000281d30036
:101ab0008180d3000080d3008502e800faff3a005d
:101ac000b7003700b40020000428e10007003c0004
:101ad00000004000818048000201490083814900e4
:101ae0008502e900faff3a00ad0037000300280044
:101af00002002000010037006011b8006000b8004b
:101b0000a70037002800fa00889fbe008a9fbe0009
:101b10008c9fbe0003866b008d0007006400e1000f
:101b2000440032006408e1004a0032006100e10034
:101b3000460032006108e10049003200ec0647002f
:101b40006000b8003d02be003d03be00f4865700b1
:101b50006011b8003d04be003d05be007d032000bd
:101b60000b0037000000a0008d06e90013003200d2
:101b70000402420085824a0006034b0087834b0023
:101b80000000400081804800020149008381490033
:101b90000802520089825a000a035b008b835b00b3
:101ba000f0ff3b000802420089824a000a034b0012
:101bb0008b834b008d06e900edff3a0084827200b2
:101bc00086827200f707b20087827200010032003d
:101bd000150020001e0490003e0b900006035400e8
:101be000e63fb0000368a300070032000000a70032
:101bf0000500a0008301d1000281d3008180d300c1
:101c00000080d3000603e8008301d1000281d300e5
:101c10008180d3000080d3000002eb000482d20058
:101c20006400070003f0a1000cf0a70003f0a0007f
:101c30005b003700640247006408e1005500320091
:101c40003400be003401be00f6ff37006108e10039
:101c5000500032006011b8006000b800f1ff37009a
:101c600003ff270002002000fbff3700889fbe0013
:101c7000830478000300e0002c00350003003c00e2
:101c800000827000040271002600320036432000fa
:101c9000c50020008383cf000a0039000541b10050
:101ca0008283cf00070039000541b1008183cf0056
:101cb000040039000541b1008083cf0001003900e4
:101cc0000541b10085c353006022b8001200320004
:101cd0000a003b0084827200610260008301d1002f
:101ce0000281d3008180d3000080d3000603e80086
:101cf0008743e800f7ff3a00070037000000400084
:101d00008180480002014900838149000603e900ff
:101d10008743e900f9ff3a002600070009f0a70011
:101d200003f0a0004f04be00000006006000100099
:101d3000e080180060011900e0811900d3ff3b002a
:101d4000033e2c00f7ff370007f0a200bffe37006c
:101d5000680447000294be000094be00fc044700e3
:101d60008694be008494be000900780066000700d7
:101d7000080078006400070099007800814f700027
:101d80000b003b000800be00930007004f00b100ad
:101d900003003700f3ff2700f2ff2f006110b900a6
:101da0004f06be004f05be004f04be000080fa0083
:101db000000006001800200057002000080453000f
:101dc0000d003d000600200097fc2f000740e100b9
:101dd0001e00340084827200610260008301d10021
:101de0000281d3008180d3000080d3000804e80082
:101df000f8ff3a0047002000610460000504740009
:101e0000040464000d00320061004000e0804800de
:101e100060014900e081490003b8a50007003200d5
:101e20000603e8006538e10004003a008301d100b0
:101e30000281d3008180d3000080d300f87f20008e
:101e40000830e10003003500080378006000b800a6
:101e50006011b8004433dd00f300b2008301730069
:101e600000000600889fbe008a9fbe008c9fbe00b7
:101e70000404be000605be00809fbe00829fbe0017
:101e800063000700040678000800be000a01be00d7
:101e90005f000700840678004f03be004f02be00bb
:101ea0008d4f76007fb0970013003300f0ff2f00b6
:101eb0008b8f6b0006003b000d0666000c00a70030
:101ec0000a00370007f0a600100020000a003700c3
:101ed000880f5200898f5a008a0f5b008b8f5b003e
:101ee000030039001000200001003e000000200027
:101ef00007f0a7000000ea004f06be004f05be0035
:101f00004f04be0000000600800078005002be00b2
:101f10005003be004439de00f700b200f37f20001a
:101f200003016100090032000218e10016003a00c6
:101f30008501720083017300838173000008200013
:101f400015003a00400020001300370085017200a0
:101f5000830173008381730005003a0004a8be006a
:101f600006a8be00100020000b0037000201e900a7
:101f70000402420085824a0006034b0087834b001f
:101f80000748a300f9ff32000740a00004a8be00e4
:101f900006a8be0020002000800098009200980053
:101fa000000006000003be00fdfa07006220e10009
:101fb000020032000600be0005000500e507b10082
:101fc000f107b20004f023008480700007f0a7003e
:101fd00001f0a00024000500e48240001078a30076
:101fe00007003200640240001178a3003400be00f4
:101ff0001401be00040032000330a70000000600f8
:102000003500be001501be000330a0000000060030
:1020100005ff270005826100070032000428e10067
:1020200001003200240005000600070001003a000c
:10203000440005000408050002000700f9ff3a000b
:10204000140005006f82610081027000850271003a
:102050008502720000000600800078003004e00075
:10206000feff3a00010050000000e90000000600f9
:102070000c00fa00889fbe0000047800cfb09700e3
:10208000f0ff2700d0bf9f008004eb0099bf9f00a6
:1020900088bf9f00a8bf9f00200c2000b0bf9f00fa
:1020a0007881570070805700280107000fb897000b
:1020b000094878000fb8970008045000080078001d
:1020c0004f04be000080fa0000000600889fbe009a
:1020d0008a9fbe008c9fbe000001780081232100f2
:1020e0001100e0000b003a00c0232100c0918800dd
:1020f000a0918800e1918800b19188002140900072
:102100000004a000a0409800614090000004a000de
:10211000e0409800e7004100c208de00c20cdd008c
:10212000b49180004d262100404621000d0550004d
:1021300022002000811f7800110009000205d8004c
:1021400000067800cf007800c308dd00e485400079
:102150008001eb0046262100852321000100370085
:1021600001027800244090000008a3000200320021
:102170000a003700110a780094007800214090008e
:102180000008a300fbff320009014200828f5000cb
:1021900002003900840f510046003100940078009d
:1021a000848f5000eeff3e00868f50000200390001
:1021b000858f5000eaff3900a0918000800f520007
:1021c0004f003a00858f50004d003a008301e8002f
:1021d000e18f5100e2ff36008c8f5400040036007e
:1021e0008a8f5400020031000b047800120037007f
:1021f000614ab8006151b900b0ff2f000100200012
:102200000200500083805800800f5200818f5a00d6
:102210000200350009047800070037000d805400e3
:102220007246210002004000110009000a80d80017
:102230000a80b900000478000800780044f807001c
:1022400080017800e10f40002d003200a091800055
:1022500003087800a291800064004100a240900031
:10226000808f5100020032000104a00001003700fd
:102270000104a10021419800088041006400500041
:1022800080097800a091880082232100020878004c
:10229000a1918000214090000004a000a04098007f
:1022a000234090000004a100a041980002027800a1
:1022b000a7ff3700b2918800828f500009003600d6
:1022c0009200780020232100a2419000034878006a
:1022d00081918800140978008040eb00b091800063
:1022e00021409800b0918000000a780024409000be
:1022f0000004a00020429800640042000100370062
:102300000000eb004f06be004f05be004f04be00ac
:102310000000060064005000b0918800a0409000ca
:102320000104a1002140980000000600889fbe0023
:102330008a9fbe0000057800e401500013001000e1
:10234000c285de00234090000008a3000400320094
:10235000b3918800234090000004a100a0419800a0
:102360000100780059ff0700000478000000e00039
:10237000170032008a0f50001500320060b8970035
:1023800008005000c284de00898f5500010036002d
:10239000890578004259dd008a007800080078003d
:1023a000680507008a0f5400090031004248dd002b
:1023b000000044008a0f5000050036000a0050005b
:1023c0000000440082918000939180000288be004a
:1023d000080078004f05be004f04be000000060054
:1023e000000478005e05070008007800eef707009b
:1023f000889fbe008a1f7800804078000004e000bb
:1024000021003d008040ea00d0c6b30080cf5000dc
:10241000090034008104fb0042062000110009007d
:102420008204d80000017800010078004311dd002b
:102430000afe20001f0037000100fb0003fe200001
:1024400039003700a2002000110009000200d80066
:1024500000017800010078004311dd000301410014
:102460004300dd00030040003002be002003be0038
:1024700042209000d2209000f22190006221900032
:1024800021fc07002e003700d0c6b30080cf5000db
:10249000230034008104fb004206200011000900e3
:1024a0008204d80000017800010078004311dd00ab
:1024b0000a0921000a014100a800200011000900ba
:1024c0000800d8004300dd000a00400040229000d0
:1024d000d022900060239000f023900002889000aa
:1024e00092889000b28990002289900006fc070033
:1024f000801f780001027800110009008804d800cc
:102500000102fd004f0078000402fb004322dd00c1
:102510000a0242005403be004402be00d8ff370046
:102520000100fb0003092100eacf5000c5ff3c0079
:102530004300dd00030040005001be004000be002b
:102540004f0578004f04be00000006008f03b00066
:10255000889fbe008a9fbe008c9fbe008e1f7800a1
:10256000e0b79f00f1b79f0082bf9f000000eb0023
:10257000a0b79f00e60437008001eb0050c2b30013
:1025800080cf5000090032000100fb00efb097003f
:1025900001050700e10f4000dd043200afb09700f5
:1025a0008100e800a1b79f00d90437007fb19700f0
:1025b00092407800d0c2b30080cf50000c003200af
:1025c00007003c006d40500080cf50000d003200ed
:1025d0006b40400080cf500019003a000e003700d9
:1025e00000c3b30080cf500015003a000f00370041
:1025f0000330a0007fb297000402e800f4b79f0008
:10260000eaff37000300a000ffb297008502e80050
:10261000f5b79f00e5ff37000310a0007fb69700d5
:102620000c06e800fcb79f00e0ff37000320a00085
:102630007fb097000000e800f0b79f00dbff370095
:102640000318a300010032000300a1000338a30017
:10265000010032000320a1000100fb0002fd2f0059
:1026600002004000e90f500010003e008000eb0027
:10267000c1b79f00020278004fb197006a10b900fd
:10268000ffb297001501fb00000141000401410069
:10269000c2b79f005500fb00f5b79f000400400043
:1026a000e90f50000d003e00f3ff37000006eb007d
:1026b000ccb79f00a0c2b30080cf500007003a0003
:1026c0000fb89700c000780080bf9f00c1b79f007f
:1026d0007fb197000201e800f2b79f00e0c2b300ab
:1026e0007fb29700944f100021003a0083067800d3
:1026f0000de0a0008400e80064405000914f1000fd
:1027000004003200f1b79f008002eb00b5b79f00d4
:10271000100037000fbe97004c0078008cbf9f0060
:10272000b0b79f00ffb097008180e800f1b79f002d
:10273000130037003fb297006a20b9000000410043
:1027400003004000b0b79f00ffb297008502e80089
:10275000f5b79f007fb697001c01fb0003fd2f001b
:1027600003004100e90f5000f2ff3600040037007b
:10277000830678000dc0a0000000eb00b0b79f00fa
:102780007fb19700b2407800f2b79f00c17f9f00f1
:10279000c0c6b30080cf50002700320014003c00b8
:1027a0006840500080cf50009d00320009003c007e
:1027b0006c40500080cf5000290032006b40400038
:1027c00080cf5000720032000104e0005604320055
:1027d0008e00370060c6b30080cf50001c0032006e
:1027e0006340400080cf500088003a008c003700e2
:1027f00030c7b30080cf50001c00320007003c00ff
:102800006440500080cf5000130032000040e800c8
:1028100080cf50007d003a001100370050c7b30050
:1028200080cf50007d0032006340400080cf5000d8
:1028300076003a000b003700000028000d48a30086
:1028400001003a000001200080867600ccff3700ae
:102850000da0a000720037000d60a00070003700ce
:102860000d50a0000d70a0006d0037008fb99700cb
:102870004300780083bf9f00000478000000e00060
:1028800001003a00081e21008004eb00010037001f
:102890008104e80089007800088044001004e0000a
:1028a000fbff3a003fb297000400e0000300320053
:1028b000890f520001003100840478000007eb000a
:1028c000cfb29700898f520001003600098752006d
:1028d0004368de00e106600019003a000d0678004a
:1028e00009003700efb09700000220002a0407001b
:1028f000e10f4000030032002fb097000000e80015
:10290000a0b79f000c06e8008e0f5600f5ff3a00b6
:102910000087eb000a003700880078003100fb00d8
:1029200001047800efb097001b040700e10f40009e
:1029300003003200afb097008100e800a1b79f000c
:102940000900e90080047800e10f4000f2ff3a003e
:102950000006eb000d00e0000a003a00ec0337002f
:10296000efb09700000220000b040700e10f4000c9
:10297000030032002fb197000201e800a2b79f00c8
:102980000c06e8008e0f5600f5ff3a00e003370012
:102990008fb997004300780083bf9f00cf80de008f
:1029a00001017800820178000205be000004be002b
:1029b0000203be000002be004822de00482edd00f9
:1029c00004027600c47f9f000d48a3000a00320075
:1029d0000404e00008003200e14f4200060032002b
:1029e000d1fb2f0001804700044878001840980070
:1029f0002900200002003700d07f9f00190020002e
:102a0000d2fb2f0002844700a6ff3700c3fb2f0034
:102a10000384470019002000a2ff37000d0cb3000b
:102a20000070200000826600270232000dc8a3005b
:102a30000200320064002000b4b79f000d48a300dc
:102a4000050032000fba97004401be004400be00ea
:102a500084bf9f00040037008fba97004500be0076
:102a600085bf9f001dfb0700e0af9f00f1af9f00f7
:102a700082b79f0093b79f006022b8006033b80010
:102a80006fa89700ffa897000fb197009fb197001c
:102a900031fb07000000e0000a003d006fa897002e
:102aa000ffa897000fb197009fb1970003f0a20015
:102ab000e0af9f00f1af9f0082b79f0093b79f00e8
:102ac0003d00b3000000eb0080a79f006022b8002b
:102ad0006033b8006fa89700ffa897000fb1970068
:102ae0009fb1970021fb07000000e0003400320096
:102af0006fa89700ffa897000fb197009fb19700ac
:102b00001ffb070003fc2f000381470047fb070062
:102b10000fa097000000e9006300b900a2002000a8
:102b2000110009000200d8008000fd0081a79f006d
:102b30000100e00002003d000100e90080a79f00c5
:102b40000fa497000840ea0029fe07006faa97002b
:102b5000ffaa97000fb397009fb397006afa070088
:102b6000a0af9f00b1af9f00c2af9f00d3af9f0047
:102b70006022b8000600200007ff2300f6fa0700d5
:102b80000000e00002003d000800e9000b003700f3
:102b90006022b80006002000470224002fa89700fa
:102ba000bfa897004fa99700dfa9970022fb070055
:102bb0000000e000020035000800e80080a79f0048
:102bc0003fb29700f80f520057003c00d0c6b30048
:102bd000804f5200290036000485fb004206200089
:102be000110009000285d800000178000104780076
:102bf0004311dd000bfe20000b0141006022b800f4
:102c00000600200007fe23000288900092889000b2
:102c1000b2899000228990003bfa0700a9002000a9
:102c2000809fbe00110009000984d80000047800cc
:102c30004f00be004344dd000b04440048229000d6
:102c4000d822900068239000f82390002efa070005
:102c5000801f780001027800110009000985d80062
:102c60000102fd004f0078004322dd000b0242000c
:102c70005403be004402be001f0037000480fb0066
:102c800009fe2000ea4f520014003600a200200086
:102c9000110009000280d8000001780001047800ca
:102ca0004311dd00090141006022b8000600200048
:102cb00007fe230042209000d2209000f2219000d5
:102cc0006221900010fa07004344dd00090444002b
:102cd0003802be002803be00070037004300dd00b5
:102ce000090040006022b8000600200007fe230013
:102cf0005001be004000be0003fa07000002be0003
:102d00000203be006fa89700ffa897000fb19700bd
:102d10009fb19700cdfa0700e0af9f00f1af9f0091
:102d200082b79f0093b79f000fa49700e90f54004c
:102d300015003c006022b8006033b8006fa897000f
:102d4000ffa897000fb197009fb1970087fa07007f
:102d50000000e000320032006fa89700ffa8970043
:102d60000fb197009fb1970035fb0700e00f5000af
:102d7000e08f5800e00f5900e08f590028003a001a
:102d8000e10f5400260034000400200005002e004e
:102d9000b6e02200170124002fa89700bfa89700d3
:102da0004fa99700dfa997006bfa07000000e00029
:102db00002003d007300540001003700720054000f
:102dc00080a79f000fc0970089fd0700a0af9f005c
:102dd000b1af9f00c2af9f00d3af9f000002be0003
:102de0000203be006fa89700ffa897000fb19700dd
:102df0009fb1970043fb070011fb07000205be00cf
:102e00000004be006000b8006011b800a0a79f00d9
:102e1000b1a79f00c2a79f00d3a79f002e00370035
:102e20006fa89700ffa897000fb197009fb1970078
:102e300003fb07000205be000004be00e00f5000c7
:102e4000e08f5800e00f5900e08f59000200350074
:102e500086fb07001300370010002000010020004f
:102e60006011b80008006000898060000a016100fc
:102e70008b8161008b03d1000a83d3008982d30048
:102e80000882d3000000720081807200020173008a
:102e90008381730075fb07000002be000203be00c1
:102ea0006afa07000002be000203be006fa8970086
:102eb000ffa897000fb197009fb19700a2fb0700f2
:102ec000a0a79f00b1a79f00c2a79f00d3a79f0004
:102ed0000000eb0080a79f0014c0b3000514210080
:102ee0000b0037000400fb004300dd00050040003c
:102ef0005001be004000be000040e10001c8e100fa
:102f000002d0e10003d8e100030039000442e800e8
:102f1000f44f5200f3ff3a00c47f9f000400fb000f
:102f2000bfb09700008040008fa0970001004000d4
:102f30004fb1970000075100bfb197000300e000b8
:102f4000010032000e07e9006380660001003200d4
:102f50000e07e9000d28a30026003200e18066007c
:102f60000d18a3000c003200d00220000100e00088
:102f700001003a000080e900efb0970086020700e8
:102f8000e10f4000180032002fb297000402e80061
:102f9000a4b79f00140037000100e00012003200c7
:102fa000efb09700000220007b020700e10f400015
:102fb0000d003200afb297008502e800a5b79f0070
:102fc00009003700efb097000003200072020700ed
:102fd000e10f4000030032002fb697000c06e80016
:102fe000acb79f000e07e9000e00e000f5ff3c00c3
:102ff0003d0037000d38a3000a0032000b003700f7
:10300000efb097000002200063020700e10f4000cc
:10301000030032002fb097000000e800a0b79f0027
:103020000e07e9000e00e000f5ff3c00e1806600bd
:103030000d18a3000c003200d00220000100e000b7
:1030400001003a000080e900efb09700520207004b
:10305000e10f400024003200afb097008100e8008b
:10306000a1b79f00200037000100e0001e003200e1
:10307000efb097000002200047020700e10f400078
:10308000190032002fb197000201e800a2b79f009b
:10309000150037000000fb004300dd000114210093
:1030a000010040003002be002003be000800be0048
:1030b0000a01be0083f80700a400200005002000dc
:1030c0006033b80086f807000003b000efb0970047
:1030d00031020700e10f400003003200afb197005a
:1030e0008301e800a3b79f004f7a97000440e900ee
:1030f000c07f9f00e14f4000e6ff3a000b00370021
:10310000efb097000003200023020700e10f40000a
:1031100003003200afb297008502e800a5b79f0018
:103120000fa097000000e90080a79f000fa0970064
:103130000000e000f2ff3c003fb6970020c1b30062
:10314000f20f560001003c006fe09700c07f9f0027
:10315000cf7897000100fb003fb1970000005100bd
:10316000e0a79f000104e00008003200efb09700e4
:10317000e002200008020700e10f400003003200d7
:10318000afb197008301e800a3b79f004f78970085
:1031900097fc07000002be000203be002fa09700ac
:1031a000bfa097004fa19700dfa19700d6f80700b6
:1031b00023fa07001e0037000000fb004300dd007b
:1031c0000c1421000c0040003002be002003be00a1
:1031d0000800be000a01be003af80700a400200063
:1031e000050020006033b8003df807000003b00080
:1031f000efb09700e8010700e10f40000300320044
:103200002fb297000402e800a4b79f00cf7a97007e
:103210000500fb004300dd000c0040003002be0052
:103220002003be000800be000a01be002cf8070003
:103230000205be000004be004f7e97000c40e9006e
:10324000c07f9f00e14f4000dbff3a000006eb002b
:1032500009003700efb0970000032000ce010700ff
:10326000e10f4000030032002fb097000000e8009b
:10327000a0b79f000c06e800efa09700810f560052
:10328000f4ff3a000d38a300a10132000e00e00067
:103290009f0134000006eb00efb097000002200011
:1032a000bd010700e10f4000030032002fb197007d
:1032b0000201e800a2b79f000c06e8008e0f56003e
:1032c00093013200f4ff37000d007800000cb200cb
:1032d00028003a000d00e00005003d008fb997007e
:1032e0004305be004304be0083bf9f0014003700a7
:1032f0000d48a3000b0032000fba97004400be0037
:1033000084bf9f004f89de00cf91de000002be0027
:1033100002037800820378000605be000404be00a4
:10332000070037008fba97004500780085bf9f00df
:1033300000047800cfc4de00090578008a05780013
:10334000e00f5400e08f5c00e00f5d00e08f5d0057
:1033500020003d003d00b3006000b8006011b800df
:1033600008045000898458000a0559008b855900cb
:10337000180037000d00e00005003d000fbe97006b
:103380004c05be004c04be008cbf9f0011003700ee
:103390000d48a300080032008fba97004500be0018
:1033a00085bf9f0004017800840178000205be00fb
:1033b0000004be00070037000fbe97004c007800e5
:1033c0008cbf9f0000047800090020000a00200044
:1033d0000b0020003fb097000000e00007003a001b
:1033e000e00f5400e08f5c00e00f5d00e08f5d00b7
:1033f00002003a0011002000b1b79f000d077800cd
:103400000e0cb20000042000800f57002f00320085
:1034100003003c000e00e000070032003f003700d0
:1034200000082000800f570014003200000c20001c
:10343000800f570039003a0014c0b3000514210072
:103440000b0037000400fb004300dd0005004000d6
:103450005001be004000be000040e10001c8e10094
:1034600002d0e10003d8e1002b0039000442e8005b
:10347000f44f5200f3ff3a0027003700000120000c
:10348000010020006011b80014c0b3000040e1004a
:1034900001c8e10002d0e10003d8e1001e003900bc
:1034a000450020000000d0008180d2000281d200bf
:1034b0008381d2008502e900faff3a000442e80065
:1034c000f04f5200f1ff3a00130037008000200057
:1034d000010020006011b80014c0b3000040e100fa
:1034e00001c8e10002d0e10003d8e1000a00390080
:1034f0003c0020000000d0008180d2000281d20078
:103500008381d2000c06e900faff3a000442e80089
:10351000f54f5200f1ff3a00c47f9f00cf7897002b
:103520000100fb003fb19700820f500002003d00f8
:10353000c27f9f0004003700bfb19700808f510009
:1035400001003d00b0b79f004fb297000400e000bb
:103550000400320063806600020032000402e900c9
:10356000c4b79f000de8a3000b003200cfb2970054
:103570003fb697008c8f520003003c000000eb0028
:10358000c0b79f0004003700cfb097003fb197004d
:1035900082805000c1b79f00cf7997000300fb00e5
:1035a0000002eb0094a79f00cfb29700808f5200db
:1035b000020034000080520090a79f000d28a30055
:1035c00037003200e18066000d18a3000c003200c5
:1035d000d00220000100e00001003a000080e90074
:1035e000efb09700ec000700e10f40000e00320042
:1035f0002fb697000c06e800acb79f000a00370012
:103600000100e00008003200efb097000002200047
:10361000e1000700e10f4000030032002fb09700e7
:103620000000e800a0b79f009fa097000100e00005
:103630000f0032000006eb00efb0970000032000ff
:10364000d5000700e10f4000030032002fb19700c2
:103650000201e800a2b79f000c06e8009fa19700b6
:10366000830f5600f4ff3a000002eb0094a79f007e
:10367000bfb29700c328dd00801321008080400086
:1036800091af9f004228dd006400500080af9f0092
:103690006328b900f0a79f0063065000820037003e
:1036a0001fa697000c00e000110032006880660041
:1036b0000f003a0000067800efb0970000022000eb
:1036c000b5000700e10f4000030032002fb0970063
:1036d0000000e800a0b79f000c06e8009fa097003c
:1036e000810f5600f4ff3a000001eb0092a79f0003
:1036f000e18066000d18a3000c003200d00220000b
:103700000100e00001003a000080e900efb09700fe
:10371000a1000700e10f4000d5ff3200afb19700d4
:103720008301e800a3b79f00d1ff37000100e0004c
:10373000cfff3200efb09700000220009600070094
:10374000e10f4000caff32002fb297000402e800e8
:10375000a4b79f00c6ff370000042000800f570069
:103760003000320003003c000e00e0000700320091
:103770003d00370000082000800f57001100320084
:10378000000c2000800f570037003a001fa8970058
:103790003002be002003be000800be000a01be00c9
:1037a000c8f60700a4002000050020006033b80020
:1037b000cbf6070004c3b30004424000c47f9f005f
:1037c00029003700751e2100d5b79f000d58a300b2
:1037d00002003a00801f2100d0b79f001400200093
:1037e000050020006033b8008fa897008100e90031
:1037f000050033000402d0008582d2000683d20087
:103800008783d200f9ff37000800be000a01be001e
:10381000acf607006f0060005fb19700624078006f
:103820001000370014002000050020006033b800ad
:103830008c0178008301e900050033000402d00008
:103840008582d2000683d2008783d200f9ff370039
:103850000800be000a01be009af60700674060003b
:103860000043b000c07f9f004f7a97000400fb0028
:10387000efb0970048000700e10f4000030032005e
:10388000afb297008502e800a5b79f001fa8970078
:103890006800500090af9f008fa89700e480500010
:1038a00081af9f0063065600d0ff2f003fb1970005
:1038b0000090b900ffa19700008041006300500014
:1038c000800f5600a4ff3a000d38a300100032000c
:1038d0001fa297000400e0000d0034000006eb007a
:1038e000efb09700000220002b000700e10f40001e
:1038f00003003200afb297008502e800a5b79f0031
:103900000c06e8001fa09700800f5600f4ff3a0055
:103910007fb19700b2407800f2b79f00c17f9f004f
:103920000104e00014fb3a002fb097004f07780025
:103930004f06be004f05be004f04be008f03b1000e
:10394000000006008001eb000200370061f0790002
:103950008301e800828f5100fcff3a00000006005e
:10396000881f7800d09280000000e0000100320043
:1039700000000100c8202100080078004d00070069
:103980006c04440000232100800f5400faff3a0029
:103990004f04780000000600889fbe0000017800f8
:1039a00001047800b10090000118a3003d0032002e
:1039b0000198a30003003a00180090000000e00006
:1039c00038003a000190a000310498008204780089
:1039d000f90fb200180090000000e00002003a0069
:1039e00028009000000c7800ea8f540006003a008e
:1039f000380090000078a30003003a0088007800a7
:103a0000d0002000e4ff07009800900058009000cc
:103a1000808f50000b0032000100e8001004980075
:103a20001800780009587800000c780011c0b30025
:103a30000025210001487800ea8f5400060032007a
:103a4000190037008800780009407800510007000d
:103a50008004780014003700380090000088a3002c
:103a60001100320018019000a8009000480090005a
:103a700055f2070098009000810f500004003200ba
:103a8000380090000003b300300498008084eb00fd
:103a90000000eb001004980028009000000c780053
:103aa000010037008084eb00090078004f04be005d
:103ab00000000600889fbe008a1f7800000478007e
:103ac000300090006300600024003200080078009d
:103ad000730007003805900080ef2f00000065009c
:103ae00030049800280090000000e000040032003c
:103af000e804650002003a00a200070029049800cb
:103b00004800900067f20700e10f40001300320008
:103b1000b80090000102b20010003a000ac8a300e9
:103b200018003200f09280000000e0001500320022
:103b30000001780081047800012a200012289000fa
:103b4000880f5000070032004205b0004905b00060
:103b5000818f54000b003200f8ff37000080eb002b
:103b6000090037000200780057f20700f092800049
:103b7000090040008000eb00112898000100780047
:103b8000010037000000eb004f0578004f04be0035
:103b9000000006000200fa00889fbe00a0ff9f0000
:103ba00001047800b1009000810478000904b2009b
:103bb000020032000000fb00360037000118a300ad
:103bc00005003a000103b30031049800190498007d
:103bd0000080eb002f003700580090000000e0004c
:103be00006003a004800900012002000e6805700ce
:103bf000f5f1070019049800240037002800900010
:103c00000000e00008003a00c024210020049800d1
:103c1000000c780020002000500498001004980048
:103c20000130a0003104980018019000a800900015
:103c300048009000e4f1070028009000000c780094
:103c40000080eb001004980018007800aff897008f
:103c500001587800000c78002ff89700ea4f5000c8
:103c60000a003a00380090000088a30007003200e4
:103c700018019000a800900048009000d2f10700c1
:103c800019049800a8009000010c7800aff8970084
:103c90000100fb004f04be000080fa000000060097
:103ca000881f780000047800300090000008a3000e
:103cb00007003200800078000120b20004003a00c2
:103cc00011049800a8009000010c7800170037003c
:103cd0000018a300190032000098a300170032005a
:103ce000a80090000100e0001400320018019000cc
:103cf0000200e0001100320048009000b2f107001d
:103d000098009000810f50000300320038009000ae
:103d10000003b300300498000000eb00100498008a
:103d200028009000000c7800380090000058a30094
:103d3000020032000080eb00010037000000eb00c1
:103d40004f04780000000600e19280000100e000ce
:103d50000300320011007800e09288000300370071
:103d6000200020007af1070080007800e18f4000f9
:103d700002003a00906e2600f07e88000100780074
:103d800000000600e192800001087800e0928800bf
:043d90000000060029
:020000040000fa
:10000800a4010000a4010000a4010000a401000054
:10001800a4010000a4010000a4010000a401000044
:1000280082410000a4010000a40100002a41000050
:10003800a4010000a4010000ac3d0000a4010000e0
:10004800a4010000c245000002450000ae290000de
:10005800a4010000a4010000a4010000a401000004
:10006800a4010000a4010000a4010000a4010000f4
:10007800a4010000a4010000a4010000a4010000e4
:100088004446000062450000a4010000a4010000ed
:10009800a4010000a4010000a4010000a4010000c4
:1000a800a4010000a4010000a4010000a4010000b4
:1000b800a4010000a4010000a4010000a4010000a4
:1000c800a4010000a4010000a4010000a401000094
:1000d800a4010000a4010000a4010000a401000084
:1000e800a4010000a4010000a4010000a401000074
:0800f800a4010000a4010000b6
:020000040000fa
:10010800a4010000a4010000a4010000a401000053
:10011800a4010000a4010000a4010000a401000043
:1001280082410000a4010000a40100002a4100004f
:10013800a4010000a4010000ac3d0000a4010000df
:10014800a4010000c245000002450000ae290000dd
:10015800a4010000a4010000a4010000a401000003
:10016800a4010000a4010000a4010000a4010000f3
:10017800a4010000a4010000a4010000a4010000e3
:100188004446000062450000a4010000a4010000ec
:10019800a4010000a4010000a4010000a4010000c3
:1001a800a4010000a4010000a4010000a4010000b3
:1001b800a4010000a4010000a4010000a4010000a3
:1001c800a4010000a4010000a4010000a401000093
:1001d800a4010000a4010000a4010000a401000083
:1001e800a4010000a4010000a4010000a401000073
:0801f800a4010000a4010000b5
:020000040000fa
:103d94003d3d00003d3d0000205200004541000033
:103da40044590000202d000020490000522000004a
:103db4005445000053540000494e000047200000c1
:103dc4003d3d00003d3d00000a0a0000003d0000aa
:103dd4003d3d00003d200000454d000049540000d9
:103de40054450000522000003d3d00003d3d0000d0
:103df4000a0a0000002e0000003d00003d3d0000c6
:103e04003d20000052450000434500004956000093
:103e140045520000203d00003d3d00003d0a0000e9
:103e24000a00000052650000636500006976000026
:103e34006520000073750000636300006573000073
:103e440073660000756c0000203a00002025000015
:103e540064200000202d000020640000697300002d
:103e6400746100006e630000653d0000256600007b
:103e740020090000206400006972000065630000ee
:103e8400746900006f6e00003d250000662000008c
:103e94000920000072650000636500006976000077
:103ea400696e000067530000656e0000736f0000c8
:103eb400723d0000256400000a0000005265000005
:103ec40063650000697600006520000066610000fb
:103ed400696c000065640000200a00000000000016
:103ee400256c000064000000256c000066000000e2
:020000040000fa
:103ef4000600fa00000f7800110798001e007800f1
:103f0400200798002e009000e30f50006700320055
:103f14002e009000e30f500007003e002e0090009a
:103f2400e10f50002e0032002e009000e10f5000ef
:103f340041003e000d0037002e009000e50f5000b8
:103f4400940032002e009000e50f500074003900f8
:103f54002e009000e60f5000ab0032002e009000bf
:103f6400e70f5000c5003200da0037001e00900051
:103f7400e10f50000f003600c4c2bf000080fb00f8
:103f84004600de00614060000004a2006140600061
:103f9400614060004601dd00412c20009140780022
:103fa400f0cbb30000c0600002407000c4e2b70070
:103fb4001e0137001e0090006140600061406000f7
:103fc4004601dd00412c200091407800f0cbb30085
:103fd40000c0600002407000c4e2b7001301370063
:103fe4001e009000e10f50000b003600c4c2bf0059
:103ff4000080fb004700de000004a2006140600076
:10400400c700dd00c4c2bf000074a10001407000fd
:10401400c4e2b700050137001e0090006140600053
:10402400c700dd00c4c2bf000074a10001407000dd
:10403400c4e2b700fd0037001e009000e10f5000fd
:104044000f003600c5c2bf000080fb000000d10095
:10405400614060000004a2006140600061406000b3
:1040640000414000512c200091407800d0cfb30093
:1040740000c0600002407000c5e2b700eb003700ea
:104084001e009000614060006140600000414000fb
:10409400512c200091407800d0cfb30000c06000c4
:1040a40002407000c5e2b700e00037001e00900037
:1040b400e10f50000f003600c5c2bf000080fb00b6
:1040c4004400de00614060000004a2006140600022
:1040d400614060004401dd00512c200091407800d3
:1040e400f0ceb30000c0600002407000c5e2b7002b
:1040f400ce0037001e009000614060006140600007
:104104004401dd00512c200091407800f0ceb30032
:1041140000c0600002407000c5e2b700c300370071
:104124001e009000e10f50000f003600c5c2bf0012
:104134000080fb004200de00614060000004a20039
:1041440061406000614060004201dd00512c2000ac
:1041540091407800b0cfb30000c06000024070000e
:10416400c5e2b700b10037001e0090006140600056
:10417400614060004201dd00512c20009140780034
:10418400b0cfb30000c0600002407000c5e2b700c9
:10419400a60037001e009000e10f50000f0036000b
:1041a400c5c2bf000080fb004500de006140600026
:1041b4000004a20061406000614060004501dd0030
:1041c400512c200091407800f0cdb30000c0600075
:1041d40002407000c5e2b700940037001e00900052
:1041e40061406000614060004501dd00512c200009
:1041f40091407800f0cdb30000c060000240700030
:10420400c5e2b700890037001e009000e10f50009e
:104214000f003600c5c2bf000080fb004600de0070
:10422400614060000004a2006140600061406000e1
:104234004601dd00512c200091407800f0cbb30002
:1042440000c0600002407000c5e2b700770037008c
:104254001e00900061406000614060004601dd0086
:10426400512c200091407800f0cbb30000c06000d6
:1042740002407000c5e2b7006c0037001e009000d9
:10428400e10f50000b003600c5c2bf000080fb00e8
:104294004700de000004a20061406000c700dd00aa
:1042a400c5c2bf000074a10001407000c5e2b700a0
:1042b4005e0037001e00900061406000c700dd0012
:1042c400c5c2bf000074a10001407000c5e2b70080
:1042d400560037001e00900061406000c700dd00fa
:1042e400c5c2bf000074a10001407000c5e2b70060
:1042f400c5c2bf000080fb004700de0061406000d3
:104304004601dd00512c200091407800f0cbb30031
:1043140000c0600002407000c5e2b700c5c2bf0023
:104324000080fb004600de006140600061406000e8
:104334004501dd00512c200091407800f0cdb30000
:1043440000c0600002407000c5e2b700c5c2bf00f3
:104354000080fb004500de006140600061406000b9
:104364004201dd00512c200091407800b0cfb30011
:1043740000c0600002407000c5e2b700c5c2bf00c3
:104384000080fb004200de0061406000614060008c
:104394004401dd00512c200091407800f0ceb300a0
:1043a40000c0600002407000c5e2b700c5c2bf0093
:1043b4000080fb004400de0061406000614060005a
:1043c40000414000512c200091407800d0cfb30030
:1043d40000c0600002407000c5e2b700c5c2bf0063
:1043e4000080fb000000d10061406000c700dd00d8
:1043f400c4c2bf000074a10001407000c4e2b70051
:10440400c4c2bf000080fb004700de0061406000c2
:104414004601dd00412c200091407800f0cbb30030
:1044240000c0600002407000c4e2b7000080fa00df
:10443400000006000000fa00c4c2a900c4e2a900fa
:10444400c522a900c582a900c542a900c5a2a90028
:10445400c5c2a900c5e2a9000080fa000000060058
:104464000200fa00000f7800100020009e0f1000d8
:104474000f003600d0c2bf000080fb004200de0007
:10448400614060000004a20061406000614060007f
:104494004201dd00012d200091407800b0cfb3002f
:1044a40000c0600002407000d0e2b7000a0037008c
:1044b4001e00780061406000614060004201dd0040
:1044c400012d200091407800b0cfb30000c06000ff
:1044d40002407000d0e2b7000080fa00000006003d
:1044e4000200fa00000f7800100020009e0f100058
:1044f4000f003600d0c2bf000080fb000000d100d6
:10450400614060000004a2006140600061406000fe
:1045140000414000012d200091407800d0cfb3002d
:1045240000c0600002407000d0e2b7000a0037000b
:104534001e0078006140600061406000004140005e
:10454400012d200091407800d0cfb30000c060005e
:1045540002407000d0e2b7000080fa0000000600bc
:104564000000fa00c4c2bf000080fb004600de0069
:104574006140600000c0ea0061406000614060008a
:104584004601dd00412c200091407800f0cbb300bf
:1045940000c0600002407000c4e2b700c4c2bf00a3
:1045a4000080fb004700de0000c0ea0061406000bc
:1045b400c700dd00c4c2bf000074a1000140700048
:1045c400c4e2b700c5c2bf000080fb000000d100f8
:1045d4006140600000c0ea0061406000614060002a
:1045e40000414000512c200091407800d0cfb3000e
:1045f40000c0600002407000c5e2b700c5c2bf0041
:104604000080fb004400de006140600000c0ea005e
:1046140061406000614060004401dd00512c2000d5
:1046240091407800f0ceb30000c0600002407000fa
:10463400c5e2b700c5c2bf000080fb004200de0037
:104644006140600000c0ea006140600061406000b9
:104654004201dd00512c200091407800b0cfb3001e
:1046640000c0600002407000c5e2b700c5c2bf00d0
:104674000080fb004500de006140600000c0ea00ed
:1046840061406000614060004501dd00512c200064
:1046940091407800f0cdb30000c06000024070008b
:1046a400c5e2b700c5c2bf000080fb004600de00c3
:1046b4006140600000c0ea00614060006140600049
:1046c4004601dd00512c200091407800f0cbb3006e
:1046d40000c0600002407000c5e2b700c5c2bf0060
:1046e4000080fb004700de0000c0ea00614060007b
:1046f400c700dd00c5c2bf000074a1000140700006
:10470400c5e2b7000080fa00000006000000fa00cd
:10471400c4c2bf000080fb004600de0061406000b0
:1047240000c0ea0061406000614060004601dd00b5
:10473400412c200091407800f0cbb30000c0600011
:1047440002407000c4e2b7000080fa0000000600d6
:104754000000fa00c4c2bf000080fb004700de0076
:1047640000c0ea0061406000c700dd00c4c2bf00b1
:104774000074a10001407000c4e2b7000080fa0098
:10478400000006000000fa00c5c2bf000080fb0064
:104794000000d1006140600000c0ea006140600098
:1047a4006140600000414000512c2000914078009d
:1047b400d0cfb30000c0600002407000c5e2b70073
:1047c4000080fa00000006000000fa00c5c2bf0025
:1047d4000080fb004400de006140600000c0ea008d
:1047e40061406000614060004401dd00512c200004
:1047f40091407800f0ceb30000c060000240700029
:10480400c5e2b7000080fa00000006000000fa00cc
:10481400c5c2bf000080fb004200de0061406000b2
:1048240000c0ea0061406000614060004201dd00b8
:10483400512c200091407800b0cfb30000c060003c
:1048440002407000c5e2b7000080fa0000000600d4
:104854000000fa00c5c2bf000080fb004500de0076
:104864006140600000c0ea00614060006140600097
:104874004501dd00512c200091407800f0cdb300bb
:1048840000c0600002407000c5e2b7000080fa007a
:10489400000006000000fa00c5c2bf000080fb0053
:1048a4004600de006140600000c0ea006140600034
:1048b400614060004601dd00512c200091407800e9
:1048c400f0cbb30000c0600002407000c5e2b70046
:1048d4000080fa00000006000000fa00c5c2bf0014
:1048e4000080fb004700de0000c0ea006140600079
:1048f400c700dd00c5c2bf000074a1000140700004
:10490400c5e2b7000080fa00000006000200fa00c9
:10491400000f78009e007800202b2200cc0b0700ab
:104924000080fa00000006000000fa00202b22009c
:10493400f70b07000080fa00000006000200fa00ee
:10494400000f78001e00e000030035009e00780090
:10495400202b2200160c07000080fa00000006003d
:104964000000fa00c4cfbf000004e0000b003a00ce
:104974008000eb00700020005dfd0700c4cfbf0085
:104984000080fb001100200059fd0700c4cfbf00c8
:104994000040e800c4efb7001b003700c4cfbf00dd
:1049a400e74f50000c003a00c4cfbf000080fb006a
:1049b4000000e9008000eb004dfd0700c4cfbf00fc
:1049c4000080fb001100200049fd07000040eb00bf
:1049d400c4efb7000c003700c4cfbf000080fb0059
:1049e4000000e9008000eb0041fd0700c4cfbf00d8
:1049f4000080fb00110020003dfd0700c4cfbf0074
:104a04000040e800c4efb7000080fa000000060090
:104a14000200fa00c5cfbf000080fb00000f780041
:104a24001e007800e20f50001c0032001e007800c7
:104a3400e20f500007003c001e0078000000e00078
:104a44000b0032001e007800e10f50000c00320011
:104a5400230037001e007800e30f500016003200d8
:104a64001e007800e40f50001a0032001c003700ca
:104a7400210020000000eb001dfd07001800370096
:104a8400210020001000200019fd07002100200053
:104a94007000200016fd07001100370021002000df
:104aa4002000200012fd07002100200060002000eb
:104ab4000ffd07000a00370021002000300020000d
:104ac4000bfd0700210020005000200008fd070016
:104ad40003003700210020004000200004fd0700ef
:104ae400c5cfbf00e34f500004003e00c5cfbf0058
:104af4000040e800c5efb700020037000040eb00bb
:104b0400c5efb7000080fa00000006000000fa00bc
:104b1400c6cfbf000004e0000f003a00dccfbf00a6
:104b24000004e0000c00320010c0b300c6efb70070
:104b34008000eb000000eb00edfc0700c6cfbf00d7
:104b44000080fb0011002000e9fc07000040eb009e
:104b5400dcefb7002b003700c6cfbf000004e00035
:104b64000f003a00dccfbf000004e0000c003a0064
:104b740070c0b300c6efb7008000eb000000eb008c
:104b8400dbfc0700c6cfbf000080fb001100200043
:104b9400d7fc070010c0b300dcefb70019003700e2
:104ba400c6cfbf00e74f50000a003a000040eb00b8
:104bb400c6efb7008000eb0070002000ccfc0700bb
:104bc400c6cfbf000080fb0011002000c8fc070016
:104bd4000c003700c6cfbf00e14f500009003a0077
:104be4000040eb00c6efb7008000eb00100020008f
:104bf400bffc0700c6cfbf000080fb0011002000ef
:104c0400bbfc07000080fa00000006000200fa0066
:104c1400c7cfbf000080fb00000f78001e007800a3
:104c2400e10f5000150032001e007800e10f500023
:104c340004003c001e0078000000e0000800320080
:104c44001a0037001e007800e20f500012003200f4
:104c54001e007800e30f50001300320013003700e9
:104c6400210020000000eb00a1fc0700210020002f
:104c7400400020009efc07000c00370021002000ab
:104c8400100020009afc07002100200030002000c2
:104c940097fc0700050037002100200020002000b9
:104ca40093fc070001003700e2fd0700c7cfbf00f7
:104cb400e24f500004003e00c7cfbf000040e800b0
:104cc400c7efb700020037000040eb00c7efb700a2
:104cd4000080fa00000006000200fa00c8cfbf00fe
:104ce4000080fb00000f78001e007800e10f5000e8
:104cf400150032001e007800e10f500004003c0053
:104d04001e0078000000e000080032001a0037009e
:104d14001e007800e20f5000120032001e007800de
:104d2400e30f50001300320013003700210020006d
:104d34000000eb006efc0700210020004000200072
:104d44006bfc07000c0037002100200070002000dd
:104d540067fc0700210020005000200064fc0700cd
:104d640005003700210020006000200060fc0700df
:104d740001003700affd0700c8cfbf00e24f50006d
:104d840004003e00c8cfbf000040e800c8efb700f1
:104d9400020037000040eb00c8efb7000080fa00c3
:104da400000006000200fa000000eb0050628800d8
:104db4000000eb00606288000000eb0030408800d7
:104dc40010002000204088000000eb00000f780055
:104dd400190037001e00780080004000a0832000e6
:104de400808040000000eb00800878001e007800fe
:104df40080004000a0812000808040000000eb0083
:104e0400800878001e00780080004000a080200008
:104e1400808040000000eb00800878001e007800cd
:104e240080004000a0822000808040000000eb0051
:104e3400800878001e0fe800700020009e0f10000c
:104e4400e4ff34000000eb0040408800a084200010
:104e540000408800a0a42000104088000000eb005f
:104e6400001588000000eb00101588000000eb001e
:104e7400201588000000eb0030158800a802a80067
:104e8400a822a800a842a900a862a900a882a90093
:104e9400a8a2a900a8c2a900a8e2a900a902a90081
:104ea400a922a900a942a900a962a900a982a9006e
:104eb400a9a2a900a9c2a900a9e2a900aa02a9005d
:104ec400aa22a900aa42a900aa62a900aa82a9004a
:104ed400aaa2a900aac2a900aae2a900ab02a8003a
:104ee400ab22a800ab42a800ab62a800ab82a8002a
:104ef400aba2a800abc2a800abe2a800112a200014
:104f040091407800c0cfb30000c06000a1e2b700b8
:104f1400a042a800012a20009140780000ceb300ee
:104f240000c07000a0e2b700212a20009140780060
:104f340030ccb30000c06000c041b300a2e2b700af
:104f4400a342a800512a20009140780000ceb3006b
:104f540000c060000004a000a5e2b700412a2000c0
:104f64009140780000ccb30000c060003041b30031
:104f7400a4e2b7008560a9008d60a8009109200013
:104f84009140780000c7b30000c0700099e0b700fa
:104f9400a1e2a8000080fa00000006000000fa0068
:104fa400a1e2a8008d60a8000080fa0000000600bd
:104fb4000000fa000000eb00907e88000040eb0047
:104fc400d0efb7000080fa00000006000200fa00eb
:104fd400000f78001e007800a07e88000000eb001f
:104fe400907e88000040eb00d0efb7000080fa000c
:104ff400000006000000fa00a1e2a9008d60a900eb
:105004000080fa00000006000200fa004040800020
:10501400e10f500021003200a07e80000000e0007b
:1050240004003400a07e80000000e900a07e880017
:105034001a00370002282000907e80004400dd0022
:105044008000780000408000008040000f000900cc
:10505400325878000001b1000201b100907e800056
:105064000000e800907e8800907e8000ff0f5000d2
:105074000a0036000000eb00907e880010c0b300e8
:10508400d0efb70010408000000f7800004080008f
:10509400104088001e007800004088000080fa005c
:1050a400000006001600fa00706280000000e800ac
:1050b400706288007162800080628000808f50007e
:1050c400a30035000000eb0070628800906280004d
:1050d400e30f500004003400b5ff07000000eb00ac
:1050e400506288009a003700002820008e80e80073
:1050f4000f000900b05878000101b1000001b100af
:1051040090628000000f7800a06280000000e00040
:1051140035003a001e0178001e0078008e80e800f9
:105124000000400060807800800178008200410027
:10513400a080200000804000030878009e007800d2
:10514400648140009e007800648040008e80e80006
:1051540000004000608078008001780082004100f7
:10516400a080200000804000030878001e00780022
:10517400100f98009e089000e18f5000100032003c
:105184001e089000e10f500004003c009e089000af
:105194000100e000080032000e0037001e089000f5
:1051a400e20f5000080032009e089000e38f500088
:1051b4000700320007003700e2e2a80005003700cc
:1051c400e302a80003003700e802a800010037004a
:1051d400e822a80010002000a062880040002000ff
:1051e400806288005a0037001e0178001e00780093
:1051f4008e80e80000004000608078008001780024
:1052040082004100a0812000008040000308780053
:105214001e007800640140009e0078006480400015
:105224008e80e800000040006080780080017800f3
:1052340082004100a0812000008040000308780023
:105244009e0178001e00780080004000a0802000ad
:1052540000804000100178001e00780080004000ab
:10526400a08120000080400010007800000151005f
:1052740083804100a0822000008040000208780062
:105284001e007800e40140009e0078006480400025
:1052940080004000a08020000080400010017800c1
:1052a4009e0078006480400080004000a0812000bf
:1052b400008040001000780000015100838041000c
:1052c400a082200000804000020878001e007800c0
:1052d400200f9800ae089000e18f500010003200bb
:1052e4002e089000e10f500004003c00ae0890002e
:1052f4000100e000080032000e0037002e08900084
:10530400e20f500008003200ae089000e38f500016
:105314000700320007003700e2e2a9000500370069
:10532400e302a90003003700e802a90001003700e6
:10533400e822a9000000eb00a062880090628000cf
:105344000000e80090628800a001200080628800cc
:105354000080fa00000006003600f800809fbe00be
:10536400829fbe00849fbe00869fbe003400f8006a
:1053740000002000a00188000200fa008560a90056
:1053840020408000e10f500003003a00606280007a
:105394000000e8006062880061628000b09920002b
:1053a400808f5000130034000000eb00606288001e
:1053b400304080000000e0000e003a00e2e2a90064
:1053c400e302a900e802a900e822a9000000eb001a
:1053d40070628800a0012000806288000000eb0059
:1053e400a06288000000eb0090628800100020009a
:1053f4005062880050628000000f78001e00780020
:105404000000e000040032001e007800e10f5000ac
:105414000300320003003700fbfe070001003700e1
:1054240020ff07000080fa003400f9004f03be009b
:105434004f02be004f01be004f00be003600f9000f
:10544400004006000200fa00d0cfbf00004f7800f1
:105454000040eb00d0efb7001e00fb000080fa0014
:10546400000006000200fa00000f78001e00780019
:1054740080004000a08220000080400010007800de
:105484000080fa00000006000200fa00000f780015
:105494001e00780080004000a082200000804000b0
:1054a400100178001e00780080004000a0832000d6
:1054b4000080400010007800000051000080fa00d5
:1054c400000006000200fa00000f78001e007800b9
:1054d40080004000a0802000008040001000780080
:1054e4000080fa00000006002400fa00881f7800fb
:1054f400640047006011b8000288be0064004000e8
:105504006011b8000288be00640040006011b80059
:105514000288be00640040006011b8000288be002a
:10552400640040006011b8000288be0064004000be
:105534006011b8000288be00640040006011b80029
:105544000288be00640040006011b8000288be00fa
:105554000000eb00000f7800320037000000eb0081
:105564006062880010002000304088001000200095
:105574004040880050628000e10f5000fdff32007f
:105584000000eb0070628800a001200080628800a7
:105594000000eb00a06288000000eb00906288002d
:1055a400100020005062880050628000e10f50001b
:1055b400fdff32000000eb001007980015003700d3
:1055c4001e0290001e009000e40047004200dd002f
:1055d400010040001001be001e0090008000400049
:1055e400a08220000080400010007800cf80de0000
:1055f4000201400083814800e40047004220dd00ae
:10560400010040000288be001e0090000000e80077
:10561400100798001e009000e70f5000e8ff3400c8
:105624001e0fe800300620009e0f1000cbff340050
:105634000000eb00304088000000eb004040880090
:105644000000eb0010079800130037001e049000c0
:105654001e009000e40047004200dd00010040000d
:105664001000be00afeb070002002000832c2400d2
:10567400d7eb070018ec070000017800880044000d
:10568400a083200000804000020878001e009000e3
:105694000000e800100798001e009000e70f50007b
:1056a400eaff34004f0478000080fa00000006008e
:1056b4000000fa0010002000ba0a07000000eb0006
:1056c400306d88000000eb00206d88000000eb00c6
:1056d400f06d880010002000c062880000002000e7
:1056e40001f82b00b06d8800c16d8800800b20008c
:1056f400100888000000eb00aa0a07000080fa00e6
:10570400000006000000fa00306d80000080fa00fe
:10571400000006000200fa00206d8000e10f500036
:1057240003003a0010002000000f78000200370048
:105734000000eb00000f78001e0078000080fa00e3
:10574400000006000200fa00c0628000e10f500071
:1057540003003a0010002000000f78000200370018
:105764000000eb00000f78001e0078000080fa00b3
:10577400000006000000fa000000eb00306d880015
:105784000000eb00206d88000000eb00f06d880045
:105794000000eb00304088000000eb00c06288008d
:1057a4000080fa00000006000200fa00f06d80009c
:1057b400000f78001e0078000000e00004003200b2
:1057c4001e007800e10f5000030032000300370090
:1057d4000400070001003700540007000080fa00ad
:1057e400000006000e00fa0016ff07000004e000a7
:1057f4004c0032009f000700600798006e00900084
:105804000000e000470035000080eb0050079800de
:105814006e009000106e88006e0090000000e000a2
:105824000300350010002000dc000700500798003a
:105834005e009000e10f50003a00340000002100a7
:10584400200798000000eb00100798000000eb0010
:10585400400798006e009000300798001b00370046
:105864003e0090000000400080007800104080005e
:1058740000804000100f78001e0090009e0f100062
:10588400020034001e007800100798002e009000db
:105894009e0f100002003d001e00780020079800b3
:1058a4001e009000ae00900001005000e90f50006f
:1058b40009003c004e0090000000e80040079800fa
:1058c4003e00900068004000300798004e009000b1
:1058d400ff0f5000e2ff3400917e80004e009000e4
:1058e400010050000002b000b8fd070010002000c5
:1058f400304088000000eb00006e88006e009000cd
:10590400106e88000000eb00306d88000000eb0092
:10591400406d880010002000206d880010002000d9
:10592400f06d88000080fa00000006000600fa000e
:10593400c4fe07000004e0004c0032000000eb004d
:1059440096000700200798002e0090000000e00059
:1059540012003d0010002000306d8800100020006f
:10596400406d88000000eb00206d88000000eb0013
:10597400f06d88000000eb0030408800206e80004d
:10598400e10f500002003a0049ff070037003700da
:105994000000eb00c062880034003700026e800013
:1059a4002e00900080417800e600410040da20009b
:1059b40000804000034878000200e800006e880080
:1059c400006e8000e90f5000280034004a010700ef
:1059d400406d880010002000306d88000000eb004e
:1059e400206d88000000eb00f06d8800b06d800031
:1059f400c16d800038eb07008b080700b06d88008c
:105a0400c16d8800106e8000e1080700d06d880029
:105a1400e16d8800a0da20003c090700008fbe0079
:105a2400476d8000146e8000d06d8000e16d8000b1
:105a3400b26d8000c36d8000040378000002be00d4
:105a44001e00be00d00a07000000eb0030408800b2
:105a5400206e8000e10f500002003a0014ff07009e
:105a6400020037000000eb00c06288000080fa00ea
:105a7400000006001200fa000000eb006007980026
:105a84000080eb00500798000000eb0070079800be
:105a9400340037007e009000400798000000eb00bf
:105aa4003007980000002100200798000000eb0058
:105ab400100798000000eb0030079800170037002b
