:020000040000fa
:080000000001040000000000f3
:020000040000fa
:100200008f8c20008079220000018800000000000f
:10021000050007000c00070080010200000000003c
:100220000040da000000fe004440a9000000200069
:100230000000e0000300320000002000a001880060
:100240004440a80000000600002f2000010020000c
:100250001600370062004000e080480091018800ed
:100260009001ba0062004000e080480091018800df
:100270009002ba0062004000e08048000002eb00fb
:100280006028e10005003a008301e900070033001f
:10029000038009000059eb00040037006128e100e9
:1002a000010032000082eb00050007009101880088
:1002b0001001ba000200e000e6ff3a00000005006d
:1002c000910188008002780062004000e0804800d0
:1002d0003559ba008301e900080032002559ba00f7
:1002e0008301e900050032000400e000f4ff320061
:1002f00015d9ba008301e900f1ff3a0000000600b9
:100300000000fa00710007000003280020088800a0
:10031000c4c2bf000080fb004600de0061406000f8
:100320000004a20061406000614060004601dd0001
:10033000412c200091407800f0cbb30000c0600059
:1003400002407000c4e2b700c4c2bf000080fb00de
:100350004700de000004a20061406000c700dd002d
:10036000c4c2bf000074a10001407000c4e2b70025
:10037000c5c2bf000080fb000000d10061406000ea
:100380000004a20061406000614060000041400044
:10039000512c200091407800d0cfb30000c0600005
:1003a00002407000c5e2b700c5c2bf000080fb007c
:1003b0004400de00614060000004a2006140600073
:1003c000614060004401dd00512c20009140780024
:1003d000f0ceb30000c0600002407000c5e2b7007c
:1003e000c5c2bf000080fb004200de00614060002b
:1003f0000004a20061406000614060004201dd0035
:10040000512c200091407800b0cfb30000c06000b4
:1004100002407000c5e2b700c5c2bf000080fb000b
:100420004500de00614060000004a2006140600001
:10043000614060004501dd00512c200091407800b2
:10044000f0cdb30000c0600002407000c5e2b7000c
:10045000c5c2bf000080fb004600de0061406000b6
:100460000004a20061406000614060004601dd00c0
:10047000512c200091407800f0cbb30000c0600008
:1004800002407000c5e2b700c5c2bf000080fb009b
:100490004700de000004a20061406000c700dd00ec
:1004a000c5c2bf000074a10001407000c5e2b700e2
:1004b0000000eb000008880001088000f0e1240043
:1004c000808f5000fcff360091ff37000000fa00db
:1004d000c4c2a900c4e2a900c522a900c582a9001e
:1004e000c542a900c5a2a900c5c2a900c5e2a900cc
:1004f000c0c2a900c0e2a900c122a900c182a9000e
:10050000c142a900c1a2a900c1c2a900c1e2a900bb
:10051000d022a900cc22a900d042a900cc42a90037
:10052000e2e2a900e302a900e802a900e822a9008a
:10053000dee2a900df02a900e402a900e422a9008a
:10054000e202a900de02a900d602a900d622a90073
:10055000d642a900d662a900d682a900d6a2a900d7
:10056000d6c2a900d6e2a900d202a900d222a900cf
:10057000d242a900d262a900d282a900d2a2a900c7
:10058000d2c2a900d2e2a900d1a2a900cda2a9009d
:10059000e842a900e862a900e442a900e462a900d7
:1005a000de22a800dec2a800e4c2a800e4e2a8009f
:1005b000e502a800e522a800d302a800d322a800e3
:1005c000d342a800d362a800d382a800d3a2a80077
:1005d000d3c2a800d3e2a8000080fa000000060001
:020000040000fa
:0200000401f009
:04000000e6ff000017
:020000040000fa
:0200000401f009
:04000400ff7f00007a
:020000040000fa
:0200000401f009
:040008007fff000076
:020000040000fa
:0200000401f009
:04001400ffff0000ea
:020000040000fa
:10000800f2020000f2020000f2020000f202000018
:10001800f2020000f2020000f2020000f202000008
:10002800f2020000f2020000f2020000f2020000f8
:10003800f2020000f2020000f2020000f2020000e8
:10004800f2020000f2020000f2020000f2020000d8
:10005800f2020000f2020000f2020000f2020000c8
:10006800f2020000f2020000f2020000f2020000b8
:10007800f2020000f2020000f2020000f2020000a8
:10008800f2020000f2020000f2020000f202000098
:10009800f2020000f2020000f2020000f202000088
:1000a800f2020000f2020000f2020000f202000078
:1000b800f2020000f2020000f2020000f202000068
:1000c800f2020000f2020000f2020000f202000058
:1000d800f2020000f2020000f2020000f202000048
:1000e800f2020000f2020000f2020000f202000038
:0800f800f2020000f202000018
:020000040000fa
:10010800f2020000f2020000f2020000f202000017
:10011800f2020000f2020000f2020000f202000007
:10012800f2020000f2020000f2020000f2020000f7
:10013800f2020000f2020000f2020000f2020000e7
:10014800f2020000f2020000f2020000f2020000d7
:10015800f2020000f2020000f2020000f2020000c7
:10016800f2020000f2020000f2020000f2020000b7
:10017800f2020000f2020000f2020000f2020000a7
:10018800f2020000f2020000f2020000f202000097
:10019800f2020000f2020000f2020000f202000087
:1001a800f2020000f2020000f2020000f202000077
:1001b800f2020000f2020000f2020000f202000067
:1001c800f2020000f2020000f2020000f202000057
:1001d800f2020000f2020000f2020000f202000047
:1001e800f2020000f2020000f2020000f202000037
:0801f800f2020000f202000017
:020000040000fa
:0405e0000000000017
:020000040000fa
:0405e4000000fe0015
:00000001FF
