:020000040000fa
:080000000001040000000000f3
:020000040000fa
:100200008f4621000e7f22000e01880000000000b2
:100210000c000700c0c623000100200011000700e9
:10022000000020000000e000020032000000020098
:100230000000000008250200000000000040da0075
:100240000000fe004440a900001320000000e00070
:100250000300320000002000a00188004440a800f4
:100260000000060091018800800078000000eb008b
:1002700015003700e280400032a0b4009101ba00be
:10028000e280400032a0b4009102ba00e280400057
:1002900032a0b4000002eb00472bde00f507b200ed
:1002a000602ce10004003a000059eb008301e900f2
:1002b000fdff3e00040037006128e100010032002c
:1002c0000082eb00040007001101ba000200e00008
:1002d000e8ff3a00000006003159ba008301e90046
:1002e0000c0032002159ba008301e90008003200f5
:1002f0000400e00003003a00e280400032a0b400b5
:10030000f5ff370011d9ba008301e900faff3a007e
:100310008100e800e180400032a0b4000000060047
:10032000122c04000000000034390400000000001a
:10033000183a040000000000b0470400000000006c
:100340000040da000000fe00889fbe0080047800b4
:10035000209380000000e00003003a0061000700e5
:100360000000e0000a003500209380000900e00052
:1003700002003a000004780006003700000478000c
:1003800009004000570007000000e00001003d00a8
:100390000084eb00080078004f04be000000060057
:1003a0000c02e20004003d000f42ab0002003200ec
:1003b0000f02ab00feff32000040da00feff370004
:1003c0000a00fa0080017800e20f500028003e0089
:1003d00030938000e10f500008003200e02120003f
:1003e0000000e0000500320064212000852120008b
:1003f000a62120008001780004003700c4202000de
:10040000e520200006212000432120001440900018
:100410000004e000040035008009eb001440900067
:100420000074a00010429800154090000028a3001e
:1004300003003a00154090000024a000904298006c
:100440008001eb0007003700154090000008a30072
:10045000fdff320063c078000000fb00000b780055
:100460008301e800828f5100f7ff3a00080037004f
:1004700030002000b0bf9f00c3bf9f00d1bf9f00ce
:10048000e2bf9f006a80570000c0da006fb9970092
:10049000020078000080fa00000006000a00fa005e
:1004a00011002000b1bf9f00c0bf9f006a805700ad
:1004b00000c0da004fb897000080fa000000060084
:1004c0000a00fa0051002000b1bf9f00c0bf9f008a
:1004d0006a80570000c0da005fb897000080fa0019
:1004e00000000600800078000000e00004003a00f0
:1004f0008026210020938800010178000600370043
:100500000081eb0080462100808f500002003e00f9
:10051000219388000001eb00020078000000060033
:10052000889fbe008a9fbe00010578000100e000a0
:100530000400350008003c000000e000200032000c
:100540000500370060001000e080180002003b004a
:1005500001f02c001a0037000004be006011b80042
:100560006b0920000982cf00020039000882cf0009
:100570000441b000694252000e00320008003b0006
:1005800082817100610164008904d1000884d30074
:100590008b05e8000442e800f9ff3a000500370047
:1005a0000804440089844c008b05e9000442e900fa
:1005b000fbff3a00d40107000af0a70001f0a000f9
:1005c0004f05be004f04be0000000600889fbe001d
:1005d0008a9fbe008c1f7800f1010700f8013300ec
:1005e00003866c006450e1002e0032006420e100bc
:1005f000330032006150e1002f0032006120e10041
:100600003100320085855500eb07b000090020005d
:1006100008042000050037000804440089844c00c9
:100620000a0031000603430087834b00000153009a
:1006300081815b00f8ff33000203be000800a000c8
:100640000804440089844c00f6ff3900c639dd00f7
:100650008301730001003200130020008904d100df
:100660000884d3000998a300050032000800a70001
:100670000300a0008904d1000884d3008b05e800a2
:100680008904d1000884d3000001eb000281d2006c
:100690009d01070001f0a1000cf0a70001f0a000ef
:1006a000d00137006420e100d20132000801be0011
:1006b0000200be00f7ff37006120e100cd013200eb
:1006c0006000b800f3ff37000000200001f82700a9
:1006d000f0ff37000001be00c90107000470a70049
:1006e00003f0a1006509b100160032000d003500cd
:1006f0006828e10006003500f0ff2f00f1ff270019
:100700000300e00013003b0001002800000005008a
:1007100000004000818048008502e900fcff3a00ab
:1007200008003700f88f420002003c008000eb0018
:10073000000005008100d1000080d3008502e800a0
:10074000fcff3a000300e00002003b0060001000e4
:10075000e080180000000600889fbe008a9fbe004f
:100760008c1f78008e0107009501330003866c0012
:100770006450e100240032006420e10027003200d0
:100780006150e100220032006120e10021003200ce
:100790008b854200eb07b1000134b800003ab80085
:1007a0000804420089844a00013ab8000030b800c9
:1007b0008880400009014a00040033000000400026
:1007c00081804800020149008b05e900c909dd006c
:1007d000830170000100320013002000c814de0005
:1007e0004814dd004709de001200b200c808de0030
:1007f000088470004401070001f0a1000cf0a7007c
:1008000001f0a000770137006120e100790132009a
:100810000801be000200be00f7ff37006150e10092
:10082000fcff3a00730137000001be0074010700ad
:100830000470a70003f0a10003f8a30013003a001e
:100840006509b10010003200090035006928e10097
:1008500002003500010028000000050000004000f3
:10086000818048008502e900fcff3a000000060094
:10087000f88f4200050035008100d1000080d300d0
:100880008502e800fcff3a00000006008000eb0053
:1008900000000500140020006e01370003f0a200e4
:1008a000889fbe008a9fbe008c1f78003c01070015
:1008b000430133006450e1004f0032006420e10046
:1008c0005200320003826c0007003b000905d00093
:1008d0000306d000820f54000c065d0002003900b0
:1008e00002003200890178000306780085825500f5
:1008f00004003d000003fd008103fd008502ea00c5
:100900008b854200840f720002003b0060001000e3
:10091000e08018006011b8000005eb007a28e100c3
:100920000a00390006007800c75ddd00f707b20055
:10093000878075002d003700828171000a017800e0
:10094000610560008180d1000080d3008502e9004c
:10095000f9ff3b00060440008784480002003b008a
:1009600060041400e0841c000988a3000700320022
:100970008a81710082817100610164008904d10063
:100980000884d3008b05e800170037000978a3001e
:1009900013003a000b00e000130034008b05e9005f
:1009a0000804440089844c000a4474000978a300b8
:1009b0000d003a000b00e000070034008b05e90051
:1009c0000804440089844c0001003a000b00200018
:1009d0000978a300f7ff32000001eb0002003700a6
:1009e000828171000a017800c70007000cf0a7009f
:1009f00001f0a000fb0037006420e10002003a0093
:100a0000838f6c00fb0033000801be000200be00b3
:100a1000f4003700f4ff2f000e0137000081eb00d7
:100a2000270137000001eb0025013700889fbe0039
:100a30008a9fbe008c1f78000004be00f0000700f3
:100a40000478a30026003a006120e100250032006e
:100a500009f8a30025003a006420e10021003200db
:100a6000f507b1000508a3000200320000004000b5
:100a7000818048006044b80003102000020020007c
:100a800000004000818048000805440089854c0032
:100a90000a0541008b8549000a0550008b855800e6
:100aa000030033000a00be00020474008384740053
:100ab0008301d1000281d300830f7100f0ff3a005f
:100ac0008904d1000884d3006001490082017800c4
:100ad000c1adde00fb07b0008b000700c10037008e
:100ae0000960a0000800be00be003700120220000e
:100af000127f8800f0ff2f00f1ff2700b9003700b8
:100b0000889fbe008a9fbe008c9fbe000004be006e
:100b1000bb0007000800be00890678006420e100e1
:100b200008003900040032000160a0001202200019
:100b3000127f88005300370091fc2300b0fd200095
:100b40004e0037000006eb0009f0a10003f8230077
:100b5000020020000800be004eff0700060034001f
:100b600001f82300000020000801be0097fe0700e6
:100b70000004be002c0020000800be0093e8230003
:100b8000320a230043ff0700120034000801be00b0
:100b9000d1fd2300703d2b0041ff07000005be0082
:100ba000b3f32300f27a26000800be00eafe070035
:100bb00003f823000200200038ff07000801be00f0
:100bc00037ff07000a01be0080fe07000004be00d8
:100bd0000c06e8000800be0001f0a10002002000a1
:100be000039823002bff07000800be001600350005
:100bf0000801be00d8fe07000005be0032cd2c0063
:100c000043fb230026ff0700809fbe0012692800d7
:100c100003d52b000a00be00cffe0700620f2100a3
:100c200013ef2b001eff07000a01be00cafe0700db
:100c30004f01be0065fe07000801be00c6fe0700aa
:100c40000801be0016ff07000c00e0000b00320098
:100c50000c10a70001f0a200b2fd200093fc2300bd
:100c60006260e1000400320022a9200063f023004a
:100c70000c10a70063f8230009ff07000df0a70080
:100c800001f0a2004f06be004f05be004f04be009b
:100c900000000600889fbe008a9fbe008c1f78005f
:100ca0003f0007001002200002003b00107f880078
:100cb000430037008a0062006408e10002003a0045
:100cc000107f88004b0037006108e100fcff320014
:100cd0000800be00030478003cfe070001f0a100fc
:100ce00087ff070008f0a600040037000001be00df
:100cf00091042400b0fd2000e8fe070009f0a700e1
:100d000001f0a2003700370081002000618055000b
:100d10000b003d000b00200061fe2f000100e100f0
:100d20001d00340082817100610164008904d100da
:100d30000884d3000000e800faff3a0071002000a8
:100d400061006400030070000200600009003200ce
:100d500061044400e0844c000988a50005003200cd
:100d60008b05e8006808e10002003a008904d10020
:100d70000884d300f20f20000258e10005003d0076
:100d8000c75ddd00f907b2008980750008007800b2
:100d9000000006000bf827008b007800000005001b
:100da0000004be00160007000003be000405be00dc
:100db0000200be0012000700844f7500000006000c
:100dc0000200be006450e100050036006420e1002e
:100dd000020036000968a30001003a000800be00c6
:100de0000160a0004f0678004f05be004f04be0012
:100df00000000600f0ff2f00f1ff2700f9ff370089
:100e0000c70ade00f107b200f50fb2000800320099
:100e1000e1cf4200020032000170a0002400050072
:100e2000810f700001003200040805004400050035
:100e3000810f700002003a00140005008502e900ed
:100e40000000400081c04800fcff3b000170a00092
:100e500024000500889fbe008a9fbe00841f780082
:100e6000cfff07004f00780011003300f0ff2f0084
:100e7000838f6c0006003b00040565000a00a70094
:100e80000800370009f0a600100020000800370015
:100e9000820f5400838f5c00030039001000200093
:100ea00001003e000000200009f0a7000000ea0059
:100eb0004f05be004f04be000000e0000000060029
:100ec000889fbe008a9fbe008c9fbe00820578006e
:100ed0000004be00caff07000800be006420e10055
:100ee0000700390002003a00f1ff2700f0ff2f0051
:100ef0000160a00012022000127f88005500370018
:100f00006120e10003003a000b00a70001f8230074
:100f10005000370001f0a10002002100936424007a
:100f20005cfe07000800be0004003500b2fd200092
:100f3000930c24004b0007000004be000005eb00ea
:100f40000b00a6004f0dde0001f0a1000004be0062
:100f500032982f0023ea2300fffd07000001eb0079
:100f600003f023000b00a70003f823004cfe07004a
:100f7000d8fd07000000a7000a00a20068fd0700d6
:100f80000b00e000030032000200200003f0230009
:100f900042fe070001f0a2000006be000200200091
:100fa00093042400ecfd07000801be003cfe07008e
:100fb000809fbe000c00be0022a22a00d3a72300ff
:100fc000e5fd07004f01be0035fe07000004be002e
:100fd00001f0a10002002000039823002dfe07006d
:100fe0000800be00190035000001be00dafd070050
:100ff0000006be00b2c52900e3622300d6fd07004b
:1010000022222b00f3942b0025fe07000c01be00ca
:10101000d1fd0700e273280083c0230020fe0700f3
:101020000c01be00ccfd070042aa2a00a3e22b005f
:101030001bfe07000c01be00c7fd07000801be0033
:10104000c5fd07000801be0015fe07000a00a70045
:1010500001f0a2004f06be004f05be004f04be00c7
:10106000000006000400200000003700889fbe003a
:101070008a9fbe008c1f78004f26dd0048ff0700c6
:101080004fff33006120e100430032006250e10075
:1010900041003e003e0039006420e1003c00320087
:1010a000058255000f003b000402e80038003a00ba
:1010b000800f5300818f5b00350034000800be00b4
:1010c00003f0a10001f0a60003f0a0000cf0a700bf
:1010d000f3fd070043ff37000603430087834b00ff
:1010e0000c4646000005530081855b00020033007a
:1010f0000a03be000c00a0000402e900f6ff3b005a
:10110000850578000602430087824b0004003a0000
:101110006000b80009f0a70001f0a00031ff37001f
:101120000002520081825a000704e00004003300ec
:101130000603430087834b008b05e900faff370065
:10114000090578000604be000203be006011b80065
:10115000edfe0700e00f5200e08f5a000700350057
:1011600002003c000c08a300040032000601be008f
:1011700003f0a0000cf0a700c9fd07000a85680075
:1011800001f0a1000af0a70001f0a00015ff370050
:101190000800be0013ff3700100220000cf0a6006c
:1011a000107f880013ff3700881f78000004780044
:1011b0005001be004000be00040040008580480091
:1011c0000601490087814900009cbe000294be00d0
:1011d0000400e1000588e1000690e1000798e100c5
:1011e00002003100680044001008e8004f04780055
:1011f00000000600f4874700889fbe008a9fbe005b
:101200008c9fbe008e1f78000205be000004be0049
:10121000d4b79f00e5b79f00f6b79f0087bf9f0038
:101220000000eb00c0b79f00b0b79f00a0b79f00c1
:1012300090b79f0080b79f000d042000bfb09700bb
:101240004fb09700000140000000e0000f003d009b
:101250004f08de0000007100c0b79f009e0007002d
:1012600001003d0012002000a100070001003d0028
:1012700012002000a6000700b1000700b60007001a
:101280000f004000c8ff0700220037004f08de00b3
:1012900000067100ccb79f008f00070001003d00e1
:1012a000120020009200070001003d001200200003
:1012b00097000700a20007000fb297009fb29700a7
:1012c0002fb39700bfb39700a9000700000052009a
:1012d00081805a0002015b0083815b0080b79f0020
:1012e00091b79f00a2b79f00b3b79f000007eb0024
:1012f0009f0007000020e10001a8e10002b0e1002a
:1013000003b8e100010031001e0020000e0056006d
:10131000c0b79f004fb297000400e00007003500ff
:1013200010002000010020006011b80008047000c7
:10133000898470000a0571008b8571008d06e900b3
:10134000beff3a000400e00003003d0082000700f9
:101350000f00400094ff07004fa897000000e00036
:1013600004003a000fb497009fb497002fb5970080
:10137000bfb59700940007004f0778004f06be00e6
:101380004f05be004f04be004f01b1000000060033
:10139000881f780018002000881f780095ff07003c
:1013a0008f87e9004f04780000000600801feb00e3
:1013b00090ff07008f87e90000000600889fbe00ad
:1013c0008a9fbe008c1f78006e00070007003d005a
:1013d00073000700e00f5b00e08f5b0007003d003b
:1013e000320007000006eb0004003700340007005d
:1013f00002003d002a0007001c00200072000700c8
:10140000e3ff07000203be000002be000c00e00084
:1014100001003200220007000400be000601be00e9
:101420004f0678004f05be004f04be0000000600c6
:10143000889fbe008a9fbe008c1f78005100070065
:1014400005003d0056000700e00f5b00e08f5b00e9
:1014500006003d00040037001900070003003d00ae
:101460006000b8006011b8001000070056000700c7
:10147000ceff07000203be000002be000c00e00029
:1014800001003200060007000400be000601be0095
:101490004f0678004f05be004f04be000000060056
:1014a0006000b8006011b80000003700040250006e
:1014b0008582580006035900878359000000060002
:1014c0000006eb00e00f5200e08f5a00e00f5b00d7
:1014d000e08f5b00000006000180400090b79f0095
:1014e0000001eb008fb097000100e0000000060053
:1014f0000200700090b79f000180400080b79f00fd
:101500000001eb00ffa897000100e00000000600ca
:101510000200700080b79f00018040006faa970012
:10152000cf20de0001007000f0af9f0004024200f7
:10153000250007004f18de000002720000000600c0
:10154000e4af9f000804440089844c000a054d0064
:101550008b854d00000006003fb29700cfb2970088
:101560005fb39700efb3970000fe2f000000060066
:101570003fb09700cfb097005fb19700efb19700f1
:10158000000006000205be000004be00e00f50008f
:10159000e08f5800e00f5900e08f5900000006006e
:1015a0006000b8006011b800080450008984580039
:1015b0000a0559008b8559001c002000e00f5200dd
:1015c000e08f5a00000006000800be000a01be00bd
:1015d000000006002800fa00889fbe008a9fbe0017
:1015e0008c9fbe0003866b000c0207000028a3003e
:1015f00064003a000128a30067003a000008a30035
:1016000062003a000108a30065003a001e00900045
:10161000be08900081064000ed3fb100f480570005
:10162000ee019000111ab8008e099000311bb8002d
:101630009e099000311cb800511db800f485570078
:1016400046000700fe0190003a0007008b85e80085
:101650003e0007008e09900040000700ee01900058
:10166000340007008b85e800380007008e099000e1
:10167000400007009e0990001b18b8008904400034
:101680000a854800fe019000340007008b85e800c1
:1016900038000700ee019000300007008e0990002e
:1016a0001b18b800890440000a8548000a98a30066
:1016b00008003a000402420085824a0006034b00fb
:1016c00087834b0008044c0089844c000a054d00b8
:1016d0008d06e90084827200850273004c3add00b9
:1016e000850272000100320015002000443ade003d
:1016f0001400b2004538de00cb45dd000b00700061
:10170000c540de00cb4ddd008b8070004549de001a
:10171000cb55dd000b017100c551de000d037800d3
:10172000d701070003f0a1000cf0a70003f0a00010
:10173000ce0137001b18b800850240000683480020
:10174000e0834b0060044c00070037001b18b80012
:101750000603400087834800faff37001b18b800d3
:101760008703400008844800e0844c0060054d0079
:10177000000006001b18b8000804400089844800d7
:10178000faff37000108a300b5013a005800be0077
:101790005801be00e3ff37000008a300b0013a0083
:1017a00009047800f9ff37008103780094fd0700f1
:1017b0000001be006000b8000478a30013003a00e6
:1017c0006220e10015003e000d0039008301d100c8
:1017d0000281d3008180d3008301d1000281d30034
:1017e0008180d3008301d1000281d3008180d300a6
:1017f0000538b000c42add00f300b2008381720016
:1018000007f0a70003f0a00000000600f3ff270088
:10181000f2ff2f006110b900fbff370003ff270024
:10182000f7ff37008f1fd100c10107008f87e90044
:101830000000e00000000600801feb00bc01070074
:101840008f87e9000000e000000006001400fa00a5
:10185000889fbe008a9fbe008c9fbe000005be0010
:101860000206be00680047000c90be000a90be0051
:10187000d80107006400e1001a00320016003e00a3
:101880006100e1001a0032006e049000fe04900036
:101890000e0b90009e0b90006011b8009e0590000a
:1018a0000b38b100d5012000828171006101640014
:1018b0008703d1000683d3008984d3000884d30032
:1018c0008502e900f8ff3a000ffd07000df0a700c0
:1018d00001f0a00065013700f1ff2700f0ff2f00a5
:1018e0006201370001f8270000002000f7ff3700f1
:1018f0006000b800f5ff3700dd010700050978003a
:1019000000000600809feb00890107008f87e90037
:101910000000e000000006002800fa00889fbe00da
:101920008a9fbe008c9fbe000706780087866900ec
:101930000c003b00030478008704780008f0a10045
:1019400009f0a100840f5000858f5800860f5900c0
:10195000890f5c00030033000cf0a20001003a0084
:101960000cf0a1002d0107006400e1005f003200cf
:10197000780147006408e100610032006c01470013
:10198000748557003200be001201be003a04be004a
:101990001a05be001e039000be0a90008503530086
:1019a00006003d000004fd008104fd000205fd006d
:1019b0008305fd008703ea00050378000df8a30006
:1019c0000400320060041400e0841c0060051d0067
:1019d000e0851d006022b8007d0320000d38e10085
:1019e0008006eb000b0039004433dd00f300b20049
:1019f0008301730039003700848272000d02780081
:101a0000e10664008b85d1000a85d3008984d30068
:101a10000884d3008703e900f7ff3b00080040007b
:101a2000898048000a0149008b81490004003b007d
:101a300060001000e080180060011900e0811900ca
:101a40000358a300090032008d8272008482720064
:101a5000610260008301d1000281d3008180d30044
:101a60000080d3000603e8001b0037000348a300f2
:101a700017003a000600e000170034000603e900f2
:101a80000d00a300000048008180480002014900c9
:101a9000838149000348a3000f003a000600e000dc
:101aa000090034000603e90000004000818048007e
:101ab000020149008381490001003a000003eb0064
:101ac0000348a300f5ff32006022b800020037008f
:101ad0008482720061826600e900070003f0a100c1
:101ae0000cf0a70003f0a000e000370064014700fd
:101af0006408e10002003a000df8a300d8003a00a3
:101b00003200be001201be00d80037001400fa00f7
:101b1000889fbe008a9fbe008c9fbe000004be004e
:101b20000205be00680047000a90be000890be0093
:101b3000280107000070a7000bf0a1000bf8a3001c
:101b400020003a009e0990000e099000fe009000cf
:101b50006e0090009e029000344320008482520068
:101b6000c20032000a003c00b4fc2f000428e1004f
:101b7000140034008301d1000281d3008180d3009e
:101b80000080d3008502e800faff3a00b700370072
:101b9000b40020000428e10007003c0000004000e1
:101ba0008180480002014900838149008502e900e3
:101bb000faff3a00ad0037000300280002002000c1
:101bc000010037006011b8006000b800a7003700be
:101bd0002800fa00889fbe008a9fbe008c9fbe002e
:101be00003866b008d0007006400e10044003200b2
:101bf0006408e1004a0032006100e1004600320062
:101c00006108e10049003200ec0647006000b800be
:101c10003d02be003d03be00f48657006011b800cf
:101c20003d04be003d05be007d0320000b003700d3
:101c30000000a0008d06e9001300320004024200fb
:101c400085824a0006034b0087834b00000040005a
:101c50008180480002014900838149000802520046
:101c600089825a000a035b008b835b00f0ff3b0014
:101c70000802420089824a000a034b008b834b0012
:101c80008d06e900edff3a008482720086827200c0
:101c9000f707b200878272000100320015002000b1
:101ca0001e0490003e0b900006035400e63fb00077
:101cb0000368a300070032000000a7000500a00091
:101cc0008301d1000281d3008180d3000080d30042
:101cd0000603e8008301d1000281d3008180d30094
:101ce0000080d3000002eb000482d20064000700f1
:101cf00003f0a1000cf0a70003f0a0005b00370088
:101d0000640247006408e100550032003400be0060
:101d10003401be00f6ff37006108e10050003200d8
:101d20006011b8006000b800f1ff370003ff270022
:101d300002002000fbff3700889fbe00830478006c
:101d40000300e0002c00350003003c00008270001e
:101d5000040271002600320036432000c500200036
:101d60008383cf000a0039000541b1008283cf0090
:101d7000070039000541b1008183cf00040039001c
:101d80000541b1008083cf00010039000541b10059
:101d900085c353006022b800120032000a003b00e5
:101da00084827200610260008301d1000281d3004d
:101db0008180d3000080d3000603e8008743e80059
:101dc000f7ff3a000700370000004000818048001c
:101dd00002014900838149000603e9008743e900c5
:101de000f9ff3a002600070009f0a70003f0a00061
:101df0004f04be000000060060001000e0801800e4
:101e000060011900e0811900d3ff3b00033e2c0064
:101e1000f7ff370007f0a200bffe37006804470055
:101e20000294be000094be00fc0447008694be00ed
:101e30008494be000900780066000700080078005e
:101e40006400070099007800814f70000b003b0090
:101e50000800be00930007004f00b10003003700e8
:101e6000f3ff2700f2ff2f006110b9004f06be00fc
:101e70004f05be004f04be000080fa0000000600bf
:101e80001800200057002000080453000d003d00fa
:101e90000600200097fc2f000740e1001e003400e0
:101ea00084827200610260008301d1000281d3004c
:101eb0008180d3000080d3000804e800f8ff3a00d6
:101ec00047002000610460000504740004046400fd
:101ed0000d00320061004000e080480060014900d0
:101ee000e081490003b8a500070032000603e800be
:101ef0006538e10004003a008301d1000281d3007b
:101f00008180d3000080d300f87f20000830e100fa
:101f100003003500080378006000b8006011b800c5
:101f20004433dd00f300b2008301730000000600bb
:101f3000889fbe008a9fbe008c9fbe000404be0026
:101f40000605be00809fbe00829fbe0063000700a2
:101f5000040678000800be000a01be005f0007000a
:101f6000840678004f03be004f02be008d4f7600fe
:101f70007fb0970013003300f0ff2f008b8f6b00b2
:101f800006003b000d0666000c00a7000a003700a3
:101f900007f0a600100020000a003700880f52004a
:101fa000898f5a008a0f5b008b8f5b00030039001a
:101fb0001000200001003e000000200007f0a700f4
:101fc0000000ea004f06be004f05be004f04be00f1
:101fd00000000600800078005002be005003be00e2
:101fe0004439de00f700b200f37f200003016100f6
:101ff000090032000218e10016003a008501720063
:1020000083017300838173000008200015003a00eb
:102010004000200013003700850172008301730027
:102020008381730005003a0004a8be0006a8be0024
:10203000100020000b0037000201e90004024200fa
:1020400085824a0006034b0087834b000748a300a4
:10205000f9ff32000740a00004a8be0006a8be0099
:1020600020002000800098009200980000000600e8
:102070000003be0062fb07006220e10002003200a4
:102080000600be0005000500e507b100f107b2003b
:1020900004f023008480700007f0a70001f0a00086
:1020a00024000500e48240001078a30007003200fd
:1020b000640240001178a3003400be001401be0089
:1020c000040032000330a700000006003500be0007
:1020d0001501be000330a0000000060005ff270028
:1020e00005826100070032000428e100010032008f
:1020f000240005000600070001003a004400050026
:102100000408050002000700f9ff3a00140005006a
:102110006f82610081027000850271008502720089
:1021200000000600800078003004e000feff3a0066
:10213000010050000000e900000006000c00fa0059
:10214000889fbe0000047800cfb09700f0ff270002
:10215000d0bf9f008004eb0099bf9f0088bf9f0005
:10216000a8bf9f00200c2000b0bf9f0078815700bf
:1021700070805700280107000fb8970009487800c1
:102180000fb8970008045000080078004f04be0004
:102190000080fa0000000600889fbe008a9fbe00f3
:1021a0008c9fbe0000017800c12321001100e000d7
:1021b0000b003a0000242100e0918800c0918800c3
:1021c00001928800d1918800214090000004a00075
:1021d000a0409800614090000004a000e0409800fa
:1021e000e7004100c208de00c20cdd00d49180008f
:1021f0008d262100804621000d0550002200200080
:10220000811f7800110009000205d800000678003f
:10221000cf007800c308dd00e48540008001eb00ba
:1022200086262100c5232100010037000102780025
:10223000244090000008a300020032000a0037008a
:10224000110a780094007800214090000008a30053
:10225000fbff320009014200828f5000020039006a
:10226000840f51004600310094007800848f5000a4
:10227000eeff3e00868f500002003900858f50002f
:10228000eaff3900c0918000800f52004f003a00f1
:10229000858f50004d003a008301e800e18f510026
:1022a000e2ff36008c8f5400040036008a8f540001
:1022b000020031000b04780012003700614ab800b8
:1022c0006151b900b0ff2f00010020000200500052
:1022d00083805800800f5200818f5a000200350021
:1022e00009047800070037000d805400b246210031
:1022f00002004000110009000a80d8000a80b900dd
:1023000000047800080078000ff8070080017800ca
:10231000e10f40002d003200c091800003087800da
:10232000c291800064004100a2409000808f510063
:10233000020032000104a000010037000104a100e6
:102340002141980008804100640050008009780015
:10235000c0918800c223210002087800c19180004a
:10236000214090000004a000a0409800234090006d
:102370000004a100a041980002027800a7ff3700e6
:10238000d2918800828f50000900360092007800b8
:1023900060232100a241900003487800a1918800a9
:1023a000140978008040eb00d09180002140980013
:1023b000d0918000000a7800244090000004a00022
:1023c0002042980064004200010037000000eb004a
:1023d0004f06be004f05be004f04be0000000600c1
:1023e00064005000d0918800a04090000104a1003a
:1023f0002140980000000600889fbe008a9fbe0012
:1024000000057800e401500013001000c285de00d2
:10241000234090000008a30004003200d3918800fc
:10242000234090000004a100a04198000100780022
:1024300059ff0700000478000000e0001700320098
:102440008a0f50001500320060b897000800500055
:10245000c284de00898f55000100360089057800ae
:102460004259dd008a0078000800780068050700fe
:102470008a0f5400090031004248dd00000044008a
:102480008a0f5000050036000a005000000044008a
:10249000a2918000b39180000288be0008007800fd
:1024a0004f05be004f04be00000006000004780087
:1024b0005e05070008007800b9f70700889fbe0096
:1024c0008a1f7800804078000004e00021003d0071
:1024d0008040ea00d0c6b30080cf5000090034002d
:1024e0008104fb0042062000110009008204d8008c
:1024f00000017800010078004311dd004afe200051
:102500001f0037000100fb0043fe200039003700a8
:10251000a2002000110009000200d800000178008c
:10252000010078004311dd00030141004300dd009c
:10253000030040003002be002003be004220900095
:10254000d2209000f22190006221900021fc07002f
:102550002e003700d0c6b30080cf500023003400d7
:102560008104fb0042062000110009008204d8000b
:1025700000017800010078004311dd004a092100c4
:102580000a014100a8002000110009000800d8003d
:102590004300dd000a00400040229000d02290005d
:1025a00060239000f02390000288900092889000b1
:1025b000b28990002289900006fc0700801f7800f5
:1025c00001027800110009008804d8000102fd0012
:1025d0004f0078000402fb004322dd000a024200a3
:1025e0005403be004402be00d8ff37000100fb00c8
:1025f00043092100eacf5000c5ff3c004300dd0045
:10260000030040005001be004000be004f057800ae
:102610004f04be00000006008f03b000889fbe007c
:102620008a9fbe008c9fbe008e1f7800e0b79f007f
:10263000f1b79f0082bf9f000000eb00a0b79f0092
:10264000e60437008001eb0050c2b30080cf500099
:10265000090032000100fb00efb097000105070000
:10266000e10f4000dd043200afb097008100e800c8
:10267000a1b79f00d90437007fb19700924078003e
:10268000d0c2b30080cf50000c00320007003c00e5
:102690006d40500080cf50000d0032006b40400074
:1026a00080cf500019003a000e00370000c3b3007d
:1026b00080cf500015003a000f0037000330a00013
:1026c0007fb297000402e800f4b79f00eaff3700ea
:1026d0000300a000ffb297008502e800f5b79f0055
:1026e000e5ff37000310a0007fb697000c06e80056
:1026f000fcb79f00e0ff37000320a0007fb09700e9
:102700000000e800f0b79f00dbff37000318a300cc
:10271000010032000300a1000338a30001003200d1
:102720000320a1000100fb0002fd2f000200400079
:10273000e90f500010003e008000eb00c1b79f0081
:10274000020278004fb197006a10b900ffb29700fb
:102750001501fb000001410004014100c2b79f00c8
:102760005500fb00f5b79f0004004000e90f500042
:102770000d003e00f3ff37000006eb00ccb79f00d2
:10278000a0c2b30080cf500007003a000fb89700f6
:10279000c000780080bf9f00c1b79f007fb1970045
:1027a0000201e800f2b79f00e0c2b3007fb29700d9
:1027b000944f100021003a00830678000de0a0003d
:1027c0008400e80064405000914f10000400320083
:1027d000f1b79f008002eb00b5b79f0010003700f3
:1027e0000fbe97004c0078008cbf9f00b0b79f00d1
:1027f000ffb097008180e800f1b79f001300370019
:102800003fb297006a20b900000041000300400079
:10281000b0b79f00ffb297008502e800f5b79f00b0
:102820007fb697001c01fb0003fd2f000300410051
:10283000e90f5000f2ff36000400370083067800ed
:102840000dc0a0000000eb00b0b79f007fb1970063
:10285000b2407800f2b79f00c17f9f00c0c6b300ae
:1028600080cf50002700320014003c006840500028
:1028700080cf50009d00320009003c006c405000a9
:1028800080cf5000290032006b40400080cf5000c4
:10289000720032000104e000560432008e0037005e
:1028a00060c6b30080cf50001c003200634040007f
:1028b00080cf500088003a008c00370030c7b3004a
:1028c00080cf50001c00320007003c0064405000e4
:1028d00080cf5000130032000040e80080cf50004d
:1028e0007d003a001100370050c7b30080cf500080
:1028f0007d0032006340400080cf500076003a00f7
:102900000b003700000028000d48a30001003a002a
:102910000001200080867600ccff37000da0a000cb
:10292000720037000d60a000700037000d50a0004d
:102930000d70a0006d0037008fb99700430078003c
:1029400083bf9f00000478000000e00001003a000f
:10295000481e21008004eb00010037008104e800dc
:1029600089007800088044001004e000fbff3a0072
:102970003fb297000400e00003003200890f5200cc
:1029800001003100840478000007eb00cfb297000b
:10299000898f520001003600098752004368de002b
:1029a000e106600019003a000d06780009003700c2
:1029b000efb09700000220002a040700e10f40005a
:1029c000030032002fb097000000e800a0b79f007e
:1029d0000c06e8008e0f5600f5ff3a000087eb006a
:1029e0000a003700880078003100fb0001047800fd
:1029f000efb097001b040700e10f40000300320016
:102a0000afb097008100e800a1b79f000900e9007e
:102a100080047800e10f4000f2ff3a000006eb006e
:102a20000d00e0000a003a00ec033700efb0970019
:102a3000000220000b040700e10f400003003200f9
:102a40002fb197000201e800a2b79f000c06e80032
:102a50008e0f5600f5ff3a00e00337008fb997005c
:102a60004300780083bf9f00cf80de000101780023
:102a7000820178000205be000004be000203be0011
:102a80000002be004822de00482edd00040276006f
:102a9000c47f9f000d48a3000a0032000404e00038
:102aa00008003200e14f420006003200d1fb2f0047
:102ab0000180470004487800184098002900200051
:102ac00002003700d07f9f0019002000d2fb2f00aa
:102ad00002844700a6ff3700c3fb2f000384470092
:102ae00019002000a2ff37000d0cb3000070200079
:102af00000826600270232000dc8a30002003200e7
:102b000064002000b4b79f000d48a3000500320008
:102b10000fba97004401be004400be0084bf9f006e
:102b2000040037008fba97004500be0085bf9f00a4
:102b30001dfb0700e0af9f00f1af9f0082b79f0031
:102b400093b79f006022b8006033b8006fa8970069
:102b5000ffa897000fb197009fb1970031fb0700c6
:102b60000000e0000a003d006fa89700ffa8970052
:102b70000fb197009fb1970003f0a200e0af9f0054
:102b8000f1af9f0082b79f0093b79f003d00b30055
:102b90000000eb0080a79f006022b8006033b800ff
:102ba0006fa89700ffa897000fb197009fb19700fb
:102bb00021fb07000000e000340032006fa89700fe
:102bc000ffa897000fb197009fb197001ffb070068
:102bd00003fc2f000381470047fb07000fa097006d
:102be0000000e9006300b900a20020001100090004
:102bf0000200d8008000fd0081a79f000100e000d6
:102c000002003d000100e90080a79f000fa497008b
:102c10000840ea0029fe07006faa9700ffaa970064
:102c20000fb397009fb397006afa0700a0af9f0009
:102c3000b1af9f00c2af9f00d3af9f006022b8002a
:102c40000600200007ff2300f6fa07000000e0005e
:102c500002003d000800e9000b0037006022b800c8
:102c600006002000470224002fa89700bfa8970065
:102c70004fa99700dfa9970022fb07000000e000a2
:102c8000020035000800e80080a79f003fb29700cf
:102c9000f80f520057003c00d0c6b300804f5200de
:102ca000290036000485fb004206200011000900bf
:102cb0000285d80000017800010478004311dd008e
:102cc0004bfe20000b0141006022b80006002000ee
:102cd00007fe23000288900092889000b28990003d
:102ce000228990003bfa0700a9002000809fbe00c7
:102cf000110009000984d800000478004f00be00cc
:102d00004344dd000b04440048229000d822900088
:102d100068239000f82390002efa0700801f7800a7
:102d200001027800110009000985d8000102fd00a8
:102d30004f0078004322dd000b0242005403be0026
:102d40004402be001f0037000480fb0049fe200043
:102d5000ea4f520014003600a200200011000900c2
:102d60000280d80000017800010478004311dd00e2
:102d7000090141006022b8000600200007fe230080
:102d800042209000d2209000f22190006221900019
:102d900010fa07004344dd00090444003802be0075
:102da0002803be00070037004300dd000900400093
:102db0006022b8000600200007fe23005001be007c
:102dc0004000be0003fa07000002be000203be007e
:102dd0006fa89700ffa897000fb197009fb19700c9
:102de000cdfa0700e0af9f00f1af9f0082b79f00d0
:102df00093b79f000fa49700e90f540015003c0003
:102e00006022b8006033b8006fa89700ffa8970051
:102e10000fb197009fb1970087fa07000000e0000c
:102e2000320032006fa89700ffa897000fb19700fb
:102e30009fb1970035fb0700e00f5000e08f58006e
:102e4000e00f5900e08f590028003a00e10f5400cc
:102e5000260034000400200005002e00b6e0220009
:102e6000170124002fa89700bfa897004fa997002b
:102e7000dfa997006bfa07000000e00002003d00a8
:102e800073005400010037007200540080a79f00b7
:102e90000fc0970089fd0700a0af9f00b1af9f0052
:102ea000c2af9f00d3af9f000002be000203be006e
:102eb0006fa89700ffa897000fb197009fb19700e8
:102ec00043fb070011fb07000205be000004be0023
:102ed0006000b8006011b800a0a79f00b1a79f00d4
:102ee000c2a79f00d3a79f002e0037006fa89700ae
:102ef000ffa897000fb197009fb1970003fb070051
:102f00000205be000004be00e00f5000e08f580034
:102f1000e00f5900e08f59000200350086fb0700e2
:102f20001300370010002000010020006011b800dd
:102f300008006000898060000a0161008b816100e7
:102f40008b03d1000a83d3008982d3000882d30087
:102f5000000072008180720002017300838173009f
:102f600075fb07000002be000203be006afa0700fc
:102f70000002be000203be006fa89700ffa89700e2
:102f80000fb197009fb19700a2fb0700a0a79f0079
:102f9000b1a79f00c2a79f00d3a79f000000eb002e
:102fa00080a79f0014c0b300451421000b00370018
:102fb0000400fb004300dd00050040005001be009e
:102fc0004000be000040e10001c8e10002d0e10085
:102fd00003d8e100030039000442e800f44f520036
:102fe000f3ff3a00c47f9f000400fb00bfb09700ce
:102ff000008040008fa09700010040004fb1970073
:1030000000075100bfb197000300e000010032004b
:103010000e07e90063806600010032000e07e90038
:103020000d28a30026003200e18066000d18a300e1
:103030000c003200d00220000100e00001003a0044
:103040000080e900efb0970086020700e10f400022
:10305000180032002fb297000402e800a4b79f00c6
:10306000140037000100e00012003200efb09700ba
:10307000000220007b020700e10f40000d0032003b
:10308000afb297008502e800a5b79f00090037009e
:10309000efb097000003200072020700e10f40002c
:1030a000030032002fb697000c06e800acb79f0073
:1030b0000e07e9000e00e000f5ff3c003d00370080
:1030c0000d38a3000a0032000b003700efb0970064
:1030d0000002200063020700e10f400003003200fd
:1030e0002fb097000000e800a0b79f000e07e9008e
:1030f0000e00e000f5ff3c00e18066000d18a30023
:103100000c003200d00220000100e00001003a0073
:103110000080e900efb0970052020700e10f400085
:1031200024003200afb097008100e800a1b79f00f3
:10313000200037000100e0001e003200efb09700d1
:103140000002200047020700e10f40001900320092
:103150002fb197000201e800a2b79f0015003700c9
:103160000000fb004300dd0041142100010040008d
:103170003002be002003be000800be000a01be00ef
:1031800083f80700a4002000050020006033b80089
:1031900086f807000003b000efb097003102070087
:1031a000e10f400003003200afb197008301e80057
:1031b000a3b79f004f7a97000440e900c07f9f00ab
:1031c000e14f4000e6ff3a000b003700efb09700f8
:1031d0000003200023020700e10f4000030032003b
:1031e000afb297008502e800a5b79f000fa0970037
:1031f0000000e90080a79f000fa097000000e000fa
:10320000f2ff3c003fb6970020c1b300f20f56001a
:1032100001003c006fe09700c07f9f00cf789700cf
:103220000100fb003fb1970000005100e0a79f00a4
:103230000104e00008003200efb09700e002200037
:1032400008020700e10f400003003200afb1970011
:103250008301e800a3b79f004f78970097fc070011
:103260000002be000203be002fa09700bfa097007f
:103270004fa19700dfa19700d6f8070023fa0700b7
:103280001e0037000000fb004300dd004c1421004d
:103290000c0040003002be002003be000800be004b
:1032a0000a01be003af80700a40020000500200033
:1032b0006033b8003df807000003b000efb097009e
:1032c000e8010700e10f4000030032002fb2970031
:1032d0000402e800a4b79f00cf7a97000500fb0026
:1032e0004300dd000c0040003002be002003be00a1
:1032f0000800be000a01be002cf807000205be004f
:103300000004be004f7e97000c40e900c07f9f0084
:10331000e14f4000dbff3a000006eb0009003700f8
:10332000efb0970000032000ce010700e10f40003e
:10333000030032002fb097000000e800a0b79f0004
:103340000c06e800efa09700810f5600f4ff3a004a
:103350000d38a300a10132000e00e0009f013400ef
:103360000006eb00efb0970000022000bd0107004f
:10337000e10f4000030032002fb197000201e80086
:10338000a2b79f000c06e8008e0f56009301320092
:10339000f4ff37000d007800000cb20028003a005e
:1033a0000d00e00005003d008fb997004305be0009
:1033b0004304be0083bf9f00140037000d48a300e4
:1033c0000b0032000fba97004400be0084bf9f007c
:1033d0004f89de00cf91de000002be0002037800bc
:1033e000820378000605be000404be000700370013
:1033f0008fba97004500780085bf9f0000047800d1
:10340000cfc4de00090578008a057800e00f54007b
:10341000e08f5c00e00f5d00e08f5d0020003d006c
:103420003d00b3006000b8006011b800080450000f
:10343000898458000a0559008b8559001800370007
:103440000d00e00005003d000fbe97004c05be00da
:103450004c04be008cbf9f00110037000d48a30034
:10346000080032008fba97004500be0085bf9f005c
:1034700004017800840178000205be000004be004b
:10348000070037000fbe97004c0078008cbf9f00ec
:1034900000047800090020000a0020000b00200032
:1034a0003fb097000000e00007003a00e00f540032
:1034b000e08f5c00e00f5d00e08f5d0002003a00ed
:1034c00011002000b1b79f000d0778000e0cb2006c
:1034d00000042000800f57002f00320003003c0042
:1034e0000e00e000070032003f0037000008200017
:1034f000800f570014003200000c2000800f57008e
:1035000039003a0014c0b300451421000b00370005
:103510000400fb004300dd00050040005001be0038
:103520004000be000040e10001c8e10002d0e1001f
:1035300003d8e1002b0039000442e800f44f5200a8
:10354000f3ff3a00270037000001200001002000af
:103550006011b80014c0b3000040e10001c8e100f0
:1035600002d0e10003d8e1001e0039004500200030
:103570000000d0008180d2000281d2008381d2007d
:103580008502e900faff3a000442e800f04f5200d9
:10359000f1ff3a00130037008000200001002000f6
:1035a0006011b80014c0b3000040e10001c8e100a0
:1035b00002d0e10003d8e1000a0039003c002000fd
:1035c0000000d0008180d2000281d2008381d2002d
:1035d0000c06e900faff3a000442e800f54f5200f9
:1035e000f1ff3a00c47f9f00cf7897000100fb00f5
:1035f0003fb19700820f500002003d00c27f9f0044
:1036000004003700bfb19700808f510001003d00da
:10361000b0b79f004fb297000400e00004003200f2
:1036200063806600020032000402e900c4b79f0014
:103630000de8a3000b003200cfb297003fb6970011
:103640008c8f520003003c000000eb00c0b79f00cd
:1036500004003700cfb097003fb197008280500040
:10366000c1b79f00cf7997000300fb000002eb0079
:1036700094a79f00cfb29700808f520002003400c1
:103680000080520090a79f000d28a3003700320051
:10369000e18066000d18a3000c003200d00220006b
:1036a0000100e00001003a000080e900efb097005f
:1036b000ec000700e10f40000e0032002fb697002b
:1036c0000c06e800acb79f000a0037000100e000dc
:1036d00008003200efb0970000022000e100070070
:1036e000e10f4000030032002fb097000000e80017
:1036f000a0b79f009fa097000100e0000f003200dc
:103700000006eb00efb0970000032000d500070093
:10371000e10f4000030032002fb197000201e800e2
:10372000a2b79f000c06e8009fa19700830f5600e8
:10373000f4ff3a000002eb0094a79f00bfb297008d
:10374000c328dd00c01321008080400091af9f009e
:103750004228dd006400500080af9f006328b9005c
:10376000f0a79f0063065000820037001fa6970055
:103770000c00e00011003200688066000f003a0083
:1037800000067800efb0970000022000b5000700a7
:10379000e10f4000030032002fb097000000e80066
:1037a000a0b79f000c06e8009fa09700810f56006d
:1037b000f4ff3a000001eb0092a79f00e180660051
:1037c0000d18a3000c003200d00220000100e00020
:1037d00001003a000080e900efb09700a100070067
:1037e000e10f4000d5ff3200afb197008301e80040
:1037f000a3b79f00d1ff37000100e000cfff3200e8
:10380000efb097000002200096000700e10f400093
:10381000caff32002fb297000402e800a4b79f004d
:10382000c6ff370000042000800f57003000320030
:1038300003003c000e00e000070032003d003700ae
:1038400000082000800f570011003200000c2000fb
:10385000800f570037003a001fa897003002be00c3
:103860002003be000800be000a01be00c8f6070023
:10387000a4002000050020006033b800cbf607004c
:1038800004c3b30004424000c47f9f0029003700f6
:10389000b51e2100d5b79f000d58a30002003a00c5
:1038a000c01f2100d0b79f00140020000500200099
:1038b0006033b8008fa897008100e900050033004d
:1038c0000402d0008582d2000683d2008783d20012
:1038d000f9ff37000800be000a01be00acf6070081
:1038e0006f0060005fb19700624078001000370001
:1038f00014002000050020006033b8008c0178001f
:103900008301e900050033000402d0008582d20063
:103910000683d2008783d200f9ff37000800be007b
:103920000a01be009af60700674060000043b0003d
:10393000c07f9f004f7a97000400fb00efb0970014
:1039400048000700e10f400003003200afb29700cb
:103950008502e800a5b79f001fa8970068005000e7
:1039600090af9f008fa89700e480500081af9f0028
:1039700063065600d0ff2f003fb197000090b900ba
:10398000ffa197000080410063005000800f5600a7
:10399000a4ff3a000d38a300100032001fa29700c8
:1039a0000400e0000d0034000006eb00efb09700cb
:1039b000000220002b000700e10f4000030032004e
:1039c000afb297008502e800a5b79f000c06e8009b
:1039d0001fa09700800f5600f4ff3a007fb19700b8
:1039e000b2407800f2b79f00c17f9f000104e00061
:1039f00014fb3a002fb097004f0778004f06be0027
:103a00004f05be004f04be008f03b100000006004a
:103a10008001eb000200370061f079008301e800cb
:103a2000828f5100fcff3a0000000600881f7800da
:103a3000f09280000000e000010032000000010070
:103a400008212100080078004d0007006c044400a4
:103a500040232100800f5400faff3a004f04780001
:103a600000000600889fbe00000178000104780075
:103a7000b10090000118a3003d0032000198a3009e
:103a800003003a00180090000000e00038003a00ff
:103a90000190a0003104980082047800f90fb20070
:103aa000180090000000e00002003a00280090009a
:103ab000000c7800ea8f540006003a0038009000ad
:103ac0000078a30003003a0088007800d0002000ae
:103ad000e4ff07009800900058009000808f50008d
:103ae0000b0032000100e800100498001800780074
:103af00009587800000c780011c0b300402521005f
:103b000001487800ea8f540006003200190037009f
:103b10008800780009407800510007008004780090
:103b200014003700380090000088a3001100320014
:103b300018019000a80090004800900020f20700b3
:103b400098009000810f500004003200380090006f
:103b50000003b300300498008084eb000000eb0009
:103b60001004980028009000000c78000100370035
:103b70008084eb00090078004f04be0000000600be
:103b8000889fbe008a1f78000004780030009000f3
:103b90006300600024003200080078007300070012
:103ba0003805900080ef2f00000065003004980079
:103bb000280090000000e00004003200e8046500e6
:103bc00002003a00a2000700290498004800900073
:103bd00032f20700e10f400013003200b8009000fd
:103be0000102b20010003a000ac8a3001800320017
:103bf000109380000000e000150032000001780002
:103c000081047800012a200012289000880f5000bb
:103c1000070032004205b0004905b000818f540012
:103c20000b003200f8ff37000080eb00090037007e
:103c30000200780022f20700109380000900400083
:103c40008000eb0011289800010078000100370087
:103c50000000eb004f0578004f04be000000060096
:103c60000200fa00889fbe00a0ff9f0001047800b8
:103c7000b1009000810478000904b2000200320013
:103c80000000fb00360037000118a30005003a00d1
:103c90000103b30031049800190498000080eb0080
:103ca0002f003700580090000000e00006003a00a6
:103cb0004800900012002000e6805700c0f1070085
:103cc0001904980024003700280090000000e0004c
:103cd00008003a000025210020049800000c78001c
:103ce0002000200050049800100498000130a0002b
:103cf0003104980018019000a8009000480090003e
:103d0000aff1070028009000000c78000080eb0065
:103d10001004980018007800aff897000158780058
:103d2000000c78002ff89700ea4f50000a003a0084
:103d3000380090000088a3000700320018019000ae
:103d4000a8009000480090009df107001904980019
:103d5000a8009000010c7800aff897000100fb006c
:103d60004f04be000080fa0000000600881f7800a3
:103d700000047800300090000008a3000700320023
:103d8000800078000120b20004003a00110498007d
:103d9000a8009000010c7800170037000018a3005d
:103da000190032000098a30017003200a80090000c
:103db0000100e00014003200180190000200e00051
:103dc00011003200480090007df10700980090003b
:103dd000810f500003003200380090000003b30050
:103de000300498000000eb001004980028009000b8
:103df000000c7800380090000058a3000200320048
:103e00000080eb00010037000000eb004f04780059
:103e100000000600019380000100e0000300320072
:103e20001100780000938800030037002000200074
:103e300045f1070080007800e18f400002003a0061
:103e4000906e2600107f88000100780000000600b8
:103e500001938000010878000093880000000600ac
:020000040000fa
:10000800a0010000a0010000a0010000a001000064
:10001800a0010000a0010000a0010000a001000054
:100028007a470000a0010000a0010000224700005c
:10003800a0010000a0010000a4430000a0010000ee
:10004800a0010000ba4b0000fa4a00000e3300007d
:10005800a0010000a0010000a0010000a001000014
:10006800a0010000a0010000a0010000a001000004
:10007800a0010000a0010000a0010000a0010000f4
:100088003c4c00005a4b0000a0010000a0010000f9
:10009800a0010000a0010000a0010000a0010000d4
:1000a800a0010000a0010000a0010000a0010000c4
:1000b800a0010000a0010000a0010000a0010000b4
:1000c800a0010000a0010000a0010000a0010000a4
:1000d800a0010000a0010000a0010000a001000094
:1000e800a0010000a0010000a0010000a001000084
:0800f800a0010000a0010000be
:020000040000fa
:10010800a0010000a0010000a0010000a001000063
:10011800a0010000a0010000a0010000a001000053
:100128007a470000a0010000a0010000224700005b
:10013800a0010000a0010000a4430000a0010000ed
:10014800a0010000ba4b0000fa4a00000e3300007c
:10015800a0010000a0010000a0010000a001000013
:10016800a0010000a0010000a0010000a001000003
:10017800a0010000a0010000a0010000a0010000f3
:100188003c4c00005a4b0000a0010000a0010000f8
:10019800a0010000a0010000a0010000a0010000d3
:1001a800a0010000a0010000a0010000a0010000c3
:1001b800a0010000a0010000a0010000a0010000b3
:1001c800a0010000a0010000a0010000a0010000a3
:1001d800a0010000a0010000a0010000a001000093
:1001e800a0010000a0010000a0010000a001000083
:0801f800a0010000a0010000bd
:020000040000fa
:103e6000b81e0000053e00000000000020410000d8
:103e700000000000000000004172000072690000b4
:103e8000766500002064000065730000746900001e
:103e90006e610000746900006f6e00002c2000004d
:103ea000737400006f700000210a000000530000ce
:103eb00065740000746900006e67000020730000e4
:103ec00070650000656400003a2000002564000071
:103ed0002009000020250000640a0000003d0000c9
:103ee0003d3d00003d2000005245000041440000df
:103ef000592000002d2000004952000020540000ed
:103f000045530000544900004e470000203d00008a
:103f10003d3d00003d0a00000a0000003d3d00005c
:103f20003d3d0000204c000065610000646500001c
:103f3000722000003d3d00003d3d00000a0a0000e7
:103f400000420000726f00006164000063610000c5
:103f500073740000696e0000672e00002e2e0000b2
:103f6000002e0000003d00003d3d00003d2000000f
:103f7000466f00006c6c00006f77000065720000f7
:103f80002c200000706f0000734600006f7200006c
:103f90006d610000746900006f6e0000203d00003c
:103fa0003d3d00003d0a00000a000000526500008f
:103fb000636500006976000065200000616700000d
:103fc000656e000074200000256400003a200000a7
:103fd0006469000073740000616e00006365000096
:103fe0003d250000662000000920000064690000f3
:103ff0007265000063740000696f00006e3d000090
:1040000025660000200900002072000065630000a2
:1040100065690000766900006e6700005365000066
:104020006e7300006f7200003d250000640a0000fe
:1040300000410000727200006976000065200000f7
:104040006465000073740000696e00006174000014
:10405000696f00006e2c000020730000746f000078
:1040600070210000003d00003d3d00003d200000ab
:10407000466f00006c6c00006f77000065720000f6
:104080002c200000766500006c6f0000466f000079
:10409000726d000061740000696f00006e20000006
:1040a0003d3d00003d3d00000a0a00000000000008
:1040b000256c000064000000256c00006600000014
:020000040000fa
:1040c0000000fa00e6c2bf000080fb004600de00f0
:1040d000614060000081fb00e7c2bf000080fb0080
:1040e0000000d100614060000080fb000000400043
:1040f00080007800e7c2bf00614060000080fb00e4
:10410000008040000000400080007800e6c2bf0050
:104110000080fb004700de000080fb0000804000c4
:1041200000004000000041000080fa00000006008e
:104130000000fa00c0f98400d1f9840065f107009d
:10414000360d0700c0f98400d1f9840061f1070041
:104150006f0d07000080fa00000006004c01fa0015
:10416000889fbe008a9fbe00c81320000e04440032
:10417000000c780011049800220498003304980081
:104180004404980055049800660498007704980049
:10419000c01320000e0040001000be00e10f5000d0
:1041a00079013a00c01320000e004000b0009000da
:1041b000200090006027980071279800c01320000d
:1041c0000e004000d0009000400090004027980072
:1041d00051279800a2fd2000930424004e20900057
:1041e000de2090000bf207000000e00001003c0020
:1041f0000c003700e0d12e00f10a2400202f980097
:10420000312f9800a2fd2000930c24004e20900036
:10421000de209000a1f10700402798005127980068
:1042200004003700e0ef200091f42300202f9800d5
:10423000312f98002e289000be289000002f980063
:10424000112f980080f9840091f984000200200069
:10425000832c240040f107006e219000fe21900085
:10426000ecf107000000e00001003c001a003700fc
:104270002e299000be2990004e209000de20900054
:1042800086f1070001f0a100e27f2b0023eb230061
:1042900080f107000000e000010035000e0037004b
:1042a000800520000e004000c1f329001a0009001b
:1042b00031587800b001b100800520000e004000a8
:1042c0003b1407000000eb00d40c07000000eb00db
:1042d0000f0d070036013700d0cc2c00c1e42300bd
:1042e0002027980031279800d0cc2c00c1ec230067
:1042f0000027980011279800a099290091f1230028
:10430000601f9800711f9800000020000100240029
:10431000401f9800511f9800000020000100240059
:10432000201f9800311f98003033230031fb2300f9
:10433000001f9800111f98006000b8002017980017
:104340003117980080f9840091f984000200200060
:1043500003fc230000f107000017980011179800d4
:104360006000b800600f9800710f9800a0702d00d9
:1043700031ca2300400f9800510f98002e11900071
:10438000be1190004e209000de20900044f1070006
:10439000a2f107006e219000fe219000eef00700d0
:1043a0000004be000e2890009e2890009bf107009c
:1043b0000e1190009e119000e7f007000001be0072
:1043c0000800be0035f10700200f9800310f98005b
:1043d0002e119000be1190004e209000de20900023
:1043e0002ff107008ff107006e219000fe21900051
:1043f000d9f007000004be000e2890009e2890000f
:1044000088f107000e1190009e119000d2f0070075
:104410000001be000800be0020f10700000f980058
:10442000110f98002e109000be1090007bf1070035
:104430002e099000be099000c7f007000004be00de
:104440002e109000be10900076f107000e0990002b
:104450009e099000c0f007000001be000800be00e9
:104460000ff1070060079800710798002e10900068
:10447000be1090006bf1070001f0a2002e09900021
:10448000be099000b4f007000004be002e1090009a
:10449000be10900061f107000e0990009e09900087
:1044a000adf007000001be000800be00fcf00700f0
:1044b00040079800510798000e2190009e2190001f
:1044c0002e189000be189000a3f007000005be0053
:1044d0002e109000be10900052f107002e21900087
:1044e000be2190009cf007004e019000de0190007c
:1044f000ebf007000004be002e119000be119000ea
:104500000e1890009e18900093f007000001be0066
:104510000800be00e2f007000001be000a00be0075
:104520008df007004e099000de0990008af0070028
:104530006e099000fe099000d9f007000005be004a
:104540000e1990009e1990006e189000fe189000b1
:104550001ef007000004be002e109000be10900058
:1045600030f107000001be000800be007af007002d
:104570000001be000a00be00c9f007002007980035
:10458000310798002e109000be10900023f1070014
:104590004e099000de0990006ff007000005be0094
:1045a0006e049000fe0490002e109000be1090004b
:1045b0001af107000001be000000200001f82300ee
:1045c000b6f007002e219000be21900062f0070097
:1045d0000001be000800be00b0f007004e199000b8
:1045e000de1990005cf007000001be000a00be006a
:1045f000abf007000004be002e119000be11900029
:104600000e1890009e18900053f007002e019000a5
:10461000be01900050f007000001be000800be007f
:104620009ef0070060179800711798002e00900008
:10463000be009000401798005117980082d42900be
:10464000235f24006e109000fe10900042f00700df
:104650000004be000200200003f023004e10900072
:10466000de1090003cf007007268210093d5230013
:1046700039f0070082d42900235f240036f00700b8
:104680000001be000800be0085f0070011f0070021
:104690001007980082d42900235f24006e10900038
:1046a000fe1090002cf007000004be000200200065
:1046b00003f023004e109000de10900026f007005b
:1046c0007268210093d5230023f0070082d42900cb
:1046d000235f2c0020f007000001be000800be0090
:1046e0006ff00700fbef0700000f7800c10b200000
:1046f0008e8040001e009000801f78001e00780011
:10470000801f780070f52900801f78000100780074
:104710008af60700e6875700c00b20000e00400015
:10472000231307001e007800bc0b07001e0090003a
:10473000f70b07006011b8004e209000de209000bb
:10474000b4f007000000e00001003c000700370063
:104750005001200001002000f50d07008f0e07001a
:104760000000e000fdff3200110037006001200072
:1047700001002000ee0d0700880e07000000e00099
:10478000fdff32000a0037000000eb00a30b07001a
:104790000000eb00de0b07004001200001002000bc
:1047a000e30d07007d0e07000000e000fdff320072
:1047b0004f05be004f04be000080fa000000060056
:1047c000a800fa00889fbe00880920000e0444005b
:1047d000000c78001104980022049800330498001b
:1047e00044049800550498006604980077049800e3
:1047f000800920000e0040001000be00e10f5000b4
:1048000076003a00800920000e004000b0009000c1
:1048100020009000200f9800310f980080092000a0
:104820000e004000d000900040009000000f980063
:10483000110f9800e2ef2000930424000e0890006e
:104840009e08900073f007000000e00001003c00ab
:1048500007003700a2fd2000930c24000e089000f2
:104860009e0890000df00700000f9800110f9800af
:104870000e0890009e08900068f007002e09900036
:10488000be099000b4ef07000004be00807d8000e8
:10489000917d800061f007000002be00a0f9840055
:1048a000b1f984000001be000400be00aaef0700b9
:1048b0000001be000800be00f8ef07006007980086
:1048c000710798000e0890009e08900055f00700b0
:1048d0002e099000be0990009fef07000004be0063
:1048e000807d8000917d80004ef007000002be00b8
:1048f000a0f98400b1f984000001be000400be00ec
:1049000095ef07000001be000800be00e3ef0700be
:1049100040079800510798006e019000fe0190003a
:104920006e009000fe0090008bef07000004be00b8
:104930004e019000de0190004e009000de009000dd
:1049400085ef07000001be000800be00d4ef07009d
:1049500036f0070020079800310798006e0190009c
:10496000fe0190004e009000de00900017ef07005f
:1049700063f00700008fbe001e00be0055ef070069
:10498000000478002e009000be00900051ef070058
:10499000880078009b0b07001e00be004def07004b
:1049a000000478002e009000be00900049ef070040
:1049b000f8004700881f7800801f780070f52900f4
:1049c000801f780001007800dcf50700e6875700bb
:1049d00078004700761207000a0037000000eb005d
:1049e0000e0b07000000eb00490b07004001200000
:1049f000010020004e0d0700e80d07000000e00058
:104a0000fdff32004f04be000080fa0000000600e7
:104a1000b400fa00889fbe00b0120700920507009c
:104a20006b13070034030700f30a0700700e07003a
:104a300030c7b30092120700f0f629005c1207009d
:104a40005a0707005c100700e3100700c9070700ba
:104a50009bfd0700700798000000eb0060079800be
:104a600042003700240307006000b80040079800a8
:104a70005107980007003700000000004e0090002a
:104a8000de00900061004000e08048004007980090
:104a9000510798004e019000de019000f0d32000f5
:104aa00031002000800f5100818f5900f2ff340047
:104ab0006e00900082002000110009000200d80062
:104ac0008000fd0011002000ba0107006000b8005e
:104ad00040079800510798000700370000000000c9
:104ae0004e009000de00900061004000e080480031
:104af00040079800510798004e019000de01900099
:104b0000f03d290041002000800f5100818f5900a5
:104b1000f2ff3400f80207006000b8004007980078
:104b20005107980007003700000000004e00900079
:104b3000de00900061004000e080480040079800df
:104b4000510798004e019000de019000f03d2900d1
:104b500041002000800f5100818f5900f2ff340086
:104b60006e0090000000e80060079800ee009000e2
:104b70007e009000808f5000baff35007e009000cc
:104b8000e10f50001f003a00e0f82900081207006a
:104b90006000b800400798005107980007003700f0
:104ba000000000004e009000de0090006100400018
:104bb000e080480040079800510798004e0190009f
:104bc000de019000f0d3200031002000800f510062
:104bd000818f5900f2ff340010fa2900f411070008
:104be0001000200001002000d10c07006b0d070011
:104bf0000000e000fdff320010fb2900ec1107006f
:104c0000e3ff37007e009000e20f500065003a009d
:104c100030fb2900e6110700000037007000470054
:104c20009a11070070004700700090000000e0003b
:104c3000faff3a00700047006003900070004700e0
:104c4000d0009000400090000001be0070004700be
:104c5000b0009000200090000002be0070004700ed
:104c60001000be00010320008e804000861f7800e7
:104c7000829fbe00849fbe00801f780060fd2900d7
:104c8000801f7800010078002cf50700ee875700a0
:104c9000000320000e004000c5110700700047000f
:104ca00020049000b004900080f9840091f9840001
:104cb00002002000832c2400a7ee07000001be00a4
:104cc0000040eb00107799000800be00f1ee0700ed
:104cd0000000e000010035000200370011c0b30001
:104ce000117799001e7091000004a2000004e000fa
:104cf00021003a0070004700d00090004000900072
:104d0000325c2f0083f42300e4ee070001f0a100e1
:104d10000041eb00027799003233230033eb23008c
:104d2000dcee07000000e000010035000200370063
:104d300010c0b300007799000e7091000004a2002b
:104d40000004e0000c003a0090012a0030079800af
:104d50003e009000961107000000eb002f0a0700ac
:104d60000000eb006a0a0700031007000000eb00d8
:104d7000109f98006d003700f0034700170078007f
:104d80009700900027019000b70190004702900023
:104d9000d702900067039000f703900088fe070099
:104da0009eff37007e009000e30f500035003a0070
:104db00030032a007e1107000000370000022000a7
:104dc0000e00400031110700000220000e004000dc
:104dd000700090000000e000f8ff3a0000022000a0
:104de0000e00400060039000000220000e00400012
:104df000d0009000400090000001be0000022000a2
:104e00000e004000b0009000200090000002be00a4
:104e1000000220000e0040001000be000103200030
:104e20008e804000861f7800829fbe00849fbe0057
:104e3000801f780060fd2900801f78000100780045
:104e4000bef40700ee875700000320000e0040006c
:104e500057110700070220008e83430017007800d7
:104e60009700900027019000b70190004702900042
:104e7000d702900067039000f7039000b7fc07008b
:104e8000ceff37000000eb00200798001a02070051
:104e90006000b800008fbe00050037000000000071
:104ea00010002000010020001e0f40005e97480007
:104eb000f0d3200031002000be0f1000ae8f18008c
:104ec000f6ff34002e00900011002000b90007000a
:104ed0006000b800008fbe00050037000000000031
:104ee00010002000010020001e0f40005e974800c7
:104ef000f03d290041002000be0f1000ae8f1800c9
:104f0000f6ff34002e0090000000e8002007980013
:104f10002e00900082002000110009000200d8003d
:104f20008000fd0020079800d8ff37001e989000f1
:104f30004f04be000080fa00000006002000fa00c6
:104f40006000b800600f9800710f98000000eb003f
:104f5000500f98000000eb00400f98006000b80070
:104f6000200f9800310f98006000b800000f9800e3
:104f7000110f98000000eb00400f98003f00370031
:104f80004e089000f1050700cf80de0064ed0700b9
:104f9000600f9800710f9800a07d8000cf80de0028
:104fa0005fed07006e099000fe09900039ee0700e2
:104fb0000000e000010034002d0037001000200048
:104fc000500f9800a07d8000cf80de0054ed0700d8
:104fd0000001be006e089000fe0890002fee070052
:104fe000008fbe004e089000c200dd0000f92000d6
:104ff000008040001000be0088ee070001f0a20013
:105000001e01be00d4ed07000200200003102400a2
:105010006eed07000001be002e089000be08900053
:105020001fee0700200f9800310f98004e089000e7
:10503000c200dd0000f92000008040001000be002a
:1050400078ee07001e01be00c3ed0700020020003d
:10505000031024005ded07000001be000e08900063
:105060009e0890000eee0700000f9800110f9800a8
:105070004e0890000000e800400f98004e08900095
:10508000e70f5000beff34005e0890000000e00013
:1050900005003a00b07d800060090700b07d800007
:1050a0009b090700410037002e099000be099000bf
:1050b0000e0890009e089000f6ee0700600798002a
:1050c000710798006000b8004007980051079800e9
:1050d0006000b80020079800310798006011b80000
:1050e0006e009000fe0090004aee07000000e00015
:1050f00001003d000a0037006e009000fe009000a5
:1051000046ee070040079800510798000000200075
:1051100001f82300200798003107980009003700a4
:105120000000200001f82300400798005107980074
:105130006e009000fe00900038ee070020079800f7
:1051400031079800b07d8000cf80de00f4ec0700ce
:105150000001be004e009000de0090007eed0700d2
:105160004007980051079800b07d8000cf80de0096
:10517000ebec07000001be002e009000be00900086
:1051800075ed070020079800310798004e00900049
:10519000de0090004fed0700200907002e00900070
:1051a000be0090004bed0700590907000080fa008f
:1051b000000006000600fa00000f780011079800b2
:1051c0001e007800200798002e009000e30f50008a
:1051d000670032002e009000e30f500007003e00f1
:1051e0002e009000e10f50002e0032002e009000a3
:1051f000e10f500041003e000d0037002e009000ee
:10520000e50f5000940032002e009000e50f500092
:10521000740039002e009000e60f5000ab00320001
:105220002e009000e70f5000c5003200da00370072
:105230001e009000e10f50000f003600c4c2bf00f6
:105240000080fb004600de00614060000004a20018
:1052500061406000614060004601dd00412c20009b
:1052600091407800f0cbb30000c0600002407000b5
:10527000c4e2b7001e0137001e00900061406000cc
:10528000614060004601dd00412c20009140780023
:10529000f0cbb30000c0600002407000c4e2b70071
:1052a000130137001e009000e10f50000b00360084
:1052b000c4c2bf000080fb004700de000004a20063
:1052c00061406000c700dd00c4c2bf000074a100df
:1052d00001407000c4e2b700050137001e009000d5
:1052e00061406000c700dd00c4c2bf000074a100bf
:1052f00001407000c4e2b700fd0037001e009000be
:10530000e10f50000f003600c5c2bf000080fb0057
:105310000000d100614060000004a2006140600014
:105320006140600000414000512c20009140780015
:10533000d0cfb30000c0600002407000c5e2b700eb
:10534000eb0037001e00900061406000614060008b
:1053500000414000512c200091407800d0cfb30094
:1053600000c0600002407000c5e2b700e0003700f6
:105370001e009000e10f50000f003600c5c2bf00b4
:105380000080fb004400de00614060000004a200d9
:1053900061406000614060004401dd00512c20004c
:1053a00091407800f0ceb30000c060000240700071
:1053b000c5e2b700ce0037001e00900061406000db
:1053c000614060004401dd00512c200091407800d4
:1053d000f0ceb30000c0600002407000c5e2b7002c
:1053e000c30037001e009000e10f50000f00360090
:1053f000c5c2bf000080fb004200de0061406000cb
:105400000004a20061406000614060004201dd00d4
:10541000512c200091407800b0cfb30000c0600054
:1054200002407000c5e2b700b10037001e009000d6
:1054300061406000614060004201dd00512c2000ad
:1054400091407800b0cfb30000c06000024070000f
:10545000c5e2b700a60037001e009000e10f500023
:105460000f003600c5c2bf000080fb004500de0013
:10547000614060000004a200614060006140600083
:105480004501dd00512c200091407800f0cdb300a3
:1054900000c0600002407000c5e2b7009400370011
:1054a0001e00900061406000614060004501dd0029
:1054b000512c200091407800f0cdb30000c0600076
:1054c00002407000c5e2b700890037001e0090005e
:1054d000e10f50000f003600c5c2bf000080fb0086
:1054e0004600de00614060000004a20061406000f0
:1054f000614060004601dd00512c200091407800a1
:10550000f0cbb30000c0600002407000c5e2b700fd
:10551000770037001e00900061406000614060002d
:105520004601dd00512c200091407800f0cbb30003
:1055300000c0600002407000c5e2b7006c00370098
:105540001e009000e10f50000b003600c5c2bf00e6
:105550000080fb004700de000004a2006140600004
:10556000c700dd00c5c2bf000074a100014070008b
:10557000c5e2b7005e0037001e0090006140600089
:10558000c700dd00c5c2bf000074a100014070006b
:10559000c5e2b700560037001e0090006140600071
:1055a000c700dd00c5c2bf000074a100014070004b
:1055b000c5e2b700c5c2bf000080fb004700de00a7
:1055c000614060004601dd00512c200091407800d0
:1055d000f0cbb30000c0600002407000c5e2b7002d
:1055e000c5c2bf000080fb004600de0061406000d5
:1055f000614060004501dd00512c200091407800a1
:10560000f0cdb30000c0600002407000c5e2b700fa
:10561000c5c2bf000080fb004500de0061406000a5
:10562000614060004201dd00512c20009140780073
:10563000b0cfb30000c0600002407000c5e2b70008
:10564000c5c2bf000080fb004200de006140600078
:10565000614060004401dd00512c20009140780041
:10566000f0ceb30000c0600002407000c5e2b70099
:10567000c5c2bf000080fb004400de006140600046
:105680006140600000414000512c200091407800b2
:10569000d0cfb30000c0600002407000c5e2b70088
:1056a000c5c2bf000080fb000000d1006140600067
:1056b000c700dd00c4c2bf000074a100014070003b
:1056c000c4e2b700c4c2bf000080fb004700de0098
:1056d000614060004601dd00412c200091407800cf
:1056e000f0cbb30000c0600002407000c4e2b7001d
:1056f0000080fa00000006000000fa00c4c2a90001
:10570000c4e2a900c522a900c582a900c542a9001a
:10571000c5a2a900c5c2a900c5e2a9000080fa007f
:10572000000006000200fa00000f780010002000c0
:105730009e0f10000f003600d0c2bf000080fb009b
:105740004200de00614060000004a2006140600091
:10575000614060004201dd00012d20009140780091
:10576000b0cfb30000c0600002407000d0e2b700cc
:105770000a0037001e007800614060006140600050
:105780004201dd00012d200091407800b0cfb30030
:1057900000c0600002407000d0e2b7000080fa0054
:1057a000000006000200fa00000f78001000200040
:1057b0009e0f10000f003600d0c2bf000080fb001b
:1057c0000000d100614060000004a2006140600060
:1057d0006140600000414000012d200091407800b0
:1057e000d0cfb30000c0600002407000d0e2b7002c
:1057f0000a0037001e0078006140600061406000d0
:1058000000414000012d200091407800d0cfb3002e
:1058100000c0600002407000d0e2b7000080fa00d3
:10582000000006000000fa00c4c2bf000080fb00b8
:105830004600de006140600000c0ea006140600098
:10584000614060004601dd00412c2000914078005d
:10585000f0cbb30000c0600002407000c4e2b700ab
:10586000c4c2bf000080fb004700de0000c0ea00a9
:1058700061406000c700dd00c4c2bf000074a10029
:1058800001407000c4e2b700c5c2bf000080fb0049
:105890000000d1006140600000c0ea00614060008b
:1058a0006140600000414000512c20009140780090
:1058b000d0cfb30000c0600002407000c5e2b70066
:1058c000c5c2bf000080fb004400de0061406000f4
:1058d00000c0ea0061406000614060004401dd00fa
:1058e000512c200091407800f0ceb30000c0600041
:1058f00002407000c5e2b700c5c2bf000080fb00d7
:105900004200de006140600000c0ea0061406000cb
:10591000614060004201dd00512c20009140780080
:10592000b0cfb30000c0600002407000c5e2b70015
:10593000c5c2bf000080fb004500de006140600082
:1059400000c0ea0061406000614060004501dd0088
:10595000512c200091407800f0cdb30000c06000d1
:1059600002407000c5e2b700c5c2bf000080fb0066
:105970004600de006140600000c0ea006140600057
:10598000614060004601dd00512c2000914078000c
:10599000f0cbb30000c0600002407000c5e2b70069
:1059a000c5c2bf000080fb004700de0000c0ea0067
:1059b00061406000c700dd00c5c2bf000074a100e7
:1059c00001407000c5e2b7000080fa000000060048
:1059d0000000fa00c4c2bf000080fb004600de00e9
:1059e0006140600000c0ea0061406000614060000a
:1059f0004601dd00412c200091407800f0cbb3003f
:105a000000c0600002407000c4e2b7000080fa00ed
:105a1000000006000000fa00c4c2bf000080fb00c6
:105a20004700de0000c0ea0061406000c700dd0002
:105a3000c4c2bf000074a10001407000c4e2b700fe
:105a40000080fa00000006000000fa00c5c2bf0096
:105a50000080fb000000d1006140600000c0ea004f
:105a6000614060006140600000414000512c200016
:105a700091407800d0cfb30000c0600002407000b9
:105a8000c5e2b7000080fa00000006000000fa003e
:105a9000c5c2bf000080fb004400de006140600022
:105aa00000c0ea0061406000614060004401dd0028
:105ab000512c200091407800f0ceb30000c060006f
